:020000021000EC
:10800000004000209D070200D9070200DB070200A4
:108010000000000000000000000000000000000060
:10802000000000000000000000000000DD0702006A
:108030000000000000000000DF070200E10702006E
:10804000E3070200C9B00100590E0200E307020075
:10805000E30702000000000015080200E307020029
:10806000E3070200D5100200E10C0200E307020062
:10807000E3070200E3070200E3070200E307020050
:10808000E3070200E3070200E3070200E307020040
:10809000E3070200150502001DEC0100E3070200E2
:1080A000E3070200E30702000000000000000000F8
:1080B00000000000000000000000000000000000C0
:1080C0000448054B10B5834203D0044B002B00D06D
:1080D000984710BDAC200020AC200020000000001C
:1080E00006480749091A8B10C90FC91810B549105D
:1080F00003D0044B002B00D0984710BDAC200020CB
:10810000AC2000200000000010B5074C2378002BA5
:1081100009D1FFF7D5FF054B002B02D0044800E042
:1081200000BF0123237010BDC82000200000000004
:1081300054890200054B10B5002B03D004490548B3
:1081400000E000BFFFF7CCFF10BDC04600000000FC
:10815000CC20002054890200402292029A1A9246B2
:108160007047C046154B002B00D1114B9D46FFF7C1
:10817000F3FF00218B460F461148124A121A0AF0EB
:10818000D3FC0C4B002B00D098470B4B002B00D09E
:1081900098470020002104000D000B480AF054FB12
:1081A0000AF09AFB200029000EF0C5FF0AF06AFBD6
:1081B0000000080000000000000000000040002057
:1081C000B02000206C2A0020B1280200F7B50A0078
:1081D000030010320C781C704C785C708C789C70AA
:1081E000CC780431DC7004339142F3D1124B042279
:1081F0009C46124E0327037B457B847BC17B3A421E
:1082000009D16746755D0195355D745CF15C930835
:10821000FB5C019F7B40077801327B40037443780D
:108220005D40837845745C40C37884745940C17460
:1082300004302C2ADED1F7BD348102003F820200D7
:10824000F0B50A0004000F0089B0010000200BF017
:10825000DBFC0126231D01932500230019001A00D1
:108260001031029111788C4660463749095C1170D3
:10827000029904329142F5D1019A01339A42EDD12B
:10828000627963786270627A6271627B6373627230
:10829000A27AA378A270A27BA372A379A271E27BD7
:1082A000A373E378E270E27AE273E279E371E27257
:1082B0000A2E41D02300103307932B7802930298A3
:1082C0006B7858400393AB780493EB780593059A49
:1082D000049B53400693434001930BF0AFFC029B79
:1082E0005840019B58402870049B039858400BF05D
:1082F000A5FC039B5840019B5840687006980BF002
:108300009DFC049B5840019B5840A870059B029817
:1083100058400BF093FC059B5840019B5840079B2D
:10832000E8700435AB42C8D130003A002100013674
:108330000BF06AFCF6B28DE73A00210030000BF03A
:1083400063FC09B0F0BDC0463F820200F0B591B0B9
:108350000A000E91040001000A200BF055FC0923CD
:10836000627A0093637B627362792600627262783C
:1083700063706271A27AA378A270A27BA372A379C0
:10838000A271E279A373E378E270E27A534DE2716D
:10839000E27BE3732300E272201D19001A00103102
:1083A0001778EF5D177004329142F9D1013398428A
:1083B000F3D121000E9A00980BF026FC009B002BB5
:1083C00000D188E0230010330F933378F7780193BE
:1083D000737801980293B37803930BF02FFC079006
:1083E0000BF02CFC08900BF029FC049002980BF089
:1083F00025FC09900BF022FC0A900BF01FFC059065
:1084000003980BF01BFC0B900BF018FC05000BF015
:1084100015FC069038000BF011FC0C900BF00EFCD4
:108420000D900BF00BFC0899079B02004B40049940
:108430004B4009994B4005994B4006996B404B4086
:10844000029943404B4003994B407B400499337061
:10845000099B4B400A994B4005994B400B994B4067
:1084600006994B400D994B40019943404B4003996D
:1084700008984B407B407370049B5840059B5840C4
:108480000B9B5840069B45405D400C9B07985D4008
:10849000019B55405D40029B5D40049B7D405840E0
:1084A0000A9B0D9F5840059BB5705840069B58404D
:1084B0000C9B58404740019B7A405A40029B5A40CF
:1084C0004A400F9BF2700436B34200D07DE7009B18
:1084D000013BDBB244E711B0F0BDC0463F81020072
:1084E00010B50400034B036040300BF0F5FD200095
:1084F00010BDC0464076020010B586B004A80F49F2
:1085000002F024FF04A905A801F0A0F80C4C05A96D
:1085100020000BF03EFE05A80BF0DEFD04A80BF0DA
:108520005BFF2068074904300BF0DEFB06490200C0
:1085300006480EF0C3FC06B010BDC04668240020FB
:10854000FC200020488302003F8302000421002019
:1085500007B507490BF0BBFB010001A801F066F865
:1085600001A904480CF07BFF01A80BF0B5FD07BD85
:10857000488302006824002030B589B0029003913E
:1085800006A833490492059301F050F8314906AA30
:10859000022307A803F004F8079B1D1D28000AF01A
:1085A0002DFD2D4C00902B0000216268200008F06A
:1085B000B9FE07A80BF090FD06A80BF08DFD23680F
:1085C00062681800991892100300002A22DD0078D2
:1085D0007E2803D058787E280ED101338B4223D0D9
:1085E000080019005A1C82421ED013787E2B01D03D
:1085F0000B7001310132F6E798787E2801D1023301
:10860000ECE7181DDD1CDB787E2B01D12B00E5E7A4
:10861000013AD9E70A1A022A15D0032A0FD0012AF3
:1086200002D11A787E2AD9D02368626820009A186D
:108630000EF0DCFF2068FFF78BFF09B030BD027839
:108640007E2ACBD001331A787E2AC7D00133E8E7DF
:108650004183020004210020E420002030B520489E
:1086600085B000F061F91F4903A800F0DFFF782210
:1086700003A91D4802F06AF903A80BF02DFD1B4C5D
:10868000102520000CF048FFC1B2200003F066F86E
:10869000174903A800F0CAFF002203A9200002F036
:1086A00013FF03A80BF018FD124C01222000092132
:1086B000114B00950BF0E5FA0C21200001220F4B25
:1086C00000950BF0DEFA0E4C200002F043FD1C2159
:1086D000200002F02BFD0B4800F090FDFBE7C046A8
:1086E0000021002043830200F0210020042100200B
:1086F00041830200D0210020F98401007985010026
:10870000502400201027000070B50F4D280000F005
:1087100055F80E4C0E49220028000EF0B8FE0D4D03
:10872000280000F0EDFF220028000B490EF0AFFEFC
:108730000A4822000300083303600023084943600D
:1087400003720EF0A4FE70BD002100200020002066
:1087500065870100FC200020D9400200E4200020B1
:10876000E1750200CB23144A9B0010B5C2501C33A4
:108770000400C0180BF0B0FCD1239B00E0180BF0F4
:10878000ABFC20009130FF3001F080FB200069300D
:10879000FF3001F07BFB2000F03001F0E9FE20000B
:1087A000D03002F069FA2000643007F055FF201D38
:1087B000FFF796FE200010BDCC7A02001423F0B51E
:1087C000040093B0192200931821043002F054FEE3
:1087D00023002500260064331800B43513211093BC
:1087E000B83607F045FF28000CF0DEFE00221E21FF
:1087F00030000CF036FB2000D03002F05DFA230090
:10880000F03307211800454A119301F0D9FE2000EA
:108810000027012369301A0011210097FF3001F071
:1088200041FB20009130012302221A210097FF30E2
:1088300001F038FB2000B930022201210323FF3070
:1088400002F006FB300001F033F9E4235B00E05056
:10885000300001F081FBE6235B00E0500100E422E0
:1088600020005200D130119BA2580095FF3001F03A
:1088700075FC2000E13029000822FF3003F0FCF8ED
:10888000782320000F93013B0E93033B0D93013B94
:108890000C93013B0B93013B0A93013B0993013B72
:1088A0000893013B0793013B0693013B0593013B72
:1088B0000493013B0393013B0293013B0193F93085
:1088C000013B652200936421013BFF300CF0EAFA82
:1088D000CB239B002900E01804F08EF8D4239B00E2
:1088E000E018092102F08CFBDE239B00E750109872
:1088F000032127700EF0A6FA230022002000084969
:108900009C33A0321C6082C2064A02215A61803028
:10891000012208F031F8200013B0F0BD48760200C3
:10892000193D0200033D02000278F0B50123170053
:10893000040091B01F401A4263D10300D0331800E5
:10894000049300F0CBFA00F0DDF930200EF0AEFD1C
:10895000050010300BF04FFC280024300BF0E3FA38
:108960006A4B18202B600EF0A1FD0600684B082210
:10897000390004600C300E930F970AF0D5F80EA959
:108980000822301D0AF028F8624B29007361122377
:108990000498AE60EF60AB802F62EF6202F000F9E6
:1089A000002805D028000BF04BFB28000EF076FDC8
:1089B000012326002278B436134323705649300031
:1089C0000CF0F8FD00255549039030000CF0F2FD45
:1089D0002F000590642000F011FC029523006933FC
:1089E000FF33180006930BF037FE00280BD1039BD2
:1089F000002B12D1059B002B0FD14949494800F0AB
:108A0000C1FC11B0F0BD20009130FF300BF024FE0E
:108A10000028ECD0029B182BE9DC20006530FF23F6
:108A200039B22AB2FF3000F0ADFE322000F0E6FB92
:108A3000029B01370133FFB20293052F02D10027B9
:108A40000135EDB2029B192B0AD0039B002BC5D038
:108A50003000314902F0A2FF03980EF01FFD02E042
:108A6000039B002BF4D1059B002B02D018000EF0C5
:108A700015FD2B492C4800F085FCCB239B00E31807
:108A80000793DE239B00E3580893002B36D100F0B8
:108A900059F801000BA800F0C9FD0BF0C3F90890CC
:108AA0000BF0C0F96B460990198C0DA80BF030FB48
:108AB000099B0EA8190C0BF02BFB0EAA0DA90CA8F4
:108AC0000BF076FB0EA80BF007FB0DA80BF004FBD8
:108AD00001230CAA0BA907980093049B03F0E6FF5F
:108AE0000CA80BF0F9FA0BA80BF0F6FACD239B00BB
:108AF000E3580893DE23089A9B00E2502100069A6F
:108B00000798F03104F0C2F968E7C046FD030000A1
:108B10008B3D02004B3D020058830200638302003C
:108B20000020002008000020001C0020BFF34F8F11
:108B3000024B034ADA60BFF34F8FFEE700ED00E01F
:108B40000400FA05F0B58BB003AF192238001549BF
:108B500009F042FF0023144D05266B7180235B054D
:108B60005B6E2C000093012301933100009808F004
:108B7000FFFC0800019908F075FC0522009B564394
:108B80001B1A0093019B534301932B1B5343FB1868
:108B90001B5C013C6371054B9C42E6D102480BB063
:108BA000F0BDC046A9830200A6290020A12900200B
:108BB000F0B595B01822002104000EA809F0B4FF0A
:108BC00013210EA80EF09DFA03210EA80EF03CFB17
:108BD000464B1B68002B00D10133DBB20093002110
:108BE0000123434A09A808F037F8FA239B009C4266
:108BF0009B411C4072B63F4B64211E683E4B2000D7
:108C00000593052508F0B8FC6843503030180A2158
:108C10000690200008F0B0FC0A2108F093FD69439B
:108C200050317118200007910A2108F08BFD69432B
:108C300050317118802600240891B601009B002B4A
:108C400052D004AD0027032C02D180260024B601A7
:108C50006B682A4A02936300D31800220192587865
:108C60000299095C039119788C46102160460141F4
:108C70000398014204D001209040019901430191E1
:108C800001320633092AEAD1019B2A68D9431C4BD9
:108C900009011940029B934224D1312F22DC00218B
:108CA00009A80EF08AFBFA23139A0F99DB001068CB
:108CB000014219D0013B002BF9D1FA2301340137CD
:108CC0007600E4B25B009F42BDD1043508ABAB42F5
:108CD000B8D1064B1B68002BB0D0009B013BDBB228
:108CE0000093ABE73143DBE7FFF720FF8024002050
:108CF000F0FF000004200020F8830200C28302007D
:108D0000F01F0000F8B50023124C23600BF07CF834
:108D1000002808D0042120000BF072F8002801D0B0
:108D20000D4B2360F8BD0123A12704210B4A0C4DF4
:108D300013602368FF0068606E68002EFCD0D6596F
:108D40001B02013933430029F5D12360012353600D
:108D5000E8E7C0467C240020ED5EBC0B00D000405C
:108D6000FCD000400B4B70B51C68002C10D0656D1A
:108D700000F018FCA36C002901D1834206D8200022
:108D80000BF099F8200004490BF085F82C00ECE773
:108D900070BDC04688240020A8240020F0B595B0FE
:108DA00007932A4B04AC1E68049005910692002E8E
:108DB00049D0274B678825881C6800230293002C24
:108DC0002DD0636D23480393A36C190C9AB20B004A
:108DD000854214D12048824211D1002901D0B942E4
:108DE0000BD1029B002B08D120000BF064F820006F
:108DF0001A490BF050F801230293039CDFE7002A85
:108E000001D09542F9D1002901D0BB42F5D1200013
:108E10000BF051F8200011490BF03DF8EDE7104B35
:108E2000EB18012B0FD910233A002900009308A852
:108E30000C4B0BF0EBF8336830009B6808A998479F
:108E400008A80BF0FDF815B0F0BDC0468424002042
:108E5000B8240020FE030000FF030000A824002027
:108E600002FCFFFF9D8D010010B572B60E4B1C6811
:108E7000002C0ED020000BF01EF80023E3640B4BF7
:108E8000E36372B60A4B1A681C60A26562B62000E2
:108E900010BD62B65C200EF009FB5C2200210400CC
:108EA00009F042FEE9E7C046B0240020004000205F
:108EB000AC240020074B10B51C68E36CDB0706D51B
:108EC000FFF7D2FF044B1860002800D004002000F8
:108ED00010BDC046BC2400208C240020F7B51E4CD9
:108EE0000123227816001E401A4233D11B4D286000
:108EF000FFF7BAFF1A4B1B4918600AF0CCFFFFF7C7
:108F0000B3FF194B1860194B4363194B83632868EF
:108F100000280FD0C023174F3200174900933B00A1
:108F20000AF093FFC023009332003B0013492868E6
:108F30000AF08BFF0C200EF0B9FA002383808371B6
:108F40000F4B03600F4B836000F044FB012322783A
:108F500013432370F7BDC046AC29002084240020B1
:108F6000BC240020A8240020B4240020FC3F0020C2
:108F70001B3F02009D8D0100FF030000FE03000067
:108F800068760200658D0100024B187801231840B5
:108F90007047C046AC290020F7B5134F04003B686A
:108FA0000E00002B1ED0114B1B78DB071AD5FFF7E4
:108FB00081FF05003304234383640AF07CFF28000B
:108FC0000B490AF068FF0B4B0025E318012B07D96A
:108FD000C023009332002100074B38680AF035FFA8
:108FE0002800FEBD054DFBE784240020AC290020AD
:108FF000B824002002FCFFFF9D8D010016FCFFFF3E
:10900000F7B506000D0017000193002802D10024D7
:109010002000FEBD0029FAD0FFF726FF041EF6D07F
:10902000074B019A43630660064B45608760002A40
:1090300000D0054B20000549A3630AF02CFFE7E7A9
:10904000FC3F0020F53E0200033F0200A824002060
:1090500070B5074B0E0011001A78050001231000AF
:1090600018401A4203D032002800FFF7C9FF70BD34
:10907000AC290020F8B50500EFF30884C36B006C41
:109080001C1B6B6C1B1A9C420FD91F23074E2034EC
:1090900037689C43002801D000F0D6F9200000F08A
:1090A0009FF92864001968643760F8BDBC2400206B
:1090B000024B1868434258417047C046A82400201C
:1090C0000300002210B5044994006058002801D024
:1090D0000132F9E7635010BD90240020002310B541
:1090E000044A99008C58844201D00133F9E70020EA
:1090F000885010BD9024002010B50024084BA20019
:10910000D058002802D003685B6898470134062CC9
:10911000F4D1044B1B68002B00D120BF10BDC0460A
:1091200090240020A82400200122F8B52C4B1B78A5
:1091300013421CD02B4D2C68E36C134218D002272D
:109140003B43E364284B1E680423F26C3000134356
:10915000F364636BF363FFF78DFF3000716C04F011
:1091600096FA2868C36C3B4201D004F0CAFAF8BDF5
:109170001E4F1F4E3A683068002A0AD128601B072C
:1091800012D52C60FFF7B8FF3B68002BFAD02B609C
:109190000AE0216DB94219D1616D002900D1110099
:1091A00029602A688242EAD029688C42DFD033687D
:1091B00099420DD10F4B4B630F4B8B632000FFF790
:1091C00059FF296820004B6C626C06E02A60E8E7D2
:1091D0009C42F3D1002210004B6C04F017FAC6E752
:1091E000AC290020BC2400208C240020A8240020CE
:1091F000B4240020FC3F00201B3F020070B50C4B44
:1092000004001B78DB0702D40EF017F870BDFFF7DF
:1092100051FE050000F0C6F92418AC6428000AF0DD
:109220004AFE280003490AF036FEFFF77DFFEDE70E
:10923000AC29002088240020F8B51B4B1B78DB07E5
:1092400027D50024194E30680AF035FE184D2B68DA
:10925000002B02D05B6D0134FAE7032C0ADD2F6886
:10926000013C7B6D386C2B6000F0EEF8380000F0AC
:10927000EBF8F2E7290030680AF00DFE72B60D49EE
:1092800032680B68934206D19B6D0B6062B6FFF7A4
:109290004BFFF8BD0B00002BF8D0996D8A42F9D135
:1092A000926D9A65F2E7C046AC290020BC240020EC
:1092B000B0240020AC24002010B5034B1B78DB0742
:1092C00001D5FFF7B9FF10BDAC290020F7B50500A7
:1092D0000C00002833D001261B4B1B78334230D0C2
:1092E0001A4F07233868C26C1100194000911A42C6
:1092F00007D021002800164AFFF7AAFE0025280003
:10930000FEBD04F0E6F93A680221D36C180008406B
:1093100001900B4203D001318B43D364EEE733431A
:10932000D3642000A8473A68019DD36C1900B1436B
:10933000D1645B07E3D52000FFF7BEFFDFE7054DF3
:10934000DDE7054DDBE7C046AC290020BC2400204A
:10935000B992010017FCFFFF16FCFFFF020010B5D9
:10936000014B12CB12C210BDC0240020034B1A685F
:10937000034B1A607E225A607047C04604200020CA
:10938000C0240020F0B5124E03003278022A1BD010
:1093900081421BD90C1A072C18D90D00054303274D
:1093A000280038403D4211D172B6BA40094DA40898
:1093B0005351AA1851608022120614431C6033785E
:1093C0000133337062B6F0BD0348FCE70348FAE7A7
:1093D000AE290020C824002013FCFFFF17FCFFFF6C
:1093E00070B5041E23D0124D124E2B78002B0CD1D9
:1093F000114912483370FFF7C5FF114B984202D153
:109400001E20FFF7D5FB01232B7000253378AB42DC
:1094100009DD0C49EB002000C9180AF088FD00287E
:1094200005D10135F2E71420FFF7C2FB002070BD23
:10943000AD290020AE29002000380020702A00202D
:1094400017FCFFFFC824002010B5002817D0002209
:109450000F4B19780F4B914215DD1C6884420FD2D7
:109460005C6884420CD9041F2368002B02DC1E2098
:10947000FFF79EFB802322681B061343236010BD69
:1094800001320833E7E71E20FFF792FBF7E7C046FB
:10949000AE290020C824002070B5051E14DD0B4E37
:1094A0000B4C3368002B02D020680DF07DFDFA21B3
:1094B00020680024074B89008361C46269433560DA
:1094C0000DF083FD200070BD0348FCE7D824002088
:1094D000082500208195010017FCFFFFF8B5114F0A
:1094E00005003E68002E0AD130200DF0DFFF040099
:1094F00007F026F90C4BA6612360E6623C600B4E38
:109500003368002B09D110200DF0D0FF04000DF0BE
:10951000A8FD200034600DF07EFD2800FFF7BCFFA1
:10952000F8BDC04608250020747E020004250020F6
:10953000014B18687047C046D824002070B50D4C08
:109540002368002B03D00C4B1B68002B02D1062094
:10955000FFF7C4FF20680DF075FD02000749C3172F
:109560000D684E685219734120680A604B600DF017
:109570006FFD70BD0425002008250020B0200020CC
:1095800010B5FFF7DBFF0024054BA200D0580028E0
:1095900002D003681B68984701340A2CF4D110BD2F
:1095A000DC24002010B5FFF7C9FFFA22034B92001C
:1095B00018685968002308F005F910BDB020002094
:1095C00010B5FFF7BBFF024B1868596810BDC046C5
:1095D000B02000200B4B10B51B680400002B03D0FB
:1095E000094B1B68002B02D10620FFF777FF0023F1
:1095F000064A99008858002801D00133F9E78C50B9
:1096000010BDC0460425002008250020DC240020D1
:10961000002310B5044A99008C58844201D00133CC
:10962000F9E70020885010BDDC24002010B50400AC
:10963000002902D00B78002B03D1034B23602000BC
:1096400010BD0AF050FDFAE778760200F8B5050083
:1096500008000C000AF0FCFE002803D1124B2B601E
:109660002800F8BD20000AF0F3FE0530FFF7B8FE31
:1096700028600AF0F0FE20000AF0EAFE2E687080F2
:1096800020000AF0E2FE070020000AF0E1FE3900A7
:109690000200301D09F0A0F920002E680AF0D8FE63
:1096A000002336183371DBE778760200F8B5040042
:1096B0000E00150000290AD00B78002B07D0002AD5
:1096C00005D0080097B209F099FC874203D90B4BEB
:1096D00023602000F8BD681DFFF782FE20600AF0BD
:1096E000BAFE20682A0047803100043009F074F97E
:1096F00023685D1900232B71EBE7C04678760200E2
:10970000014B03607047C0467876020010B50548EB
:10971000054C20600AF0A2FE2000044A04490DF026
:10972000B6FE10BD787602000C2500200020002037
:10973000D9400200084B73B51D680400002D0AD003
:1097400001002E6808220831684609F045F90CCC62
:1097500028003168884773BD10250020014B036045
:109760007047C0468076020010B50400081E03D181
:10977000034B2360200010BD21600AF06FFEF9E763
:109780008076020030B500684488A1420CDA8588F2
:10979000AA4209DA002907DB002A05DB62434018E8
:1097A00080188371002030BD0048FCE717FCFFFFE4
:1097B000F0B507000E001D0085B0002921DD002A4C
:1097C0001FDD002B1DD00468638803938B4200DDEE
:1097D0000391A3880293934200DD02920023063492
:1097E0000193019B029A93420ED029002000039A14
:1097F00009F0F2F83B68AD195B88E418019B01336E
:10980000EEE7024805B0F0BD0020FBE717FCFFFFC4
:10981000F8B504000D0016001F00002901DB002A26
:1098200002DA0D4B2360F8BD100048430630FFF705
:10983000D7FD20600AF00FFE23685D809E80002F18
:1098400006D03B00320029002000FFF7B1FFEAE715
:1098500020000AF021FDE6E780760200F7B5070058
:109860000D1E03D1244B03603800FEBD0024080008
:109870002600210001940378002B1AD03022524296
:1098800094469C446246092A11D90A2B0AD1019BAD
:10989000361901330193B14200DA31000024260069
:1098A0000130E8E7002CFBD000240136F8E7012462
:1098B000F6E7019A380012B209B2FFF7A9FF0121B9
:1098C00049420E000A203B689A1D2C78002CCBD010
:1098D0002300303B092B08D8CB43DB170B40434315
:1098E0001B19303B19000135EFE70029FBDB117034
:1098F00031000132F7E7C04680760200F0B504007F
:1099000087B004A80E001D000192FFF727FD236811
:1099100001995A88914233DA9B889D4230DA1F2E92
:109920002ED9059B00939E422ADC05230021734318
:10993000049AA03BD3180393039B6E185B5C0293BD
:109940000023019AD718226850880090B8420EDD93
:109950009088B0420BDD0098D21970431218102085
:109960001841029F3840471EB84140429071013370
:10997000052BE6D101310529DED1002007B0F0BD6D
:109980000048FBE717FCFFFFF7B5036806009F1DC3
:109990005B880D005A1A0192002919DD00249942B2
:1099A00003DB0AF079FC002013E033689B889C42BB
:1099B000F9DA79193800019A09F00EF8019B2900AB
:1099C000F8180AF04CFC336801345B88FF18ECE7A8
:1099D0000048FEBD17FCFFFF10B50548054C206090
:1099E0000AF03CFD2000044A04490DF050FD10BD72
:1099F0008076020014250020002000205142020041
:109A000010B5054C012120000AF010FD2000034A8A
:109A100003490DF03CFD10BD18250020002000205A
:109A2000D9430200074A030010B50120934208D031
:109A3000834202D00020DB0703D41E20FFF7B8F8D2
:109A4000002010BDFFFF00000048704716FCFFFF1C
:109A500010B53220FFF7ACF8004810BD16FCFFFF30
:109A600082801422002310B541620F4C010008349B
:109A700004600E240281123A83718272036383862A
:109A800036310A78C360A243036143618361C361D5
:109A900003620A70021DD38701224287034AC26310
:109AA00002004032137010BDA076020001000100D8
:109AB000F0B5564E0500376897B0002F00D090E003
:109AC00006AC0B231C228221200001F0F9F90B23A4
:109AD0001D2283210AA801F0F3F90B231B22842104
:109AE0000EA801F0EDF908200DF0E0FC01223B008A
:109AF000110004900CF0C0F83A2128000BF0DBFDB7
:109B000000281CD0A38812AFBB80A379A268BB71C8
:109B10003F4B5C2012930E23E3561492A289BB7331
:109B2000BA810DF0C3FC05230193353300933A004D
:109B30002900049B040002F0A1FA346051E03221B4
:109B400028000BF0E6FD00281BD0A38812AFBB80D5
:109B5000A379A268BB712E4B5C2012930E23E356AF
:109B60001492A289BB73BA810DF0A0FC0523019366
:109B70002D3300933A002900049B040002F022FCDC
:109B8000DBE73C2128000BF07FFD002834D0362293
:109B900002AB9B8E12AFBB8002AB9B181B780832C6
:109BA000BB711B4BA420129302AB9B18109A1B781D
:109BB0001492059202AA928F5BB2BA81BB730DF028
:109BC00075FC062304000293013B01933733009395
:109BD0003A00049B290002F071F90E4B34604434C2
:109BE0001C600C4B094C1868002802D021680AF050
:109BF000A1FD206817B0F0BD44200DF057FC0522F0
:109C000004990400FFF72CFF97E7C0461C250020AD
:109C10009076020020250020F0B56349C56885B024
:109C20008D4258DA030036331C7802222300134099
:109C300014425BD1026901928A4265DA020036322F
:109C4000127852076AD4426902920200029C4032A2
:109C50008C4270DA010036310978090775D4002B7F
:109C60007ED113789C46002B16D00100061DF38F81
:109C7000363101339BB2F3870391097801270C0039
:109C80003C40394200D188E01D2B05D9039BB943E4
:109C900019700023F38713700AF02CFC434A072342
:109CA000904277D94249043B8D4273DBC82201338D
:109CB000920095426EDC0198023B88426ADB013BD0
:109CC000904267DC02980433884263DB00239042B1
:109CD00060DD06335EE0C822002352009542A9DD14
:109CE000030036331A7800239207A3D40123060019
:109CF0001F00363632785408A7433C0002279C40A8
:109D0000BA432243327095E7C822019C5200944224
:109D100099DD020036321278520794D401230600EE
:109D20001C00363632789708BC43A7000424A243AF
:109D30003A43327087E7C821029C49008C428EDD8D
:109D4000010036310978090789D40100012636312E
:109D50000B78DF08BE430827F600BB4333430B7084
:109D60001378032B00D97CE70133DBB21370012B8E
:109D700003D10021031DD98773E7042B00D070E7BE
:109D8000020036321178033B0B431370002304307A
:109D9000C3870B33180005B0F0BD092B00D87BE753
:109DA0006346F487013B76E770FEFFFFFF70020019
:109DB000E0FCFFFFF0B5C369C1681A68451D0400E7
:109DC000EB7F89B0114225D0002B57D10123A27916
:109DD0001A4237D0002602226846A188A6710AF0EE
:109DE00014FAA31DDD7F012D2CD1FFF7DBFB33001F
:109DF000226A801A99410F000600A1889F4203D170
:109E0000FA239B009E423BD30123042204A80AF0BC
:109E1000FCF917E00B2B01D80133EB77EB7F082B14
:109E20000DD90122A37913420CD11343A188A37148
:109E300004A813000AF0E9F9FFF7B4FB2062EB7FF6
:109E4000012BC3D90322A3791340012B14D1FFF7AF
:109E5000A9FB0023226A801A9941994202D10A4B38
:109E6000984209D90223A279A1881343A37105223C
:109E7000012304A80AF0C9F909B0F0BD013BCCE701
:109E80002B000322C2E7C046DB05000010B504002A
:109E9000034B08330360FFF7BBFB200010BDC04637
:109EA000D4760200F0B5060000250F00040085B04E
:109EB00002930AAB1B78083603930F4B2900083333
:109EC00003600192858085711822300008F02CFE15
:109ED00039003000039A0DF019F9019B029AA38012
:109EE000A31DE771DA77631D25622000DD77FFF798
:109EF00071FB200005B0F0BDD47602000048704729
:109F000016FCFFFF10B53320FEF752FE004810BDCF
:109F100016FCFFFF002310B50400838083710D48F9
:109F20002164083020608020C000A061E0612062D0
:109F300011002000E360236163616362A362E36256
:109F400023636363A363E36363640AF0CBFB2000D2
:109F500010BDC046EC760200F0B5544E05003768DF
:109F600097B0002F3DD10B231C22822106A80AACFA
:109F700000F0A6FF0B231D228321200000F0A0FF8C
:109F80000B231B2284210EA800F09AFF08200DF05D
:109F90008DFA01223B00110004900BF06DFE1D2193
:109FA00028000BF09FFB002824D0A38812AFBB80B1
:109FB000A379A268BB713E4B602012930E23E35637
:109FC0001492A289BB73BA810DF070FA0623019333
:109FD000173300933A002900049B040002F022F991
:109FE0003460344B314A1B681068002B00D0436446
:109FF00017B0F0BD3C2128000BF0A2FB00281BD0BD
:10A00000A38812AFBB80A379A268BB71284B6020E4
:10A0100012930E23E3561492A289BB73BA810DF0FA
:10A0200045FA06230193363300933A002900049B36
:10A03000040002F069FAD3E73C2128000BF024FB6E
:10A04000002829D0362202AB9B8E12AFBB8002AB18
:10A050009B181B780832BB71154BA420129302ABDE
:10A060009B18109A1B781492059202AA928F5BB2E9
:10A07000BA81BB730DF01AFA062304000293013B68
:10A080000193373300933A00049B290001F016FF37
:10A09000084B1C604434A3E748200DF007FA062261
:10A0A00004990400FFF736FF9AE7C04620250020F8
:10A0B000907602001C250020F0B587B001930EAB0E
:10A0C0001B88060003930D9B0D000093019B0C9FC2
:10A0D0000292002B3DD0002F02D1009BDB0738D528
:10A0E00030200DF0E3F9040010300AF084F820006D
:10A0F000243009F018FF029B1820258063800DF0A2
:10A10000D5F90500009B08220593019B00210360FF
:10A110000C30049708F008FD082204A9281D08F057
:10A120005BFC0D4B02226B6100230399E360236209
:10A13000E36233680A43300021005B68A560A280B7
:10A140009847002805D0200009F07AFF20000DF084
:10A15000A5F907B0F0BDC0467947020070B58CB0D4
:10A160008360109B01604260C360040018491800BE
:10A170000BF020FA051E14D001001C22103105A896
:10A1800008F02AFC6A4608AB43CB43C21B68136045
:10A1900020680599069A079B0AF0B6FA28000DF088
:10A1A0007DF90C4B186800280ED00B4A05AB0592C0
:10A1B00000220692C03202926A4622CB22C22300BB
:10A1C00003220621FFF778FF20000CB070BDC046C7
:10A1D000D885020010250020DDA1010082B0F0B575
:10A1E0000400EDB06420739372920DF026F80522FE
:10A1F00010A811000AF059F8954911A8FFF72EFB95
:10A200001925002221AB013D1A605A609A600C3377
:10A21000002DF8D11522290014A8139508F084FC0C
:10A22000A0680AF017FEFF210A90A06800F01EFC4B
:10A23000884FA06800F0BEFA049508950995854BF3
:10A240009F4203D0844B9F4200DBF7E0A0680AF0F6
:10A2500003FEA56881491AA8FFF7E8F978221AA930
:10A26000280000F049FB1AA809F036FF0023794FB7
:10A2700004930326099B60680133334009930AF075
:10A28000D1F9050060680AF0D4F90022744B0592F8
:10A290009D420FDB013205922A00C8320ADBAA2256
:10A2A000042192000591954204DC0596C82D01DC3D
:10A2B0000222059200220692984210DB01230693A7
:10A2C0000300C8330BDBAA2304329B00069298429A
:10A2D00005DC03230693C82801DC013B069310A884
:10A2E00009F0DAFF5F4B00251E00079313ABEB5C10
:10A2F000012B05D172783178FE3310A8FFF742FAAE
:10A3000001350236192DF1D16B4618229A5E6B4643
:10A3100010A81421595E099BFFF734FA002F02DBC5
:10A32000049B0F2B07D90023A0681A0074300093F8
:10A3300010A909F0C7FF13AE079B059A1B7893423B
:10A3400021D1079B069A5B7893421CD13378012B6D
:10A3500019D00C23089A0CAD534328000022216821
:10A360000B930AF0E9F921AA94460B9B634407CDAD
:10A3700007C301233370089B0133DBB20893049BAE
:10A380000133DBB20493079B374A0233079301364C
:10A390009342D1D164200CF050FF089B643F3FB240
:10A3A000182B00D84BE71A0021A91AA80AF0D3FBF2
:10A3B0006A461DAB23CB23C21B6813601A991B9AF4
:10A3C0001C9B20680AF0A0F9E568002D0CD02749F5
:10A3D00012A8FFF72BF91C2328001AAA12A90BF0C8
:10A3E0001EF912A809F078FEA0680AF035FD11A93F
:10A3F00012A8A56809F039FF00221D4B009212A98E
:10A4000001932800130000F019FA12A809F020FFA8
:10A41000FA2080000CF011FFA0680AF01DFD0A99D7
:10A42000A06800F023FB11A809F012FF10A809F0A2
:10A430000FFF6DB0F0BC08BC02B01847002F03D06E
:10A44000049B0F2B00D014E7A06800F0B3F910E7CD
:10A45000E38502008C3C0000D18AFFFF28860200C1
:10A4600058FDFFFF3D8602006F860200D88502007E
:10A47000DC050000F0B5040085B0637A9C46002B33
:10A4800004D120000AF085FB05B0F0BDA37A266F49
:10A4900001931023019AF35600259B1801229A403C
:10A4A0002900F36803920293029BAB4231DDB0684E
:10A4B000019B6843C01873694000E77A1A181B5C57
:10A4C0005078E279012F14D1571E3F1A18003B0033
:10A4D0004243606F52008218D2189379634500DDC1
:10A4E0006346627B1A4202D00123AB401943013517
:10A4F000DAE7022F07D0032FEAD1277A013FFF1AAC
:10A5000003003800E4E7571EFB1A277A013F381A88
:10A51000DEE71123C943F356606C99402369194063
:10A52000039B19430CF049FFA27B072AACD8637B3D
:10A530000C495B006373531CDBB290004158A3735A
:10A54000022A03D808000CF06DFE96E7064B2000A7
:10A55000236300236363054BE462236414300CF02F
:10A5600034FD91E71877020075A401007D4B0200CD
:10A5700070B50400104B250008330360FFF748F85E
:10A580002000743009F064FE2000603009F060FEA5
:10A590002000583009F0A0FD2000503009F09CFD4B
:10A5A000064B1435280063610CF0FEFC280006F011
:10A5B000DDF8200070BDC04638770200747E0200CE
:10A5C000F8B500250400324B85800833036085719F
:10A5D000143016000F0006F0B3F820002D4BE56292
:10A5E000636125645030FFF78BF820005830FFF787
:10A5F00087F820006030FFF7B1F820000423F25EF6
:10A6000033682667590009B2743009F04EFE33688A
:10A61000226FE37173680126237210236581A7807E
:10A620002561D35691685918994204DD300098404D
:10A6300001330543F8E711230120D356D168591897
:10A64000994206DD02009A402669013332432261B5
:10A65000F6E714200CF02AFF226900212A43012387
:10A66000060006F0F9FAFF23220063720133A3818A
:10A67000002348326664A37320001370A366FEF7BC
:10A68000A9FF0123A27920001343A371F8BDC0469E
:10A6900038770200887E0200F0B5437A040085B066
:10A6A000002B04D120000AF074FA05B0F0BD837AC3
:10A6B000066F01931023019AF35600259B1801227F
:10A6C00094469A402900F36803920293029BAB429E
:10A6D0002DDDB068019B6843C01873694000E77ABC
:10A6E0001A181B5C5078E279012F10D1571E3F1ABF
:10A6F00018003B004243606F52008218D2189379D1
:10A70000002B02D06346AB4019430135DEE7022F30
:10A7100007D0032FEED1277A013FFF1A030038003C
:10A72000E8E7571EFB1A277A013F381AE2E71123A0
:10A73000C943F356606C994023691940039B194340
:10A740000CF03BFE667AB31EDBB2FC2B14D8FEF78E
:10A75000EFFE0C4B0500236300230B4863630B4B98
:10A76000FF217043E462236406F006FF29004143A1
:10A77000200014300CF029FC637A012B00D994E7F7
:10A7800090E7C046934B0200B60300007D4B0200E9
:10A790001FB5012381881A00684609F036FD0123A0
:10A7A00068461A00024909F030FD05B000BDC046F8
:10A7B000FE0300001FB5030048331A780400002A86
:10A7C0000DD000221A70012381881A00684609F012
:10A7D0001CFD012368461A00034909F016FD2000FC
:10A7E000743009F059FD1FBDFF03000010B50400CF
:10A7F000230048331A78002A07D01B78012B04D095
:10A800000121024809F06DFBF2E710BDFF030000D3
:10A8100010B501210400072009F063FB064B9842A4
:10A8200008D148342378002B04D02378012B01D0A1
:10A8300020BFF7E710BDC04616FCFFFF73B5079CAD
:10A840000500002C1CDB060048363078002802D0BA
:10A850003078012816D106981BB2C0B200902800AB
:10A8600012B2743009F02EFD002C07D02B004A33B1
:10A870001C80002407234C352C803370200076BDCB
:10A88000014CFBE7014CF9E717FCFFFF12FCFFFF4F
:10A89000F0B587B00D9C05000E0017000393002C47
:10A8A00021DBFFF7A3FF2B0048331B78DAB20292BB
:10A8B000002B1AD1310005A809F0D7FC0C9B3A00F7
:10A8C00000932800039B019405A9FFF7B7FF05A893
:10A8D00009F0BEFC002C03D02800FFF799FF029C72
:10A8E000200007B0F0BD024CFAE7024CF8E7C04682
:10A8F00017FCFFFF11FCFFFFF8B50400171E1DDD5C
:10A90000060048363378002B02D03378012B17D15C
:10A910002200E3795632013B13702300002520000A
:10A9200054331D80503009F034FC23004A331F801B
:10A93000022328004C3425803370F8BD0148FCE721
:10A940000148FAE717FCFFFF12FCFFFFF7B5040010
:10A950000F00161E18DDFFF749FF230048331B7850
:10A96000DDB2002B12D1390001A809F00AFC320037
:10A9700001A92000FFF7C0FF01A809F0ADFB2000EE
:10A98000FFF746FF2800FEBD0148FCE70148FAE753
:10A9900017FCFFFF11FCFFFFF8B50400171E2DDDAB
:10A9A000060048363278002A02D03278012A27D1B0
:10A9B0005D42069BFF331FD16B1D22001BB2643228
:10A9C00013802300200066331D70603009F055FCB1
:10A9D000230000226C331A70954200D03D00230002
:10A9E0004A331D80079B00205A1E9341013F4C347F
:10A9F000053327803370F8BD069BDEE70148FAE790
:10AA00000148F8E717FCFFFF12FCFFFFF0B5040058
:10AA10000F0016001D0087B0002A1FDDFFF7E6FEBD
:10AA2000230048331B78DAB20392002B18D1390087
:10AA300005A809F01AFC0D9B320001930C9B05A997
:10AA4000009320002B00FFF7A7FF05A809F000FCEA
:10AA50002000FFF7DDFE039807B0F0BD0148FBE7DB
:10AA60000148F9E717FCFFFF11FCFFFFFF2902D89F
:10AA70004172002070470148FCE7C04617FCFFFF09
:10AA800013B5040004A80078009020000CF0B2F97F
:10AA9000002801D1207516BD0048FCE70EFCFFFF21
:10AAA00013B5040004A80078009020000CF08AF987
:10AAB000002801D1207516BD0048FCE70EFCFFFF01
:10AAC0007FB50D0011000F226A4404001E1E117094
:10AAD00015D0089B002B12DD012329000093FFF7FE
:10AAE000DFFF002808D10090320029002000089BD9
:10AAF000FFF7C6FF002800D0024804B070BD02482E
:10AB0000FBE7C0460EFCFFFF17FCFFFFF7B5060092
:10AB10000D1E3ED00023022704690193002C34D07F
:10AB2000AA88A38853403B422DD13A4222D1A36840
:10AB3000AA68934227D12B88002B02D022889A4200
:10AB400021D16B88002B02D062889A421BD1EB681E
:10AB5000E268934201D0002B15D17368002B01D01D
:10AB600020009847A2880C4B1343A380019B01331C
:10AB7000019308E0A968A0680BF064F80028DAD116
:10AB8000AB883B42D3D0E46AC8E7019B2000002B8E
:10AB900000DC0248FEBDC0460080FFFF17FCFFFF3F
:10ABA000F0B506000D0085B000295DD001270469CD
:10ABB000002C27D00221AA8800230A4202D0A388B1
:10ABC0005B083B40226829688A4215D1A068A968C1
:10ABD000002B0FD00BF036F800280DD0EB68E268A0
:10ABE000934209D10421625EA388002A06DB1F4834
:10ABF00005B0F0BD8842F1D0E46AD9E75B045B0C94
:10AC0000A380F4E730692A880100031E07D135616B
:10AC100001236846164909F0F8FA0020E8E71C8885
:10AC2000944206D2DC6A1900002C0DD02300F6E70E
:10AC300023001C88944207D15F886C88A74203D800
:10AC4000DC6A1900002CF3D1884209D10B889A42A2
:10AC500004D305D148886B88984201D9E962D6E7C8
:10AC6000CB6AEB62CD62D3E70248C1E716FCFFFF77
:10AC7000FD03000017FCFFFF064B10B51A0004008F
:10AC800008322C33026083600830FEF727FA200078
:10AC900010BDC0465077020008B4024B9C460838ED
:10ACA00008BC604779AC010008B4024B9C460838E8
:10ACB00008BC6047CF4F02000C4A002311002C3221
:10ACC000083110B5436083818373826003614361FF
:10ACD00083618383016004000830FEF7F1F9044BBF
:10ACE0001A68002A00D11C60200010BD50770200B5
:10ACF0001025002082B0F7B50125402609930CAB42
:10AD00001B78046908920193002C38D008AA238884
:10AD100012889A4201D0002B29D108AA6388528850
:10AD20009A4201D0002B22D1FEF72EF901230028F0
:10AD300006D0C022A3881340C03B5A425341DBB225
:10AD4000019A934219D10422A35EA788002B14DB39
:10AD5000102208A9A01807F03FFE374209D1FEF7DC
:10AD600013F9002805D021000748FEF7AFFAE46A7E
:10AD7000CAE720000AF034F9F9E70025F7E72800D0
:10AD8000FEBC08BC02B01847E14F020008B4024BF9
:10AD90009C46083808BC60477D51020010B5024847
:10ADA00009F029FA10BDC046B8200020F0B587B0E0
:10ADB00001930EAB1B88060003930D9B0D000093BF
:10ADC000019B0C9F0292002B3DD0002F02D1009BD3
:10ADD000DB0738D530200CF069FB0400103009F097
:10ADE0000AFA2000243009F09EF8029B18202580E2
:10ADF00063800CF05BFB0500009B08220593019B20
:10AE0000002103600C30049707F08EFE082204A98D
:10AE1000281D07F0E1FD0D4B02226B610023039911
:10AE2000E3602362E36233680A43300021005B6819
:10AE3000A560A2809847002805D0200009F000F9FD
:10AE400020000CF02BFB07B0F0BDC046CB51020038
:10AE5000F0B5160000258380164A174B0400857153
:10AE6000026001814681057318688C4689B0A8424A
:10AE70001DD0124A05950492C02202926A4604AB84
:10AE800082CB82C223002A006146FFF78FFFC022D7
:10AE9000094B0A49186802926A46069106AB079563
:10AEA00082CB82C223002A003100FFF77FFF2000FF
:10AEB00009B0F0BD9477020010250020F552020081
:10AEC00030B5002403730123034D84710560818034
:10AED00082734373846030BD9076020070B58379CD
:10AEE0000400DB0704D58068002801D00CF0D6FAF6
:10AEF000A3799B0704D5A068002801D00CF0CEFAF6
:10AF0000A3795B0709D5A0230021154AA068DB00BF
:10AF1000D150884201D00CF0C1FAA3791B0708D5A3
:10AF2000A568002D05D028000AF0FCFE28000CF0D2
:10AF3000B5FAA379DB0605D5A068002802D003681E
:10AF4000DB6898476023A2791A4205D0A0680028E0
:10AF500002D003685B6898470023A360A37170BDAB
:10AF600000700040F7B50126037B040033422CD06B
:10AF7000827961231100194001911A4216D1FFF71D
:10AF8000ADFF18200CF092FA0E230500E356677B04
:10AF900018220199009307F0C7FD3A002800009994
:10AFA0000CF0B4F8A379A5603343A3716023A279B0
:10AFB000A0681A4202D00BF03EFFFEBD4369406814
:10AFC0001B681840431E9841F7E70148F5E7C04663
:10AFD00016FCFFFF012210B583794173134204D0A0
:10AFE00080680CF031F9002010BD6022134203D0BC
:10AFF00080680BF027FFF6E70048F5E716FCFFFF37
:10B0000070B5040000250C4B0E0008338580857157
:10B010000360210018300AF01EFA200021002030C1
:10B020000AF044FA054B2000A680E5802572E56011
:10B03000256165611C6070BDA47702002425002095
:10B040008379DB0702D5C160002070470048FCE728
:10B0500016FCFFFF8379DB0701D5C0687047014804
:10B06000FCE7C04616FCFFFF70B545690400002DE3
:10B0700022D0037A032B21D8FFF7ECFFE8623020BF
:10B080000CF014FA30220021050007F04DFD0022DB
:10B0900063699A622369934207D16369236100203F
:10B0A000237A65610133237270BD1A009B6A002BFD
:10B0B000FBD163699362F2E70148F5E70148F3E7E2
:10B0C00017FCFFFF13FCFFFF144B70B55A68144CBC
:10B0D000002A03D000225A600132A2601A69002AB5
:10B0E00017D0002119618023DB000E4DE35828683A
:10B0F000012B0FD1A923DB00E1584942FFF7A0FF44
:10B100002868FFF7B1FF2B685A69074BE25001230B
:10B11000A36070BDFFF794FFF9E7C046FC10004044
:10B1200000100040242500200405000070B5050033
:10B130000C0008F069FE002804D1034A034BEC71AF
:10B14000D45070BD0248FCE7001000402405000008
:10B1500016FCFFFFF8B5837905000020DB0765D4F6
:10B1600008F052FE002862D16E69002E08D13030FE
:10B170000CF09CF904003022310007F0D5FC6C6122
:10B1800000222C4B01215A608022D20511605A689E
:10B19000002AFCD00622284B284C9A56284B002621
:10B1A000E2500722043BE2500833E650254A264B82
:10B1B0002800E250E979FFF7B9FF01220821234B6B
:10B1C0002348E6500433E250224B234FE15004332E
:10B1D000E05002232148235021482750214F0438B2
:10B1E00027501827204827506F6920482750C12032
:10B1F000800021501E498538FF380B500B6080219C
:10B20000890060580E33034363501A4B5E606260DE
:10B210005A68002AFCD0002601271E612800A7607A
:10B22000FDF74EFF3000AB791F43AF71F8BD1248F8
:10B23000FCE7C046FC00004001880200001000400E
:10B240000C050000746962751C0500002C050000E7
:10B250002300040214050000FFFF00003405000075
:10B260003C05000021100100540500000405000009
:10B2700000E100E0FC10004016FCFFFF0300006945
:10B28000002809D00221054AD167826A1A611A7A18
:10B29000013A1A72024B19607047C04604E100E09F
:10B2A00000E100E070B505000C0008F0ADFD0028DD
:10B2B0003AD1002C3AD02378262B37D8022201210C
:10B2C0001B4BDA671B4A1C4B5861116159690029F5
:10B2D000FCD0002019495450586001301060586863
:10B2E0000028FCD000201861013090601869002807
:10B2F000FCD06869505000215961013111615969D0
:10B300000029FCD0002159600131516059680029A1
:10B31000FCD0002018610123C02193600222084B59
:10B3200049005A501A6070BD0648FCE70648FAE723
:10B3300004E100E000100040FC10004004050000A3
:10B3400000E100E016FCFFFF17FCFFFF37B54C687B
:10B350000500002C04D10C4909F045F828003EBD39
:10B36000A36A01A84B602278E36A033A211D09F021
:10B3700066F820000CF092F8280001A909F033F8D3
:10B3800001A809F029F8E9E71825002010B5040004
:10B390008CB0002911D0262A0FD86846D31C037020
:10B3A00001234370FF33438001A807F015FB694672
:10B3B0002068FFF777FF0CB010BD0148FBE7C046DF
:10B3C00017FCFFFFF0B585B004000BF062FD204BC9
:10B3D0001B785B0737D50026236CC5B20227DF5FD9
:10B3E000BE420EDA200031B2403008F0F7FEA8422B
:10B3F00005D101230C211A00684608F006FF01362A
:10B40000EEE7260023004E3630884C3319780130A1
:10B4100006F098F9230050331B8889B28B4214D070
:10B420003388A26CD554636C3180002B0BDB3288DF
:10B43000934208D1012302225B42636402330C2150
:10B44000684608F0E2FE05B0F0BD01230322F6E7EE
:10B45000AF2900200121024A13788B4313707047F3
:10B46000AF29002010B5002903DB024B19600BF057
:10B4700071FD10BD2825002070B504001D0004AB2F
:10B480001E7805F019F920000E4B40302360FEF7BE
:10B4900037F92300220001354C331D700023E121D0
:10B4A0005832013616700A3AA364636513805380DC
:10B4B0009381D381013B200063644902FFF7D2FFEF
:10B4C000200070BD4076020070B51400012A0BD038
:10B4D000403008F05EFE0025022C03D101210C2033
:10B4E00008F0FFFC280070BD004DFBE717FCFFFFD4
:10B4F000F7B50F0008A9040009780430002A01D12B
:10B50000DD0715D5002F13D018264E43B446A444AA
:10B510006546EF6018250C36A61972600122B360EB
:10B520004B1C5D43034B6419A36005F0C7FCF7BDDA
:10B530000022FAE7DB540200F0B5164E040033781F
:10B5400087B05B0705D5002109F0E9FFA06CFDF786
:10B550007BFF04273378BB430393337023004C33C2
:10B560001878FDF73DFFA064002811D023000025C6
:10B570004E331D805D80039B20001F4337702B00DE
:10B580002100054A0095FFF7B3FF280007B0F0BD82
:10B590000248FBE7AF290020C5B3010013FCFFFF01
:10B5A000F0B56D4E8BB002AF7B6033780C001500A8
:10B5B000B860DA0702D5FEF7A3F809E05B070BD401
:10B5C0000800FFF7B9FF011E06D0B86808F0A0FD1B
:10B5D000BD46B86809B0F0BD01233278134333701B
:10B5E000230050331B88FB603B6101235B427B617E
:10B5F00026004E3633883A69934216D07B69013370
:10B6000066D10026A36C9B5C3B602B6802229B5E8C
:10B61000B3422ADD280031B208F0E0FD3B689842D1
:10B6200001D13B697B610136EFE77B68012B2ED1AD
:10B630007B6901334CD122004E32138839698B4229
:10B64000FBD00026A36C5B5C7B602B6802229B5EB8
:10B65000B34213DD280031B208F0C0FD7B68984288
:10B6600001D13B697B610136EFE7230038694C3338
:10B670001978013006F066F83961B9E723003869B6
:10B680004C331978013006F05DF83961D0E77B68FA
:10B69000022B1DD17B6901331AD129001C25781991
:10B6A00008F06FFD7A6879192000FFF70DFF78190F
:10B6B00008F012FD33887819013B7B61FEF720F812
:10B6C00020007919403008F064FD781908F004FD75
:10B6D0007B69002B3CDBFA686E469B1A3B617B69F9
:10B6E000934207DA23004C331A78FB68D21A7B693D
:10B6F000D3183B6169463B695A1C0833DB08DB0001
:10B70000CB1A9D4602AD0021280007F00DFA230058
:10B710004C337B601A78BB8A20000193FB6800934E
:10B72000A16C2B00503409F0E3FE20883B69013006
:10B73000C0187B68197806F005F82180FFF78AFEAB
:10B7400029001023FA5EB868FDF7B0FFB5463FE761
:10B75000FFF780FEB8682EE7AF290020012310B55F
:10B76000094A14781C420CD12343137003000131A1
:10B770004C331970FFF7E0FE0400FFF76BFE20006A
:10B7800010BD024CFBE7C046AF2900200DFCFFFFB7
:10B79000F7B580277F053E697C690822113C744318
:10B7A00005002100684607F017F9104B009A9A42ED
:10B7B00019D000930023019379692800133971434C
:10B7C00009F0B3FE019A2800009909F0C6FE210095
:10B7D000280009F0AAFE7969220013392800714374
:10B7E000B30809F0ACFE0198FEBDC046FECA0000D9
:10B7F000F0B50D00ABB000210D920700302212A869
:10B800001E0007F091F9280007F0F8FB431C0C9389
:10B81000102B00D9B8E0202E00D9B5E0290038005F
:10B8200009F0C8FE0B90002854D129000C9A12A8E8
:10B8300007F0D2F832000D9916A807F0CDF8802352
:10B840005B051A695D690B92113D6A4338005E69B8
:10B850000D92FFF79DFF0D9B30220833002104005D
:10B860001EA80F9307F060F931000B9B1339594361
:10B87000380009F05AFE00230F9E0C930E930C9B88
:10B88000A34246DA310030221EA807F0A5F812A91B
:10B890001EA807F06FFB00282BD13D49380022007D
:10B8A0001091119409F059FE6A46099615AB23CB05
:10B8B00023C223CB23C223CB23C23800149B12996B
:10B8C000139A09F058FE01230E930C9B3036013376
:10B8D0000C93D4E70B9832000D99103007F058F80C
:10B8E00004000B980BF0DAFD002C9ED120002BB049
:10B8F000F0BD6A46099621AB23CB23C223CB23C2DA
:10B9000023CB23C238001E991F9A209B09F033FED7
:10B91000DBE7E6433021F61726404E430F9B9E1986
:10B920000E9B002B1CD10B9B981E05F09BFDA0428B
:10B930002CD017490134380022001091119409F0DD
:10B940000CFE6A46099615AB23CB23C223CB23C238
:10B9500023CB23C238001299139A149B09F00BFED3
:10B9600038000D9909F0E1FD80235B0559690C232E
:10B970000B9A133963434A433800110002330D9A7E
:10B9800009F0DDFD0024B1E7024CAFE7024CADE762
:10B99000FECA000017FCFFFF13FCFFFF8023F0B579
:10B9A0005B051A6995B002925A6905910299113A9C
:10B9B00051435C69029B133C05005C430391FFF714
:10B9C000E7FE061E3CD030220021083408A8039F61
:10B9D00007F0AAF82100280009F0A7FD0023083786
:10B9E00001930493019BB34220DA3900302208A866
:10B9F00006F0F2FF059908A807F0BCFA00280DD15F
:10BA00001B49721E28000691079209F0A6FD01232A
:10BA10000493019B303701330193E3E722000C23A9
:10BA20003900280009F08BFD3034F2E7049B002B2D
:10BA300008D10F49320028000691079609F08DFDC4
:10BA40000C4812E02800039909F06FFD80235B0584
:10BA500059690C23029A13394A4373431100280091
:10BA6000039A023309F06BFD002015B0F0BDC0460B
:10BA7000FECA00000CFCFFFF70B50400A280FA2291
:10BA8000002308000C49920008312160A3710B4982
:10BA90006061E260A360638209F08CFD051E09D03D
:10BAA0000100200002221031123006F095FF28001C
:10BAB0000BF0F4FC200070BDBC7702006F86020022
:10BAC00030B502258379040087B02B4204D1FDF7FD
:10BAD000F7FAA3791D43A571200009F0B1FD0028F4
:10BAE0001CD06B46DD1C280009F0A1FD2B78002B33
:10BAF00017D001A809F099FD0321019AD3170B4033
:10BB00009B189B102382FDF74DFDE368A188181850
:10BB10000123A0601A0002A808F077FB002007B0FC
:10BB200030BD0122064B1A60064A51680029FCD03C
:10BB300000215160044A1268019201225A60DBE739
:10BB400000C00040FCC0004008C50040022802D1EF
:10BB50000122014B1A707047B029002070B5064DC4
:10BB600004002B78002B04D1044801F087FF012347
:10BB70002B70200070BDC046B12900204DBB0100D4
:10BB800070B50C0008F040F9002810D00023134DC8
:10BB9000A40A2B70200009F067FD002803D00A20BA
:10BBA0000BF04BFBF6E72B78002BFCD070BD02218D
:10BBB0000B4B0C4A99508021C90058580028FCD0E2
:10BBC000A120C0001C5058580028FCD000219950DA
:10BBD0008021C9005A58002AFCD0E7E7B02900208C
:10BBE00000E0014004050000F8B50D0016001F003C
:10BBF00008F00AF9002811D00023184C23703A00ED
:10BC00003100280009F02EFD002803D00A200BF097
:10BC100014FBF4E72378002BFCD0F8BD012380222D
:10BC20000F4C1049D2006350A358002BFCD0802247
:10BC3000D200002394469F4208DD980032582A50D3
:10BC40006246A0580028FBD00133F4E7002363507C
:10BC50006346E358002BFBD0DFE7C046B029002045
:10BC600000E001400405000008B4024B9C46443843
:10BC700008BC60476D560200FA21F8B50389C90077
:10BC800004005943324809F0F2FFFA21890005F017
:10BC9000E9FB304FA17A2081380009F0E8FF23004A
:10BCA0002600250022894C33A072A0361A808C35DC
:10BCB00000232A223178286809F0DBF8002844D1D3
:10BCC0001F235B223178286809F0D3F800283CD183
:10BCD00020235C223178286809F0CBF8002834D181
:10BCE00001232C223178286809F0C3F800282CD1D0
:10BCF00001232D223178286809F0BBF8002824D1CF
:10BD000001232E223178286809F0B3F800281CD1CD
:10BD1000A17A380009F0A6FF0E22C3B23178286854
:10BD200009F0A7F8002810D1FA2123898900594386
:10BD3000074809F097FF012303432A223178286836
:10BD4000DBB209F096F8002800D00348F8BDC046E1
:10BD5000DC770200D47702000EFCFFFF08B4024B30
:10BD60009C46443808BC604779BC0100074B10B5BD
:10BD70001A00040008323C3302604364443008F087
:10BD80007FFC200008F0A8FB200010BD3C780200DA
:10BD900008B4024B9C46443808BC60476DBD0100A6
:10BDA00008B4024B9C46443808BC604777560200F2
:10BDB000F0B50425837904008BB02B4204D1FDF744
:10BDC0007FF9A3791D43A57120009030FFF7CAF8D1
:10BDD0000026B0420FD12300A033197820000C2395
:10BDE00007AD00938C302B0001220068FEF768FE3F
:10BDF000061E03D02C4E30000BB0F0BD0A2304AA5F
:10BE00009B182A785A706A781A700022985EAA786D
:10BE10005A70EA781A700022995E03912A795A7052
:10BE20006A791A7000229F5EAA795A70EA791A70AC
:10BE300000215A5E04922A7A5A706A7A1A70002196
:10BE40005A5E0592AA7A5A70EA7A1F251A70002261
:10BE50009B5EA27A03999C46514349425043CB17BB
:10BE60002B405B185B11A361C3172B401818642388
:10BE70005743FA171540ED196A112262059A5B4281
:10BE80005343A36764236146049A40115A434B43CA
:10BE9000E267221DE0612000D36708F096FB2000D6
:10BEA000443008F0F4FBA6E70EFCFFFF08B4024B99
:10BEB0009C46443808BC6047B1BD0100F7B51E0080
:10BEC000040008AB1B881500019309AB1A88009188
:10BED0000AAB31001F88FDF7C3FD20003A00310096
:10BEE0004430FEF717F8134B20001A003C3363640C
:10BEF000230008322260009A8C331A60AB8890309D
:10BF00008380AB7983710C4BAA6803600E23EB56D8
:10BF100082602200A9899C32118083732300019AD8
:10BF2000A03303211A80FFF755F82000FFF7A4FE85
:10BF30002000FEBD3C78020090760200F8B5FA269B
:10BF40000189B60004007143254809F090FE3100D4
:10BF500005F088FA234FA17A2081380009F087FE86
:10BF60002500A072583500232A222978606C08F039
:10BF700080FF002832D110232B222978606C08F032
:10BF800078FF00282AD101232D222978606C08F03F
:10BF900070FF002822D101232E222978606C08F03E
:10BFA00068FF00281AD1A17A380009F05BFE0E2242
:10BFB000C3B22978606C08F05CFF00280ED121899B
:10BFC0000748714309F04EFE012303432A222978D2
:10BFD000606CDBB208F04DFF002800D00248F8BDCD
:10BFE000A47802009C7802000EFCFFFF10B504004C
:10BFF000034B0833036008F06FFA200010BDC04601
:10C00000047902007FB50425837904002B4204D112
:10C01000FDF756F8A3791D43A57120004830FEF7BF
:10C02000A1FF0025A8420DD123005833197806231B
:10C0300002AE009301223300606CFEF741FD051E45
:10C0400003D00D4D280004B070BD00210420022251
:10C05000A37A30567156B25659435A434343DB00D4
:10C060002362D20023685242C90020009B6AA26169
:10C07000E1619847E6E7C0460EFCFFFFF8B5040013
:10C080000F00190006AB1E8807AB15001A88FDF7D4
:10C09000E7FC0F4B6764083323602300AA8848330A
:10C0A0009A80AA799A710B4AA968A2640E22AA56AC
:10C0B00021652100A889543108809A730023A37157
:10C0C000230058331E802000FFF738FF2000F8BD02
:10C0D000047902009076020010B50400034B083387
:10C0E000036008F0CDFA200010BDC0469879020028
:10C0F000F0B507005C370023040010223978806C0B
:10C1000087B008F0B6FE214D03002800002B3BD17C
:10C110000F2602ABF6180123397808220093A06C91
:10C120003300FEF7CDFCA8422DD003223378134212
:10C1300003D06420FDF762F8EAE7FA262189144D5E
:10C14000B6007143280009F092FD310005F08AF92C
:10C150002081A02311223978A06C08F08AFE0028E3
:10C1600011D1A36C21890393714328003F7809F012
:10C1700079FD01231843C3B210223900039808F057
:10C1800078FE002800D0014807B0F0BD0EFCFFFF8C
:10C190003879020070B508258379040086B02B42F7
:10C1A00004D1FCF78DFFA3791D43A57120004C300D
:10C1B000FEF7D8FE051E0DD023005C331978062348
:10C1C00004AE009301223300A06CFEF779FC051E3B
:10C1D00003D0134D280006B070BD0E2332786B4497
:10C1E0005A70727820001A700022995E64224A43C5
:10C1F000A263B2785A70F2781A700022995E6422B3
:10C20000524251436163317959707179197000213B
:10C210005B5E5A432368E2631B6A9847DAE7C046CD
:10C220000EFCFFFFF8B504000F00190006AB1E88D6
:10C2300007AB15001A88FDF76DFE0D4BA764083398
:10C2400023602300AA884C339A80AA799A71094AFC
:10C25000A968E2640E22AA5661652100A8895831B6
:10C2600008801E8220009A73FFF742FF2000F8BD6D
:10C270009879020090760200F0B5FA250189234FE3
:10C28000AD0085B004006943380009F0F0FC2900D6
:10C2900005F0E8F81E4EA17A2081300009F0E7FC95
:10C2A000636CA072029323005833218901931B7899
:10C2B00069433800039309F0D5FC07230343202288
:10C2C00003990298DBB208F0D4FD00281AD1019B33
:10C2D00022221978606C102308F0CBFD002811D1C0
:10C2E000019BA17A30001F78656C09F0BBFC8023AC
:10C2F0005B420343232239002800DBB208F0B9FD7A
:10C30000002800D0034805B0F0BDC046CC7902003B
:10C31000C47902000EFCFFFF10B50400034B083384
:10C32000036008F0D9F8200010BDC0463C7A020036
:10C33000F0B504258379040085B02B4204D1FCF7C5
:10C34000BFFEA3791D43A57120004830FEF70AFE09
:10C35000051E0DD0230058331978062302AE009332
:10C36000A8223300606CFEF7ABFB051E03D0144D12
:10C37000280005B0F0BD1F200023F25ED317034054
:10C380009B180222B15E5B11CA17024052180421A9
:10C39000775E3380F9170140A07A52114343C919DF
:10C3A000728049114243B18041435B42E36123689B
:10C3B000524220009B6AA26121629847D8E7C0469A
:10C3C0000EFCFFFFF8B504000F00190006AB1E8835
:10C3D00007AB15001A88FDF743FB0F4B6764083362
:10C3E00023602300AA8848339A80AA799A710B4A5D
:10C3F000A968A2640E22AA5621652100A889543199
:10C4000008809A730023A371230058331E802000F4
:10C41000FFF732FF2000F8BD3C7A02009076020060
:10C42000F7B5FA2504000189134EAD0069433000C9
:10C4300009F01DFC290005F015F82700A36C2081E8
:10C4400000935C373B7881B269433000019309F077
:10C4500009FC6022C3B20199009808F00AFD002887
:10C4600007D1012362223978A06C08F002FD002870
:10C4700000D00248FEBDC046707A02000EFCFFFFED
:10C4800010B50400034B0833036008F0F9F82000EE
:10C4900010BDC046987A02007FB508258379040054
:10C4A0002B4204D1FCF70CFEA3791D43A57120009B
:10C4B0004C30FEF757FD051E0DD023005C33197874
:10C4C000062302AE0093E8223300A06CFEF7F8FAD0
:10C4D000051E03D00B4D280004B070BD0223F25E90
:10C4E00096235B425A4362630021725E20005343ED
:10C4F000A3630423F25E96235343E36323681B6A1A
:10C500009847E8E70EFCFFFFF8B504000F0019009C
:10C5100006AB1E8807AB15001A88FDF7FBFC0D4B18
:10C52000A764083323602300AA884C339A80AA7931
:10C530009A71094AA968E2640E22AA56616521002F
:10C54000A889583108801E8220009A73FFF768FF7F
:10C550002000F8BD987A02009076020010B5040021
:10C56000054B083303601C3007F0B6FD200018307F
:10C5700007F0B2FD200010BDC47A0200FF23F0B521
:10C580002C4E8DB033700023040069460088009360
:10C5900003F05CF9002802D16B469B783370264D7E
:10C5A0002B68DB68002B07D1002320881A001900B4
:10C5B00009F0D1F80DB0F0BD3378032BF4D81F4942
:10C5C00001A8FDF733F82B6801A9DD6804A807F07E
:10C5D000D8FD280004A909F01CF80027050004A8CC
:10C5E00007F07AFDBD421ED029002022103104A898
:10C5F00006F0F2F928000AF051FF317804ABC900C7
:10C600005918082202A806F0E7F901230822208819
:10C6100002A909F0A0F80137002804D10C212088D4
:10C62000074A09F096F801A807F056FD002FBBD085
:10C63000C0E7C04680200020382500207786020011
:10C64000FFFF0000F0B58379040091B05B071BD5B4
:10C65000FCF7A8FF00232269801A9941994203D16F
:10C66000F533FF3398420FD3A068002808D0354B2C
:10C670001D8801F0FFF80368152229001B6A9847FE
:10C680000422A3799343A371A3799B0758D52E4E17
:10C690003368DB68002B4FD02C4F3B78032B4BD8F3
:10C6A000284B2B491B8804A80193FCF7BFFF336874
:10C6B00004A9DD6808A807F064FD08A9280008F0AF
:10C6C000A8FF050008A807F007FD082302AAD380E9
:10C6D0000198073B063206A909F03FF8002D08D063
:10C6E00029002022103108A806F076F928000AF067
:10C6F000D5FE3D7802ABDA88ED0008AB5D19280065
:10C7000006A906F045F9002813D00822280006A93A
:10C7100006F062F9336804A9DD6805A807F031FD69
:10C720002023280008AA05A908F079FF05A807F02A
:10C73000D3FC04A807F0D0FC0222A3799343A37191
:10C7400011B0F0BD5829002038250020802000209D
:10C7500077860200F0B50400150085B001930AAB9E
:10C760001F880BAB1B78461C02930EAB1B78102264
:10C7700003930B7803704B8A01314382300006F03B
:10C780002BF9656100250122019B27836383039BAD
:10C79000E5832377029B2000F377A31CDA770C9BB9
:10C7A0000C26636223000D9A283329001A705D70ED
:10C7B00032009D702C3006F0B7F92000064B320095
:10C7C000A3632900E563403006F0AEF92000034B77
:10C7D0002565E36405B0F0BD7157020063570200A0
:10C7E00070B50D0001F046F804000368002D09D172
:10C7F0005B699847FA2080006843074904F032FEDD
:10C80000E08070BD9B6898478542F3D22368200082
:10C810009B6898470500EDE771020000F0B507003E
:10C820001500A1B002C706006B4918A81C0009F04A
:10C8300097F82B1E03D0280006F0E0FB83B20122FC
:10C8400004920022039202920232019200932A0083
:10C8500018A93800FFF77EFF33006049583318A845
:10C86000079309F07DF8231E03D0200006F0C6FBD5
:10C8700083B20122049200220392029202320192B8
:10C880000093220018A90798FFF764FF330054496A
:10C89000AC3318A8089309F063F8269B002B03D04B
:10C8A000180006F0ABFB83B201220492002203922F
:10C8B0000292023201920093269A18A90898FFF773
:10C8C00049FF731CFF33474918A8099309F048F83A
:10C8D000279B002B03D0180006F090FB83B20122A7
:10C8E00004920022701C0392029202320192009381
:10C8F000279A18A9FF30FFF72DFF33005533FF3378
:10C90000394918A8099309F02BF8289B002B03D06C
:10C91000180006F073FB83B20122049200220392F6
:10C920000292023201920093289A18A90998FFF7FF
:10C9300011FF3300A933FF332C4918A80A9309F0DB
:10C940000FF8299B002B03D0180006F057FB83B289
:10C9500001220492002218AC039202920232019248
:10C9600000932100299A0A98FFF7F4FE204B1B78C8
:10C970000B93002B2DD1079B1E491393089B0DA8E9
:10C980001493731CFF331593099B129716930A9BFC
:10C9900012AD179308F0E4FF1D21492006AB1B7F61
:10C9A0001022237006ABDB8D638206ABC918C0185A
:10C9B00006F012F8062323750B9B1E953068A3839F
:10C9C00000F068FF036821001B6898470122084BAC
:10C9D0001A70300021B0F0BD292A0000242A00007E
:10C9E000252A0000272A0000262A0000282A000005
:10C9F000B22900200A18000070B5002504000B4B76
:10CA00008580083385710360C1601830FCF778FEBB
:10CA100020001C30FCF774FE0123621CD377044A0B
:10CA20002000A56065611460A37170BDC47A020026
:10CA300038250020FA2130B585B0040001230222F8
:10CA40006846890007F0E1FB074D2868002809D0F7
:10CA500008F092FF2188054B2A68198002239179FA
:10CA60000B43937105B030BD3825002058290020B4
:10CA700010B50C0007290FD8806800F0FBFE074BAB
:10CA8000195703685B6C984743425841044B404236
:10CA90001840044BC01810BD0348FCE70188020091
:10CAA000EA03000016FCFFFF17FCFFFFF0B5A04CE7
:10CAB0000D00A544040007939AAB1B789D4909A873
:10CAC00004930692FCF7B2FD200029001C3007F009
:10CAD00060FBC020800000F0C7FF08200AF0E6FCE1
:10CAE000060000210EAF09F03AF915AD0C22002125
:10CAF000A660380006F018F82B0007CF07C38E4B4E
:10CB00002900EB60002330002B6109F011F9A068C7
:10CB100000F0B0FE08220021059016A806F004F8E7
:10CB200014200AF0C3FC854B2A0015930300C2CAE7
:10CB3000C2C3834B059EC3600023A03603617368A4
:10CB4000002B00D0EEE07060A06800F0A3FE082289
:10CB50000021060016A805F0E7FF14200AF0A6FC45
:10CB6000784B1593030086CD86C3774BC3600023B3
:10CB70000361336B002B00D0D6E03063A06800F077
:10CB800079FE08220021059016A805F0CDFF14209B
:10CB90000AF08CFC6D4B15AD15932A000300C2CA38
:10CBA000C2C36B4B059EC360002394360361736858
:10CBB000002B00D0BAE07060012604AB1B7C04AAF5
:10CBC000334308A93000137408F0C9FDA06800F0D1
:10CBD00071FE03685F495B6A9847A06800F06AFECF
:10CBE00003685D499B699847A06800F063FE0023D5
:10CBF00002680093176804993200B847049B002B21
:10CC00000AD0200008F0C1FE032805DDA06800F06E
:10CC100051FE0368DB68984700260EAFB819073647
:10CC200008F0EFFD1C2EF8D1183E04ABA0685E772B
:10CC30000A9700F03FFE03680AA91B699847A0689D
:10CC400000F018FE03680AA95B6D9847A06800F021
:10CC500011FE03680021DB6D9847A06800F00AFE12
:10CC6000036802219B6D984700212000FFF700FF19
:10CC700018200AF01BFCA16800F054FA374B384A20
:10CC80001B68A1680393374B28001B68002502939B
:10CC9000354B1B680193069B1B689B190093334B14
:10CCA00012681B68FFF7BAFD30200AF0FFFB079AF5
:10CCB000A16800F0F9FAA06800F0DCFD03680CA997
:10CCC0009B6A9847082304AA1384A068DB1853843E
:10CCD000958400F0CFFD03680CA9DB6A984731000A
:10CCE000A06808F010FE099A09219378A0689219AB
:10CCF00008F01CFEA06800F0BDFD32210571A0689F
:10CD0000FFF76EFD04AB1B7FAB4204D0A06800F0C0
:10CD1000B1FD08F06CFD09A807F0DEF995239B0032
:10CD20009D44F0BD03610EE7036126E7036142E71E
:10CD3000ACFDFFFF838602007F57020035CA010069
:10CD40008D5702007DC501009B570200C9570200A4
:10CD5000A957020071CD0100A5CD010034250020A6
:10CD600030250020082000202C2500200C20002049
:10CD700013B506226846FCF799FC094B1C68002C89
:10CD80000AD0694601A807F0FCF9200001A908F0C3
:10CD900016FE01A807F0A0F9684607F09DF913BD3B
:10CDA00038250020002373B501AE0C0031000500CA
:10CDB000019302F04BFD002802D1B278064B1A70A5
:10CDC000064B1868002806D0054B1D8063425C4165
:10CDD000E1B208F0FCFD73BD802000203825002062
:10CDE0005829002030B5284CA9B06A220D000DA8A2
:10CDF000210005F0F1FD0DA903A8FCF7B5FC03A97E
:10CE000006A807F032FA01230193013BFF3B009390
:10CE10000533FF33642206A92800FDF7F7FD06A8B5
:10CE200007F016FA210019226A3106A805F0D4FD90
:10CE300005220024110006AB04A807F03DFA04A95E
:10CE400005A807F012FA230022002800019400949C
:10CE500005A9FDF71DFD05A807F0FAF92100280036
:10CE6000FDF704FE05340520FCF7C8F9FF2CF5D1C9
:10CE7000FA208000FCF7C2F904A807F0E9F903A83A
:10CE800007F0E6F929B030BD7E870200F0B59C4B73
:10CE900095B005921A68082304000F00D16C06A80B
:10CEA0000B43D3649749FCF7C1FB974907A8FCF7EC
:10CEB000BDFB220000250DAE30001C3206A907F094
:10CEC00077F9310007AA08A807F072F9300007F0D7
:10CED00003F9631CDD77A06800F0CCFC03685B6994
:10CEE00098477019073508F08CFC1C2DF9D1802368
:10CEF0000BADDB00AB80A0680B9600F0BBFC0368B9
:10CF000029005B6D9847A06800F0B4FC036800211D
:10CF10009B6D9847A06800F0ADFC0300002506005B
:10CF20000A331F2200211800039305F0FDFD039B27
:10CF30003000DD7708F052FC0621A06808F0E3FC21
:10CF4000089A09219378A068043208F0EFFCA068E1
:10CF500000F090FCC8210571A068FFF741FCA068B3
:10CF600000F088FC0581A06800F084FC08F03FFC1C
:10CF70003800FDF71FFC2000FCF7A2F83900200064
:10CF8000FFF730FF3900200008F034FDFF2304953F
:10CF900003936269012316001E401A4232D05B4996
:10CFA00009A8FCF75BFC09A90AA807F05EF90022B2
:10CFB0000AA91300019200923800FDF769FC0AA843
:10CFC00007F046F9049B002B47D1039B043B0393D6
:10CFD000039B282B44DC380007F03EFF039B002B0B
:10CFE00000DC0496059807F037FB002806D00123E3
:10CFF00062699A43130004221343636109A807F08E
:10D0000027F9002504226369134234D0FF21380038
:10D01000C826FDF72BFD0025B600A36902229B5E02
:10D02000AB4223DD200029B2183007F0D7F80023E7
:10D03000010038001A007430FCF760FC3000FCF787
:10D04000DDF8380007F008FFC820FCF7D7F8022207
:10D05000636913420AD10135DFE7039B0433B6E766
:10D06000039BFE2BBEDD00230493BBE7FA20800068
:10D07000FCF7C4F800250222636913421ED01E008B
:10D0800006321640134224D0214909A8FCF7E6FBDA
:10D0900009A90AA807F0E9F800220AA913000192D9
:10D0A00000923800FDF7F4FB0AA807F0D1F8194800
:10D0B000FCF7A4F809A807F0CBF8174D6420FCF79B
:10D0C0009DF8164B01359D4200DC62E706F0AEFE8E
:10D0D0005FE7134909A8FCF7C1FB09A90AA807F0F3
:10D0E000C4F8330032000AA9380001960096FDF713
:10D0F000CFFB0AA807F0ACF809A807F0A9F8DDE70C
:10D10000BC24002091860200A1860200A3860200B2
:10D11000E8860200983A00008C0A00008B0A0000A2
:10D12000258702005A4BF0B5083303608160040084
:10D130002520A9B002AB10220391C018002105F0F0
:10D14000F3FC0BAE01233200524833700E33195CEE
:10D1500001321170013BFAD2312202ABD21853785E
:10D1600011781B020B43252113AD22006B8202AB09
:10D17000C91845230C32029202A832781B181800F5
:10D180002A70102205F028FC029B642118930A23C0
:10D190000026012702AA521813705B1802AA9B18D6
:10D1A00031000C221E702F77EE832E851EA8199752
:10D1B0001C9605F0B9FC384B0C22310023A82193B2
:10D1C000229605F0B1FC354B02AA269346239B1804
:10D1D00003221120DA7702AB0D32C018310026731A
:10D1E0002796059505F0A0FC02AB1F740F232C4871
:10D1F00006AA195C01321170013BFAD21D2202AB62
:10D20000D218537811781B020B432520112102AA52
:10D210000BAD127C6B8202ABC9182A70C0181022A9
:10D2200005F0DAFB012300272B7505AB119303985A
:10D23000AF8300F02FFB036829001B68984713ABEE
:10D24000DB8BA068A38200F025FB03680097A18A0E
:10D25000029ADD680123A847A06800F01BFB0600C6
:10D2600014200AF023F9012305000761082210C0E9
:10D2700006A90793069705F0AFFB0A4BEB60B3696D
:10D28000BB4203D12000B56129B0F0BD2B61F9E7A5
:10D29000DC7A02000988020071570200635702001D
:10D2A00019880200555A0200F0B500240500774B9A
:10D2B000D9B0083303608160C26075492200848060
:10D2C000847143A808F084FC2B0014330126042742
:10D2D00006931223069A049601930097230043A90C
:10D2E0000394029419A8FFF735FA2200694943A86C
:10D2F00008F06EFC0C232A0004961032019300976C
:10D30000230043A9039402942EA8FFF723FA2200D6
:10D31000614911A808F05CFC2A001C32079208221F
:10D320002300049601920097079A11A9039402948E
:10D3300043A8FFF70FFA2200584911A808F048FC4B
:10D3400054200AF0B3F806001220012304212A0019
:10D35000019011A818320493009123000100039456
:10D36000300002941700FFF7F5F930004C4B08220B
:10D37000119311AB1900AE62F5623030129405F0D2
:10D380002BFB484B0122B363330029331A7038005A
:10D39000079903322C61EC6105F01EFB3900042271
:10D3A000069805F019FB5E22032302A95218D377D1
:10D3B000B2225218D3770A000732FF32D377B21C59
:10D3C000D37719AB08932EAB220037490993AC856C
:10D3D00043AB0CA80A930B9608F0FAFB28223C20DA
:10D3E00002AB9B181B7802AA1218137002AB5B8F5A
:10D3F000123002AA12181380292302A95B181900FF
:10D40000113802AB1022C01805F0E6FA50220421B0
:10D4100002AB9B185822197002AB9B1808AF1797E4
:10D42000A8681C8000F036FA036811A91B689847A9
:10D430007A2202AB9B181B8854322B8402AB9B18B8
:10D440001B885432AB8402AB9B181B88A8686B8482
:10D4500000F020FA070014200AF028F80600134B09
:10D460000461082220C00CA90C930D9405F0B4FAB5
:10D470000F4BF360BB69A34206D12800BE61FBF7E6
:10D480001FFE280059B0F0BD3361F6E7E87A0200CC
:10D490004988020029880200398802005988020060
:10D4A000A35B0200D35A0200698802007DD5010007
:10D4B000FD5A0200F0B5040085B01F000CAB1B88BC
:10D4C000103001930E00150006F095FE2000243068
:10D4D00006F029FD26806580182009F0E7FF082660
:10D4E000050032000AA902A805F076FA28003200E9
:10D4F00000212F600C3005F017FB320002A9281D17
:10D5000005F06AFA064B022220006B6100230199A4
:10D51000A5600A43E360A2802362E36205B0F0BD28
:10D52000275B020070B5040092B0806800F092F9A9
:10D53000826D0223110019401A421AD1A38D002BCB
:10D5400017D00D4AE5680492102202926A46A1851E
:10D55000059104AB41CB41C20A00230006A8FFF7A6
:10D56000A9FF2B6828009B6806A9984706A806F023
:10D5700067FD12B070BDC046675B0200F0B58DB0AC
:10D5800005904B88828C0E89CC689A420AD1032E72
:10D5900038DD62882188012308A806F036FE043EA3
:10D5A0000434F4E7059A528C9A422BD1032E29DDDC
:10D5B000059B3020DF682388069363880793124B0E
:10D5C00008930023099309F071FFC02302936B466F
:10D5D000050008AA03CA03C32800059B0699079AF9
:10D5E000FFF768FF3B68290038005B689847002810
:10D5F00005D0280006F024FD280009F04FFF043E66
:10D600000434D3E70DB0F0BD675B0200002815D0ED
:10D61000006041608260C360046145618661C761EA
:10D62000444604624C464462544684625C46C4628A
:10D63000644604636E46466374468463002A06D0DB
:10D64000C46B043C043A25681560B442F9D18C6B74
:10D65000A6464E6BB546002B06D0CC6B043C043B73
:10D660001D682560B442F9D10C6BA446CC6AA34670
:10D670008C6AA2464C6AA1460C6AA046CF698E69A4
:10D680004D690C69CB688A68086849687047006012
:10D6900041608260C360046145618661C761444640
:10D6A00004624C464462544684625C46C4626446EA
:10D6B00004636E46466374468463C46B043C043959
:10D6C00025680D60B442F9D1C76986694569046966
:10D6D0007047006041608260C3600461456186619B
:10D6E000C761444604624C464462544684625C46C8
:10D6F000C462644604636C4644637446846304698C
:10D700007047846BA646446BA546046BA446C46A66
:10D71000A346846AA246446AA146046AA046C76931
:10D72000866945690469C368826800684168704712
:10D7300010B5041E0CD005F061FC431EE318A34293
:10D7400008D922781978013B21705A700134F6E724
:10D75000014810BD0020FCE717FCFFFFF0B585B0C5
:10D760000D1E009029D000260A27C217141A4B1E3E
:10D77000544003932000029639000136019603F0CD
:10D78000E1FFCB17C9185940039B30312000995550
:10D79000390003F0F1FE041EECD1009B002B04DAEB
:10D7A0002D23029E019A0236AB5400232800AB556C
:10D7B000FFF7BEFF200005B0F0BD014CFAE7C04600
:10D7C00017FCFFFF0268084B406810B5C018C00086
:10D7D000101803009A4205D81C688C4202D3180026
:10D7E000083BF7E710BDC046FFFFFF1F70B5064DB1
:10D7F00004002B68002B02D108F0A2FC28602368EB
:10D800009B00EB58636070BD4C25002070B500286C
:10D810000ED10D4D2E68002E08D1083009F046FEBD
:10D82000040006604660FFF7E1FF2C60286870BDC9
:10D83000064A0123116806480C001C401942F6D123
:10D84000036044601360F2E7402500203C2500207F
:10D8500044250020436810B50400002B02D1044881
:10D8600009F020FC606803681B69984710BDC0463A
:10D8700079880200436810B50400002B02D10448E7
:10D8800009F010FC606803681B69984710BDC0462A
:10D8900079880200436810B50400002B02D10448C7
:10D8A00009F000FC606803689B69984710BDC0469A
:10D8B00079880200436810B50400002B02D10448A7
:10D8C00009F0F0FB606803685B6A984710BDC046CA
:10D8D0007988020010B5040002F072FB034B1B684C
:10D8E000002B01D02000984710BDC04654250020D1
:10D8F000F0B58BB0050001F0E3FD002000F0BEFBA9
:10D90000036807001B6998473B6804009B6938005F
:10D9100098473B6806005B6A3800984702002888F1
:10D9200010380B2861D803F089FD063D6060605A0D
:10D93000606060666078AF882000390009F09CF86C
:10D9400022006B7B583201931378A8799C460223FE
:10D9500061460B43137004AB1F80012304AA93702C
:10D960001300D070019AE91D9A722B00062216331B
:10D9700005A8099305F030F829000B2004AB062216
:10D980000E31C01805F028F894346368A360A068CD
:10D9900000282AD0C36804A99847A368002BF4D0B4
:10D9A0001B69F3E720002F49AF8809F065F82200D2
:10D9B000022058321378A9798343137004AB1F8077
:10D9C0009970A0346368A360A06800280DD0C36874
:10D9D00004A99847A368002BF4D01B69F3E75369A7
:10D9E000002B02D0A888A91D98472900300008F014
:10D9F0004AFD0BB0F0BD636E002BF6D0AF79A36685
:10DA0000A06E0028F1D0C36839009847A36E002BA0
:10DA100001D1636EF3E71B69F1E701220D27AB7BB0
:10DA2000E91D1A4001925A07920F0292DB08062262
:10DA300004A8EF57039304F0CFFF019A04ABDA7107
:10DA40006A46127A9F711A726A46127B20005A72D5
:10DA50002B008C340F3307938030236804A9984738
:10DA6000C3E7C046FFFF000003000720D72B02D901
:10DA70000020014A1360704750250020014B1860B8
:10DA80007047C046542500207FB58022A323D205CD
:10DA9000DB00D3580820DB0700D4053048221C4B9C
:10DAA0001C4901F077F800280AD080B2002807D17D
:10DAB000BFF34F8F184B194ADA60BFF34F8FFEE761
:10DAC00001230493164B04A81B680193059308F0E7
:10DAD00055F9002802D0072007B000BD02A808F0C1
