:020000021000EC
:1080000000400020351102007111020073110200BE
:108010000000000000000000000000000000000060
:1080200000000000000000000000000075110200C8
:10803000000000000000000077110200791102002A
:108040007B110200B9BD0100F11702007B11020093
:108050007B11020000000000AD1102007B11020044
:108060007B110200C9190200791602007B1102007F
:108070007B1102007B1102007B1102007B110200C8
:108080007B1102007B1102007B1102007B110200B8
:108090007B11020099030200090202007B11020019
:1080A0007B1102007B1102000000000000000000B4
:1080B00000000000000000000000000000000000C0
:1080C0000448054B10B5834203D0044B002B00D06D
:1080D000984710BDC0200020C020002000000000F4
:1080E00006480749091A8B10C90FC91810B549105D
:1080F00003D0044B002B00D0984710BDC0200020B7
:10810000C02000200000000010B5074C2378002B91
:1081100009D1FFF7D5FF054B002B02D0044800E042
:1081200000BF0123237010BDD820002000000000F4
:10813000B09A0200054B10B5002B03D00449054846
:1081400000E000BFFFF7CCFF10BDC04600000000FC
:10815000DC200020B09A0200402292029A1A924635
:108160007047C046154B002B00D1114B9D46FFF7C1
:10817000F3FF00218B460F461148124A121A0BF0EA
:1081800001FA0C4B002B00D098470B4B002B00D072
:1081900098470020002104000D000B480BF082F8E6
:1081A0000BF0C8F8200029000FF099FC0BF098F8AC
:1081B0000000080000000000000000000040002057
:1081C000C0200020002F00200D330200F7B50A0068
:1081D000030010320C781C704C785C708C789C70AA
:1081E000CC780431DC7004339142F3D1124B042279
:1081F0009C46124E0327037B457B847BC17B3A421E
:1082000009D16746755D0195355D745CF15C930835
:10821000FB5C019F7B40077801327B40037443780D
:108220005D40837845745C40C37884745940C17460
:1082300004302C2ADED1F7BD4C8F0200579002008B
:10824000F0B50A0004000F0089B0010000200CF016
:1082500069F90126231D01932500230019001A0046
:108260001031029111788C4660463749095C1170D3
:10827000029904329142F5D1019A01339A42EDD12B
:10828000627963786270627A6271627B6373627230
:10829000A27AA378A270A27BA372A379A271E27BD7
:1082A000A373E378E270E27AE273E279E371E27257
:1082B0000A2E41D02300103307932B7802930298A3
:1082C0006B7858400393AB780493EB780593059A49
:1082D000049B53400693434001930CF03DF9029BED
:1082E0005840019B58402870049B039858400CF05C
:1082F00033F9039B5840019B5840687006980CF076
:108300002BF9049B5840019B5840A870059B02988C
:1083100058400CF021F9059B5840019B5840079BA1
:10832000E8700435AB42C8D130003A002100013674
:108330000CF0F8F8F6B28DE73A00210030000CF0AE
:10834000F1F809B0F0BDC04657900200F0B591B009
:108350000A000E91040001000A200CF0E3F8092342
:10836000627A0093637B627362792600627262783C
:1083700063706271A27AA378A270A27BA372A379C0
:10838000A271E279A373E378E270E27A534DE2716D
:10839000E27BE3732300E272201D19001A00103102
:1083A0001778EF5D177004329142F9D1013398428A
:1083B000F3D121000E9A00980CF0B4F8009B002B2A
:1083C00000D188E0230010330F933378F7780193BE
:1083D000737801980293B37803930CF0BDF807907B
:1083E0000CF0BAF808900CF0B7F8049002980CF072
:1083F000B3F809900CF0B0F80A900CF0ADF80590C5
:1084000003980CF0A9F80B900CF0A6F805000CF0FE
:10841000A3F8069038000CF09FF80C900CF09CF834
:108420000D900CF099F80899079B02004B400499B5
:108430004B4009994B4005994B4006996B404B4086
:10844000029943404B4003994B407B400499337061
:10845000099B4B400A994B4005994B400B994B4067
:1084600006994B400D994B40019943404B4003996D
:1084700008984B407B407370049B5840059B5840C4
:108480000B9B5840069B45405D400C9B07985D4008
:10849000019B55405D40029B5D40049B7D405840E0
:1084A0000A9B0D9F5840059BB5705840069B58404D
:1084B0000C9B58404740019B7A405A40029B5A40CF
:1084C0004A400F9BF2700436B34200D07DE7009B18
:1084D000013BDBB244E711B0F0BDC046578F02004C
:1084E00010B50400034B036040300CF047FB200044
:1084F00010BDC046588402000300083373B5040061
:108500000D1E036019D008000BF0A6FA2E1801907A
:108510000F2807D90022200001A909F0C7FB019B01
:108520002060A3603200290020680FF03FFD002189
:10853000019B22686360D15473BD01480FF08EFC2B
:108540005791020000B58DB01F4906A801F0AEFE9C
:10855000782206A91D4803F039F806A80CF00EFB96
:108560001B4906A803F06AFD06A905A801F0AEFEA6
:1085700006A80CF083FC059B1649181D0CF006F9A3
:10858000010006A8FFF7B8FF134906A80FF0C4FDC5
:1085900000280DD10122114B1A70114B02321A70B2
:1085A00006A80FF0B4FC05A80CF0E8FA0DB000BD69
:1085B0000C4906A80FF0B0FD0028F1D10322074BAB
:1085C0001A70074B023AEAE78191020084260020E4
:1085D000FC280020802000208391020093200020AE
:1085E0009420002087910200CB17F7B5CC185C408F
:1085F000060001252000CF0F092802D9632822D8C0
:10860000013533000833791933602D2230000FF023
:10861000B3FC3368DF197D19023D632C23D9200098
:10862000642109F0D3FC20004B006421019309F080
:1086300047FC019A134B04009B185B786B70114B3D
:108640009B5C2B70E8E7FA239B00984201D202352D
:10865000D7E70D4B984201D80335D2E70B4909F013
:108660002FFC0435C8E7092C08D9064B64001A19F9
:1086700052781B5D7A703B703000FEBD30343C7028
:10868000FAE7C046879202000F270000102700007B
:1086900030B50C0095B064210500200009F09AFC6B
:1086A000010002A8FFF7A0FF224902A809F0D8FBA9
:1086B000010008A80BF074FF002C33DD64212000BA
:1086C00009F06EFD0EA8FFF78FFF099B0898009335
:1086D0000F9B0AA90193019A009B94460F226344C1
:1086E000884200D00A9A93421FD90E9810A90F22EF
:1086F000884200D0109A934217D8002108AA0EA8E9
:108700000FF0CEFC010028000BF04AFF0EA80FF07E
:10871000FEFB08A80FF0FBFB02A80FF0F8FB2800F7
:1087200015B030BD64216042CAE70EA908A80FF059
:10873000EEFCE7E78B910200F0B500240E0091B04B
:1087400004AD06AB019004932C726C601E4F380090
:108750000BF082F9A0421CD9002C03D028001B4941
:1087600009F07EFB3B5D4C2B0ED0542B0AD10199B6
:108770000AA8FFF78DFF28000AA90FF0C8FC0AA875
:108780000FF0C5FB0134E1E731000AA8FFF72CFF29
:10879000F1E70F4904980BF0ECFF01000AA8FFF77E
:1087A000ABFE0A9903A801F081FD03A909480DF069
:1087B000A1FB03A80CF0E2F90AA80FF0A8FB28001F
:1087C0000FF0A5FB11B0F0BD902000208D910200AC
:1087D00080200020FC280020F0B5254C87B0200028
:1087E0002449FFF789FE244F24493A0020000FF066
:1087F00015FB234C200000F021FE3A002000214907
:108800000FF00CFB204D00221E2128000DF074F803
:108810001E4E022303226421300003F091F93A0036
:1088200030001B490FF0FAFA7A232A002100009346
:108830001848330000F0A6FD032300260127039308
:1088400002332A00210002930193009305960497B6
:10885000E733114800F022FA52232A002100029740
:10886000019600960D4800F0E9FA07B0F0BDC04649
:10887000042100208F91020000200020358002009A
:1088800094250020A188010054210020F42000201C
:108890008D4502006C2100201C2100208425002031
:1088A000CB23144A9B0010B5C2501C330400C018DF
:1088B0000CF064F9D1239B00E0180CF05FF9200064
:1088C0009130FF3002F022F920006930FF3002F0D1
:1088D0001DF92000F03002F08BFC2000D03003F0B6
:1088E0000BF82000643008F083FB201DFFF7F8FD33
:1088F000200010BDE4880200F0B57A48A7B000F06F
:1089000053FE794C200003F09DFA1C21200003F057
:1089100085FA30200FF08DFA10230400092100930E
:108920000122724B0CF0C4F82100714802F078FF6C
:10893000002805D020000CF0D5F820000FF075FAC3
:10894000002302AA05930693538107930A23694CD7
:1089500002AA9B18200006AA05A900F023FA20000D
:1089600006990BF03CFE00240100029008A8FFF7D6
:108970008FFE1CAB1A93099B1AAD991D28002C720F
:108980006C6003930FF05CFB5B4B1B9A9B1A052BEF
:1089900002D85A480FF065FA0622594928000FF00C
:1089A00096FB08A928000FF0B2FB5649280009F0F1
:1089B00057FA010020A80BF0F3FD534920A80FF04F
:1089C000A6FB01000EA80BF0EBFD20A80FF09FFA0C
:1089D00028000FF09CFA4D4B220019784C480E9B52
:1089E00000F0F8FC220021004A4807AB00F016FB1B
:1089F000079C01262000484F092802D9632821D866
:108A00000136310016AB002214A814930FF0B4FA0B
:108A1000149F159EBE19023E632C22D920006421AA
:108A200009F0D4FA20004B006421039309F048FABE
:108A3000039A3A4B04009B185B787370374B9B5C2E
:108A40003370E8E7FA239B00984201D20236D8E758
:108A5000B84201D80336D4E7314909F031FA043677
:108A6000CAE7092C3AD92D4B64001A1952781B5DBC
:108A70007A703B702B4A002114A80FF019FB0100FB
:108A800028000BF08DFD28001F490FF040FB01006E
:108A900020A80BF085FD20A8209C0FF038FA2800B4
:108AA0000FF035FA14A80FF032FA194D1E4B0022C0
:108AB00019782800230000F08DFC280000F02AFC23
:108AC00007990298FFF738FE154801F0D7F90EA86C
:108AD0000FF01DFA08A80FF01AFA37E730343C708F
:108AE000C8E7C04694250020E42800204585010001
:108AF000642600201C210020FFFFFF3F9991020007
:108B0000AE910200B59102000421002094200020C3
:108B10006C210020842500200F270000BE91020058
:108B200010270000B8910200932000207FB5134B5E
:108B300003AA1B78002613706B46DE73437A040089
:108B4000012B15D00125017A00952B00406802F019
:108B5000E7FD0F222B00217A606800966A4402F03C
:108B6000CFFDB04207D16B46DB7B602B03D0607238
:108B7000607A04B070BD6572FAE7C0465093020097
:108B8000F0B504000126444B89B01B7802AA0120ED
:108B9000137301F073F9217A0096330005AA0027B8
:108BA000606802F0BDFD2200217A0097062360680C
:108BB000103202F0A5FD0500B84203D0677228000C
:108BC00009B0F0BD300001F059F98E2302AA1373E9
:108BD000217A0096330005AA606802F0A1FD220008
:108BE000217A0095122360681632029502F088FD02
:108BF000051EE3D1300001F041F9A12302AA13734D
:108C0000217A0096330005AA606802F089FD06AF5C
:108C1000217A009533003A006068039502F070FDF8
:108C2000029B051E18D1300001F028F9E12302AAA9
:108C30001373217A0096330005AA606802F070FD74
:108C40001122217A02A8009512180723606802F009
:108C500057FD051E02D0039B6372B0E723003A78EC
:108C600028331A7002AB5A7C9B7C1B02134363852A
:108C70002300FA782C331A700F227B7939791A4045
:108C800009010A43E285BA791B09120113432386BD
:108C9000FB793234237092E752930200F0B59C4680
:108CA00004000D00256065461600257200256660EB
:108CB000F22689B012A8007865720390039D0EAB6E
:108CC000A57306AD2E7002361978AE7001362E717E
:108CD000EE3EA172314069701C210FAB1F7810ABC2
:108CE0001B78E77223739B000B407F011F43032314
:108CF00011AA127813A8007862731A40039BE073DC
:108D0000800008405B0118433A436871EA70200014
:108D1000FFF70CFF01280FD0002326681E4963725D
:108D2000F03605A801F0C2FA7822300005A902F059
:108D30004DFC05A80BF022FF002606232A00217A0D
:108D40006068009602F0ECFCB0420ED02568134932
:108D50006672F03505A801F0A9FA7822280005A965
:108D600002F034FC05A80BF009FF2000FFF708FF14
:108D700000280DD025680A49F03505A801F096FABB
:108D80007822280005A902F021FC05A80BF0F6FEC8
:108D9000200009B0F0BDC046719302008493020028
:108DA00054930200F0B589B00393234B05AD1B78B3
:108DB00004002B70437A0F001600012B05D0FFF73B
:108DC000B5FE012835D101F059F801232A00217A96
:108DD0000093606802F0A4FC002306AD00932A0013
:108DE000217A6068083302F08BFC002803D000234E
:108DF000637209B0F0BD002F08D02B786A781B038E
:108E000012011343AA78120913433B60002E08D0C5
:108E1000EB782A791B03120113436A791209134371
:108E20003360039B002BE4D0EB88039A5BBA13807A
:108E3000DFE701204042DCE7669302007FB50400D3
:108E40002372002362606A4608A806780AAD09A862
:108E500000782D78A0722373284381331381216019
:108E6000507266722000E5720BF0D1FB01280DD024
:108E700025681649F03503A801F018FA7822280071
:108E800003A902F0A3FB03A80BF078FE0025012044
:108E900000F0F4FF0223217A6068009502AA02F034
:108EA0003FFCA8420ED0257325680949F03503A878
:108EB00001F0FCF97822280003A902F087FB03A83F
:108EC0000BF05CFE200004B070BDC0466893020049
:108ED0007B93020070B5C37A0600002B28D0013BBB
:108EE000581E83415842424B1840C0235B01C018B2
:108EF000B37A002B00D100010023414350438C0A78
:108F0000850A9C4203D0210008F0DAFF0300727A40
:108F100001335B08022A0ED9032A24D00020010065
:108F200080234C4368439B01E418201A800B70BDDA
:108F3000E8200002DCE7402B2DD9802B30D9C02B54
:108F400032D980225200934231D93832934231D9FA
:108F50006232934233D90020264A01009342DFD87F
:108F600012301831DCE7432B2CD9852B2ED9C82B96
:108F70002FD98522520093422ED9443293422ED3C8
:108F80004C3293422FD900201A4A01009342C7D88D
:108F90002B303731C4E7DF20F92140004900BFE71B
:108FA000852115488900BBE714481549B8E79C217D
:108FB0001448F7E7FE2070214000FF31B0E7FB20A6
:108FC000D221ADE7AE208121FF30EBE78A210E48A8
:108FD000E8E70E480E49A3E70E480F49A0E7DE2058
:108FE0007821FF30E9E728200221FF30E5E7C0467D
:108FF00000ECFFFF9A020000D10200007B0300009A
:109000003F020000FE030000C102000063030000F5
:1090100053020000DF03000082020000F0B51E00D2
:10902000174B87B01B78039204AA13700123040026
:1090300000270291017A0093406802F071FB04233B
:10904000217A6068009705AA02F05AFB0500B84231
:1090500003D02773280007B0F0BD02AB9989DA89E5
:10906000029B002B00D01980039B002B00D01A809C
:10907000002EEFD02000FFF72DFF3060EAE7C0465A
:109080008F930200F0B58BB00F0006001400002192
:10909000182204A81D000AF075FA6B4680205F7440
:1090A00018746B000B2D26DC002D09D0220004A9BA
:1090B0006519147801328870CC7002319542F8D16C
:1090C00000227A2100927068023304AA02F028FB81
:1090D000041E0DD035680949F03503A801F0E6F803
:1090E0007822280003A902F071FA03A80BF046FDCC
:1090F00020000BB0F0BD16246442F9E79193020002
:1091000010B5044BC154C21881210123FFF7BAFFE7
:1091100010BDC0460F04000010B5074BC35C082B00
:1091200005D10023A1211A00FFF7ACFF10BD0023D9
:10913000A0211A00F8E7C046110400000F2373B500
:1091400019406B4612011143C9B2DE1C0400317094
:10915000F0290DD005680A49F03501A801F0A6F8FC
:109160007822280001A902F031FA01A80BF006FDCF
:1091700032000123D5212000FFF784FF76BDC046D1
:109180009F930200F7B56B46012700250400DE1C03
:10919000574B3900C7548068357002F023FD380002
:1091A00000F06CFE2900A06802F01CFD0A2000F00F
:1091B00065FE3900A06802F015FD2B002A00AE21E3
:1091C0002000FFF75FFF051E0FD024684949F034E7
:1091D00001A801F06BF87822200001A902F0F6F94D
:1091E00001A80BF0CBFC2800FEBD022120000BF0F3
:1091F00063FA051E03D024683F49F034E8E70F22E4
:1092000001002000FFF79AFF3F2120000BF07CFABD
:109210003A4B2000E25C3A4BE15C0BF080FA2B0009
:109220002A0029002000FFF72DFF364BE35C002BBE
:1092300007D11433337032003B008D212000FFF73B
:1092400021FF002120000BF01AFA051E03D024682C
:109250002D49F034BCE701007F2220000BF018FA02
:109260002900072220000BF01DFA2000FFF754FF11
:10927000051E03D024682549F034A9E720000BF02F
:1092800033FA051E03D024682149F034A0E71223E5
:109290003200DA2133702000113BFFF7F3FEFF218B
:1092A0002000FFF72DFF174BE35C002B0FD1F133AC
:1092B0003200D92133702000F03BFFF7E3FE30236A
:1092C00032003370DB2120002F3BFFF7DBFE002351
:1092D000B0211A002000FFF7D5FE042120000BF07A
:1092E000EBF9012120000BF0F2F905007BE7C04605
:1092F00015040000AB930200B793020013040000B2
:109300001204000014040000C6930200CF93020070
:10931000D89302007FB5184E0500815D00290DD15C
:109320007F220BF0B5F9041E23D10100072228008B
:109330000BF0B8F9041E1CD10123AB5540232B734D
:1093400000232A0000937A210C4B68680C3202F04B
:10935000E7F9041E0DD02D680949F03503A800F087
:10936000A5FF7822280003A902F030F903A80BF02A
:1093700005FC200004B070BD1504000001040000CD
:10938000E193020010B504002160210002A8A3604F
:1093900000780B4B62600C31E054002220000BF08F
:1093A000D2F9084B084A2000E252084A0233E25040
:1093B0008022074B5200E252FFF7E4FE200010BD6E
:1093C0000D0400000E0400000480FFFF07080A04DB
:1093D00014040000F0B587B0039018000C001600CC
:1093E00004930AF039FB00250590059B9D421EDA87
:1093F000049B5A5D0023202A02D91300203BDBB2D4
:109400000D4A0399DB009B18771CFFB200933200D2
:10941000230003980C310BF0A0F90F2F04D901346D
:10942000E4B2072C04D800273E000135DDE7059D96
:10943000280007B0F0BDC046588102001423F0B5E3
:10944000040093B0192200931821043002F03CFE6E
:1094500023002500260064331800B435132110932F
:10946000B83607F0D1FD28000CF0C1FD00221E2106
:1094700030000CF041FA2000D03002F05DFA2300F9
:10948000F03307211800454A119301F0D9FE20005E
:109490000027012369301A0011210097FF3001F0E5
:1094A00041FB20009130012302221A210097FF3056
:1094B00001F038FB2000B930022201210323FF30E4
:1094C00002F006FB300001F033F9E4235B00E050CA
:1094D000300001F081FBE6235B00E0500100E42254
:1094E00020005200D130119BA2580095FF3001F0AE
:1094F00075FC2000E13029000822FF3002F080FFD7
:10950000782320000F93013B0E93033B0D93013B07
:109510000C93013B0B93013B0A93013B0993013BE5
:109520000893013B0793013B0693013B0593013BE5
:109530000493013B0393013B0293013B0193F930F8
:10954000013B652200936421013BFF300CF0F5F9EB
:10955000CB239B002900E01803F012FFD4239B00CB
:10956000E018092102F0C4FBDE239B00E7501098AD
:10957000032127700EF089F92300220020000849FA
:109580009C33A0321C6082C2064A02215A6180309C
:10959000012207F0BDFE200013B0F0BD6084020080
:1095A000BD470200A74702000278F0B5012317006B
:1095B000040091B01F401A4263D10300D033180059
:1095C000049300F0CBFA00F0DDF930200EF031FC0E
:1095D000050010300BF061FB280024300BF0F5F98A
:1095E0006A4B18202B600EF024FC0600684B082202
:1095F000390004600C300E930F9709F0C3FF0EA9D9
:109600000822301D09F016FF624B290073611223F6
:109610000498AE60EF60AB802F62EF6202F000F959
:10962000002805D028000BF05DFA28000EF0FDFBA5
:10963000012326002278B4361343237056493000A4
:109640000CF0DBFC00255549039030000CF0D5FCF4
:109650002F000590642000F011FC0295230069336F
:10966000FF33180006930BF042FD00280BD1039B3B
:10967000002B12D1059B002B0FD14949494800F01E
:10968000C1FC11B0F0BD20009130FF300BF02FFD78
:109690000028ECD0029B182BE9DC20006530FF236A
:1096A00039B22AB2FF3000F0ADFE322000F0E6FB06
:1096B000029B01370133FFB20293052F02D100272D
:1096C0000135EDB2029B192B0AD0039B002BC5D0AC
:1096D0003000314902F026FE03980EF0A6FB02E0AE
:1096E000039B002BF4D1059B002B02D018000EF039
:1096F0009CFB2B492C4800F085FCCB239B00E318F6
:109700000793DE239B00E3580893002B36D100F02B
:1097100059F801000BA800F0C9FD0BF0D5F808902E
:109720000BF0D2F86B460990198C0DA80BF042FA99
:10973000099B0EA8190C0BF03DFA0EAA0DA90CA856
:109740000BF088FA0EA80BF019FA0DA80BF016FA18
:1097500001230CAA0BA907980093049B03F06AFE4F
:109760000CA80BF00BFA0BA80BF008FACD239B000A
:10977000E3580893DE23089A9B00E2502100069AE2
:109780000798F03104F046F868E7C046FD03000092
:109790002F480200EF470200F3930200FE930200FD
:1097A0000020002008000020001C0020BFF34F8F85
:1097B000024B034ADA60BFF34F8FFEE700ED00E093
:1097C0000400FA05F0B58BB003AF19223800154933
:1097D00009F030FE0023144D05266B7180235B05D4
:1097E0005B6E2C000093012301933100009808F078
:1097F000EDFB0800019908F063FB0522009B56432E
:109800001B1A0093019B534301932B1B5343FB18DB
:109810001B5C013C6371054B9C42E6D102480BB0D6
:10982000F0BDC046449402003A2E0020352E0020A0
:10983000F0B595B01822002104000EA809F0A2FE90
:1098400013210EA80EF031F903210EA80EF0D0F965
:10985000464B1B68002B00D10133DBB20093002183
:109860000123434A09A807F0C3FEFA239B009C4248
:109870009B411C4072B63F4B64211E683E4B20004A
:109880000593052508F0A6FB6843503030180A21DF
:109890000690200008F09EFB0A2108F081FC694335
:1098A00050317118200007910A2108F079FC6943B2
:1098B00050317118802600240891B601009B002BBE
:1098C00052D004AD0027032C02D180260024B6011B
:1098D0006B682A4A02936300D318002201925878D9
:1098E0000299095C039119788C4610216046014168
:1098F0000398014204D00120904001990143019155
:1099000001320633092AEAD1019B2A68D9431C4B4C
:1099100009011940029B934224D1312F22DC0021FE
:1099200009A80EF01EFAFA23139A0F99DB001068AB
:10993000014219D0013B002BF9D1FA230134013740
:109940007600E4B25B009F42BDD1043508ABAB4268
:10995000B8D1064B1B68002BB0D0009B013BDBB29B
:109960000093ABE73143DBE7FFF720FF142900202A
:10997000F0FF000004200020939402005D94020098
:10998000F01F0000F8B50023124C23600AF08EFF90
:10999000002808D0042120000AF084FF002801D00C
:1099A0000D4B2360F8BD0123A12704210B4A0C4D68
:1099B00013602368FF0068606E68002EFCD0D659E3
:1099C0001B02013933430029F5D123600123536081
:1099D000E8E7C04610290020ED5EBC0B00D0004037
:1099E000FCD000400B4B70B51C68002C10D0656D8E
:1099F00000F018FCA36C002901D1834206D8200096
:109A00000AF0ABFF200004490AF097FF2C00ECE7B6
:109A100070BDC0461C2900203C290020F0B595B03F
:109A200007932A4B04AC1E68049005910692002E01
:109A300049D0274B678825881C6800230293002C97
:109A40002DD0636D23480393A36C190C9AB20B00BD
:109A5000854214D12048824211D1002901D0B94257
:109A60000BD1029B002B08D120000AF076FF2000CA
:109A70001A490AF062FF01230293039CDFE7002AE0
:109A800001D09542F9D1002901D0BB42F5D1200087
:109A90000AF063FF200011490AF04FFFEDE7104B79
:109AA000EB18012B0FD910233A002900009308A8C6
:109AB0000C4B0AF0FDFF336830009B6808A99847FB
:109AC00008A80BF00FF815B0F0BDC046182900200B
:109AD0004C290020FE030000FF0300003C29002069
:109AE00002FCFFFF1D9A010010B572B60E4B1C68F8
:109AF000002C0ED020000AF030FF0023E3640B4B53
:109B0000E36372B60A4B1A681C60A26562B6200055
:109B100010BD62B65C200EF08CF95C2200210400BE
:109B200009F030FDE9E7C04644290020004000204C
:109B300040290020074B10B51C68E36CDB0706D5F5
:109B4000FFF7D2FF044B1860002800D0040020006B
:109B500010BDC0465029002020290020F7B51E4C1A
:109B60000123227816001E401A4233D11B4D286073
:109B7000FFF7BAFF1A4B1B4918600AF0DEFEFFF729
:109B8000B3FF194B1860194B4363194B8363286863
:109B900000280FD0C023174F3200174900933B0015
:109BA0000AF0A5FEC023009332003B001349286849
:109BB0000AF09DFE0C200EF03CF900238380837197
:109BC0000F4B03600F4B836000F044FB01232278AE
:109BD00013432370F7BDC046402E002018290020F3
:109BE000502900203C29002048290020FC3F00206B
:109BF000BF4902001D9A0100FF030000FE030000A0
:109C000080840200E5990100024B18780123184076
:109C10007047C046402E0020F7B5134F04003B6844
:109C20000E00002B1ED0114B1B78DB071AD5FFF757
:109C300081FF05003304234383640AF08EFE28006D
:109C40000B490AF07AFE0B4B0025E318012B07D9CC
:109C5000C023009332002100074B38680AF047FE0A
:109C60002800FEBD054DFBE718290020402E0020EE
:109C70004C29002002FCFFFF1D9A010016FCFFFF8B
:109C8000F7B506000D0017000193002802D100244B
:109C90002000FEBD0029FAD0FFF726FF041EF6D0F3
:109CA000074B019A43630660064B45608760002AB4
:109CB00000D0054B20000549A3630AF03EFEE7E70C
:109CC000FC3F002099490200A74902003C290020DE
:109CD00070B5074B0E0011001A7805000123100023
:109CE00018401A4203D032002800FFF7C9FF70BDA8
:109CF000402E0020F8B50500EFF30884C36B006C1C
:109D00001C1B6B6C1B1A9C420FD91F23074E20345F
:109D100037689C43002801D000F0D6F9200000F0FD
:109D20009FF92864001968643760F8BD5029002045
:109D3000024B1868434258417047C0463C290020F6
:109D40000300002210B5044994006058002801D097
:109D50000132F9E7635010BD24290020002310B51B
:109D6000044A99008C58844201D00133F9E700205D
:109D7000885010BD2429002010B50024084BA200F3
:109D8000D058002802D003685B6898470134062C3D
:109D9000F4D1044B1B68002B00D120BF10BDC0467E
:109DA000242900203C2900200122F8B52C4B1B78E7
:109DB00013421CD02B4D2C68E36C134218D00227A1
:109DC0003B43E364284B1E680423F26C30001343CA
:109DD000F364636BF363FFF78DFF3000716C04F085
:109DE0001AF92868C36C3B4201D004F04EF9F8BD63
:109DF0001E4F1F4E3A683068002A0AD128601B07A0
:109E000012D52C60FFF7B8FF3B68002BFAD02B600F
:109E10000AE0216DB94219D1616D002900D111000C
:109E200029602A688242EAD029688C42DFD03368F0
:109E300099420DD10F4B4B630F4B8B632000FFF703
:109E400059FF296820004B6C626C06E02A60E8E745
:109E50009C42F3D1002210004B6C04F09BF8C6E743
:109E6000402E002050290020202900203C290020DD
:109E700048290020FC3F0020BF49020070B50C4B70
:109E800004001B78DB0702D40DF0ABFE70BDFFF7BA
:109E900051FE050000F0C6F92418AC6428000AF051
:109EA0005CFD280003490AF048FDFFF77DFFEDE760
:109EB000402E00201C290020F8B51B4B1B78DB0727
:109EC00027D50024194E30680AF047FD184D2B683D
:109ED000002B02D05B6D0134FAE7032C0ADD2F68FA
:109EE000013C7B6D386C2B6000F0EEF8380000F020
:109EF000EBF8F2E7290030680AF01FFD72B60D4951
:109F000032680B68934206D19B6D0B6062B6FFF717
:109F10004BFFF8BD0B00002BF8D0996D8A42F9D1A8
:109F2000926D9A65F2E7C046402E0020502900202D
:109F3000442900204029002010B5034B1B78DB0783
:109F400001D5FFF7B9FF10BD402E0020F7B5050081
:109F50000C00002833D001261B4B1B78334230D035
:109F60001A4F07233868C26C1100194000911A4239
:109F700007D021002800164AFFF7AAFE0025280076
:109F8000FEBD04F06AF83A680221D36C180008405C
:109F900001900B4203D001318B43D364EEE733438E
:109FA000D3642000A8473A68019DD36C1900B143DF
:109FB000D1645B07E3D52000FFF7BEFFDFE7054D67
:109FC000DDE7054DDBE7C046402E0020502900208C
:109FD000399F010017FCFFFF16FCFFFF020010B5C0
:109FE000014B12CB12C210BD54290020034B1A683A
:109FF000034B1A607E225A607047C046042000203E
:10A0000054290020F0B5124E03003278022A1BD0EA
:10A0100081421BD90C1A072C18D90D0005430327C0
:10A02000280038403D4211D172B6BA40094DA4080B
:10A030005351AA1851608022120614431C603378D1
:10A040000133337062B6F0BD0348FCE70348FAE71A
:10A05000422E00205C29002013FCFFFF17FCFFFFAD
:10A0600070B5041E23D0124D124E2B78002B0CD14C
:10A07000114912483370FFF7C5FF114B984202D1C6
:10A080001E20FFF7D5FB01232B7000253378AB4250
:10A0900009DD0C49EB002000C9180AF09AFC0028E1
:10A0A00005D10135F2E71420FFF7C2FB002070BD97
:10A0B000412E0020422E002000380020002F0020DA
:10A0C00017FCFFFF5C29002010B5002817D00022E4
:10A0D0000F4B19780F4B914215DD1C6884420FD24B
:10A0E0005C6884420CD9041F2368002B02DC1E200C
:10A0F000FFF79EFB802322681B061343236010BDDD
:10A1000001320833E7E71E20FFF792FBF7E7C0466E
:10A11000422E00205C29002070B5051E14DD0B4E78
:10A120000B4C3368002B02D020680DF011FCFA2193
:10A1300020680024074B89008361C462694335604D
:10A140000DF017FC200070BD0348FCE76C290020CF
:10A150009C29002001A2010017FCFFFFF8B5114F58
:10A1600005003E68002E0AD130200DF062FE04008A
:10A1700006F0B2FF0C4BA6612360E6623C600B4E1A
:10A180003368002B09D110200DF053FE04000DF0B0
:10A190003CFC200034600DF012FC2800FFF7BCFFEF
:10A1A000F8BDC0469C2900208C8C02009829002014
:10A1B000014B18687047C0466C29002070B50D4CE3
:10A1C0002368002B03D00C4B1B68002B02D1062008
:10A1D000FFF7C4FF20680DF009FC02000749C31710
:10A1E0000D684E685219734120680A604B600DF08B
:10A1F00003FC70BD982900209C290020C02000206D
:10A2000010B5FFF7DBFF0024054BA200D058002853
:10A2100002D003681B68984701340A2CF4D110BDA2
:10A220007029002010B5FFF7C9FFFA22034B9200F6
:10A2300018685968002307F0F3FF10BDC020002004
:10A2400010B5FFF7BBFF024B1868596810BDC04638
:10A25000C02000200B4B10B51B680400002B03D05E
:10A26000094B1B68002B02D10620FFF777FF002364
:10A27000064A99008858002801D00133F9E78C502C
:10A2800010BDC046982900209C290020702900207C
:10A29000002310B5044A99008C58844201D0013340
:10A2A000F9E70020885010BD7029002010B5040087
:10A2B000002902D00B78002B03D1034B2360200030
:10A2C00010BD0AF062FCFAE790840200F8B50500C0
:10A2D00008000C000AF00EFE002803D1124B2B6080
:10A2E0002800F8BD20000AF005FE0530FFF7B8FE93
:10A2F00028600AF002FE20000AF0FCFD2E68708043
:10A3000020000AF0F4FD070020000AF0F3FD3900F8
:10A310000200301D09F08EF820002E680AF0EAFDD8
:10A32000002336183371DBE790840200F8B504008F
:10A330000E00150000290AD00B78002B07D0002A48
:10A3400005D0080097B209F087FB874203D90B4B71
:10A3500023602000F8BD681DFFF782FE20600AF030
:10A36000CCFD20682A0047803100043009F062F8F3
:10A3700023685D1900232B71EBE7C046908402002F
:10A38000014B03607047C0469084020010B5054839
:10A39000054C20600AF0B4FD2000044A04490DF089
:10A3A0003DFD10BD90840200A02900200020002067
:10A3B0007D4B0200084B73B51D680400002D0AD0C8
:10A3C00001002E6808220831684609F033F80CCCE9
:10A3D00028003168884773BDA4290020014B036021
:10A3E0007047C0469884020010B50400081E03D1CF
:10A3F000034B2360200010BD21600AF081FDF9E7C6
:10A400009884020030B500684488A1420CDA85883F
:10A41000AA4209DA002907DB002A05DB624340185B
:10A4200080188371002030BD0048FCE717FCFFFF57
:10A43000F0B507000E001D0085B0002921DD002ABF
:10A440001FDD002B1DD00468638803938B4200DD61
:10A450000391A3880293934200DD02920023063405
:10A460000193019B029A93420ED029002000039A87
:10A4700008F0E0FF3B68AD195B88E418019B0133ED
:10A48000EEE7024805B0F0BD0020FBE717FCFFFF38
:10A49000F8B504000D0016001F00002901DB002A9A
:10A4A00002DA0D4B2360F8BD100048430630FFF779
:10A4B000D7FD20600AF021FD23685D809E80002F7B
:10A4C00006D03B00320029002000FFF7B1FFEAE789
:10A4D00020000AF033FCE6E798840200F7B5070095
:10A4E0000D1E03D1244B03603800FEBD002408007C
:10A4F0002600210001940378002B1AD0302252420A
:10A5000094469C446246092A11D90A2B0AD1019B20
:10A51000361901330193B14200DA310000242600DC
:10A520000130E8E7002CFBD000240136F8E70124D5
:10A53000F6E7019A380012B209B2FFF7A9FF01212C
:10A5400049420E000A203B689A1D2C78002CCBD083
:10A550002300303B092B08D8CB43DB170B40434388
:10A560001B19303B19000135EFE70029FBDB1170A7
:10A5700031000132F7E7C04698840200F0B50400CC
:10A5800087B004A80E001D000192FFF727FD236885
:10A5900001995A88914233DA9B889D4230DA1F2E06
:10A5A0002ED9059B00939E422ADC0523002173438C
:10A5B000049AA03BD3180393039B6E185B5C029331
:10A5C0000023019AD718226850880090B8420EDD07
:10A5D0009088B0420BDD0098D219704312181020F9
:10A5E0001841029F3840471EB841404290710133E4
:10A5F000052BE6D101310529DED1002007B0F0BDE1
:10A600000048FBE717FCFFFFF7B5036806009F1D36
:10A610005B880D005A1A0192002919DD0024994225
:10A6200003DB0AF08BFB002013E033689B889C421D
:10A63000F9DA79193800019A08F0FCFE019B29002B
:10A64000F8180AF05EFB336801345B88FF18ECE70A
:10A650000048FEBD17FCFFFF10B50548054C206003
:10A660000AF04EFC2000044A04490DF0D7FB10BD4F
:10A6700098840200A829002000200020F54C020048
:10A6800010B5054C012120000AF022FC2000034AED
:10A6900003490DF0C3FB10BDAC29002000200020B1
:10A6A0007D4E0200074A030010B50120934208D0F6
:10A6B000834202D00020DB0703D41E20FFF7B8F846
:10A6C000002010BDFFFF00000048704716FCFFFF90
:10A6D00010B53220FFF7ACF8004810BD16FCFFFFA4
:10A6E00082801422002310B541620F4C010008340F
:10A6F00004600E240281123A83718272036383869E
:10A7000036310A78C360A243036143618361C36148
:10A7100003620A70021DD38701224287034AC26383
:10A7200002004032137010BDB88402000100010025
:10A73000F0B5564E0500376897B0002F00D090E076
:10A7400006AC0B231C228221200001F0F9F90B2317
:10A750001D2283210AA801F0F3F90B231B22842177
:10A760000EA801F0EDF908200DF063FB01223B007B
:10A77000110004900BF0A3FF3A2128000BF0BEFC5F
:10A7800000281CD0A38812AFBB80A379A268BB713C
:10A790003F4B5C2012930E23E3561492A289BB73A5
:10A7A000BA810DF046FB05230193353300933A003F
:10A7B0002900049B040002F025F9346051E03221A5
:10A7C00028000BF0C9FC00281BD0A38812AFBB8067
:10A7D000A379A268BB712E4B5C2012930E23E35623
:10A7E0001492A289BB73BA810DF023FB0523019358
:10A7F0002D3300933A002900049B040002F0A6FACE
:10A80000DBE73C2128000BF062FC002834D0362224
:10A8100002AB9B8E12AFBB8002AB9B181B78083239
:10A82000BB711B4BA420129302AB9B18109A1B7890
:10A830001492059202AA928F5BB2BA81BB730DF09B
:10A84000F8FA062304000293013B01933733009387
:10A850003A00049B290001F0F5FF0E4B34604434AC
:10A860001C600C4B094C1868002802D021680AF0C3
:10A87000ACFC206817B0F0BD44200DF0DAFA0522D8
:10A8800004990400FFF72CFF97E7C046B029002089
:10A89000A8840200B4290020F0B56349C56885B0DA
:10A8A0008D4258DA030036331C780222230013400D
:10A8B00014425BD1026901928A4265DA02003632A3
:10A8C000127852076AD4426902920200029C403216
:10A8D0008C4270DA010036310978090775D4002BF3
:10A8E0007ED113789C46002B16D00100061DF38FF5
:10A8F000363101339BB2F3870391097801270C00AD
:10A900003C40394200D188E01D2B05D9039BB94357
:10A9100019700023F38713700AF037FB434A0723AB
:10A92000904277D94249043B8D4273DBC822013300
:10A93000920095426EDC0198023B88426ADB013B43
:10A94000904267DC02980433884263DB0023904224
:10A9500060DD06335EE0C822002352009542A9DD87
:10A96000030036331A7800239207A3D4012306008C
:10A970001F00363632785408A7433C0002279C401B
:10A98000BA432243327095E7C822019C5200944298
:10A9900099DD020036321278520794D40123060062
:10A9A0001C00363632789708BC43A7000424A24323
:10A9B0003A43327087E7C821029C49008C428EDD01
:10A9C000010036310978090789D4010001263631A2
:10A9D0000B78DF08BE430827F600BB4333430B70F8
:10A9E0001378032B00D97CE70133DBB21370012B02
:10A9F00003D10021031DD98773E7042B00D070E732
:10AA0000020036321178033B0B43137000230430ED
:10AA1000C3870B33180005B0F0BD092B00D87BE7C6
:10AA20006346F487013B76E770FEFFFFFF7002008C
:10AA3000E0FCFFFFF0B5C369C1681A68451D04005A
:10AA4000EB7F89B0114225D0002B57D10123A27989
:10AA50001A4237D0002602226846A188A6710AF061
:10AA600026F9A31DDD7F012D2CD1FFF7DBFB330081
:10AA7000226A801A99410F000600A1889F4203D1E3
:10AA8000FA239B009E423BD30123042204A80AF030
:10AA90000EF917E00B2B01D80133EB77EB7F082B76
:10AAA0000DD90122A37913420CD11343A188A371BC
:10AAB00004A813000AF0FBF8FFF7B4FB2062EB7F59
:10AAC000012BC3D90322A3791340012B14D1FFF723
:10AAD000A9FB0023226A801A9941994202D10A4BAC
:10AAE000984209D90223A279A1881343A3710522B0
:10AAF000012304A80AF0DBF809B0F0BD013BCCE764
:10AB00002B000322C2E7C046DB05000010B504009D
:10AB1000034B08330360FFF7BBFB200010BDC046AA
:10AB2000EC840200F0B5060000250F00040085B09B
:10AB300002930AAB1B78083603930F4B29000833A6
:10AB400003600192858085711822300008F01AFD9B
:10AB500039003000039A0CF0ADFF019B029AA380EC
:10AB6000A31DE771DA77631D25622000DD77FFF70B
:10AB700071FB200005B0F0BDEC8402000048704776
:10AB800016FCFFFF10B53320FEF752FE004810BD43
:10AB900016FCFFFF002310B50400838083710D486D
:10ABA0002164083020608020C000A061E061206244
:10ABB00011002000E360236163616362A362E362CA
:10ABC00023636363A363E36363640AF0D6FA20003C
:10ABD00010BDC04604850200F0B5544E050037682C
:10ABE00097B0002F3DD10B231C22822106A80AAC6E
:10ABF00000F0A6FF0B231D228321200000F0A0FF00
:10AC00000B231B2284210EA800F09AFF08200DF0D0
:10AC100010F901223B00110004900BF050FD1D21A2
:10AC200028000BF082FA002824D0A38812AFBB8042
:10AC3000A379A268BB713E4B602012930E23E356AA
:10AC40001492A289BB73BA810DF0F3F80623019325
:10AC5000173300933A002900049B040001F0A6FF7B
:10AC60003460344B314A1B681068002B00D04364B9
:10AC700017B0F0BD3C2128000BF085FA00281BD04E
:10AC8000A38812AFBB80A379A268BB71284B602058
:10AC900012930E23E3561492A289BB73BA810DF06E
:10ACA000C8F806230193363300933A002900049B29
:10ACB000040002F0EDF8D3E73C2128000BF007FA7E
:10ACC000002829D0362202AB9B8E12AFBB8002AB8C
:10ACD0009B181B780832BB71154BA420129302AB52
:10ACE0009B18109A1B781492059202AA928F5BB25D
:10ACF000BA81BB730DF09DF8062304000293013B5B
:10AD00000193373300933A00049B290001F09AFD28
:10AD1000084B1C604434A3E748200DF08AF8062253
:10AD200004990400FFF736FF9AE7C046B4290020D3
:10AD3000A8840200B0290020F0B587B001930EABC3
:10AD40001B88060003930D9B0D000093019B0C9F35
:10AD50000292002B3DD0002F02D1009BDB0738D59B
:10AD600030200DF066F80400103009F096FF200046
:10AD7000243009F02AFE029B1820258063800DF004
:10AD800058F80500009B08220593019B00210360F1
:10AD90000C30049708F0F6FB082204A9281D08F0DF
:10ADA00049FB0D4B02226B6100230399E360236290
:10ADB000E36233680A43300021005B68A560A2802B
:10ADC0009847002805D0200009F08CFE20000DF0E7
:10ADD0002CF807B0F0BDC0460F52020070B58CB021
:10ADE0008360109B01604260C36004001849180032
:10ADF0000BF003F9051E14D001001C22103105A828
:10AE000008F018FB6A4608AB43CB43C21B681360CB
:10AE100020680599069A079B0AF0C1F928000DF0F1
:10AE200004F80C4B186800280ED00B4A05AB0592AD
:10AE300000220692C03202926A4622CB22C223002E
:10AE400003220621FFF778FF20000CB070BDC0463A
:10AE500073960200A42900205DAE010082B0F0B517
:10AE60000400EDB06420739372920CF0BAFE0522D8
:10AE700010A8110009F06BFF954911A8FFF72EFBF0
:10AE80001925002221AB013D1A605A609A600C33EB
:10AE9000002DF8D11522290014A8139508F072FB93
:10AEA000A0680AF022FDFF210A90A06800F01EFCB5
:10AEB000884FA06800F0BEFA049508950995854B67
:10AEC0009F4203D0844B9F4200DBF7E0A0680AF06A
:10AED0000EFDA56881491AA8FFF7E8F978221AA99A
:10AEE000280000F049FB1AA809F048FE0023794F1A
:10AEF00004930326099B60680133334009930AF0E9
:10AF0000DCF8050060680AF0DFF80022744B059257
:10AF10009D420FDB013205922A00C8320ADBAA22C9
:10AF2000042192000591954204DC0596C82D01DCB0
:10AF30000222059200220692984210DB012306931A
:10AF40000300C8330BDBAA2304329B00069298420D
:10AF500005DC03230693C82801DC013B069310A8F7
:10AF600009F0ECFE5F4B00251E00079313ABEB5C72
:10AF7000012B05D172783178FE3310A8FFF742FA21
:10AF800001350236192DF1D16B4618229A5E6B46B7
:10AF900010A81421595E099BFFF734FA002F02DB39
:10AFA000049B0F2B07D90023A0681A00743000936C
:10AFB00010A909F0D9FE13AE079B059A1B7893429E
:10AFC00021D1079B069A5B7893421CD13378012BE1
:10AFD00019D00C23089A0CAD534328000022216895
:10AFE0000B930AF0F4F821AA94460B9B634407CD17
:10AFF00007C301233370089B0133DBB20893049B22
:10B000000133DBB20493079B374A023307930136BF
:10B010009342D1D164200CF0E4FD089B643F3FB221
:10B02000182B00D84BE71A0021A91AA80AF0DEFA5B
:10B030006A461DAB23CB23C21B6813601A991B9A67
:10B040001C9B20680AF0ABF8E568002D0CD027495E
:10B0500012A8FFF72BF91C2328001AAA12A90BF03B
:10B0600001F812A809F08AFDA0680AF040FC11A9B5
:10B0700012A8A56809F04BFE00221D4B009212A9F0
:10B0800001932800130000F019FA12A809F032FE0B
:10B09000FA2080000CF0A5FDA0680AF028FC0A99AF
:10B0A000A06800F023FB11A809F024FE10A809F005
:10B0B00021FE6DB0F0BC08BC02B01847002F03D0D1
:10B0C000049B0F2B00D014E7A06800F0B3F910E741
:10B0D0007E9602008C3C0000D18AFFFFC3960200DE
:10B0E00058FDFFFFD89602000A97020073960200EF
:10B0F000DC050000F0B5040085B0637A9C46002BA7
:10B1000004D120000AF090FA05B0F0BDA37A266FB2
:10B1100001931023019AF35600259B1801229A40AF
:10B120002900F36803920293029BAB4231DDB068C1
:10B13000019B6843C01873694000E77A1A181B5CCA
:10B140005078E279012F14D1571E3F1A18003B00A6
:10B150004243606F52008218D2189379634500DD34
:10B160006346627B1A4202D00123AB40194301358A
:10B17000DAE7022F07D0032FEAD1277A013FFF1A1F
:10B1800003003800E4E7571EFB1A277A013F381AFC
:10B19000DEE71123C943F356606C994023691940D7
:10B1A000039B19430CF0DDFDA27B072AACD8637B1F
:10B1B0000C495B006373531CDBB290004158A373CE
:10B1C000022A03D808000CF001FD96E7064B200088
:10B1D000236300236363054BE462236414300CF0A3
:10B1E000C8FB91E730850200F5B00100135602005C
:10B1F00070B50400104B250008330360FFF748F8D2
:10B200002000743009F076FD2000603009F072FDF6
:10B210002000583009F0B2FC2000503009F0AEFC9C
:10B22000064B1435280063610CF092FB280005F0F2
:10B2300069FF200070BDC046508502008C8C020062
:10B24000F8B500250400324B858008330360857112
:10B25000143016000F0005F03FFF20002D4BE56273
:10B26000636125645030FFF78BF820005830FFF7FA
:10B2700087F820006030FFF7B1F820000423F25E69
:10B2800033682667590009B2743009F060FD3368ED
:10B29000226FE37173680126237210236581A780F2
:10B2A0002561D35691685918994204DD30009840C1
:10B2B00001330543F8E711230120D356D16859180B
:10B2C000994206DD02009A40266901333243226129
:10B2D000F6E714200CF0ADFD226900212A4301237A
:10B2E000060006F085F9FF23220063720133A38173
:10B2F000002348326664A37320001370A366FEF730
:10B30000A9FF0123A27920001343A371F8BDC04611
:10B3100050850200A08C0200F0B5437A040085B08D
:10B32000002B04D120000AF07FF905B0F0BD837A2C
:10B33000066F01931023019AF35600259B180122F2
:10B3400094469A402900F36803920293029BAB4211
:10B350002DDDB068019B6843C01873694000E77A2F
:10B360001A181B5C5078E279012F10D1571E3F1A32
:10B3700018003B004243606F52008218D218937944
:10B38000002B02D06346AB4019430135DEE7022FA4
:10B3900007D0032FEED1277A013FFF1A03003800B0
:10B3A000E8E7571EFB1A277A013F381AE2E7112314
:10B3B000C943F356606C994023691940039B1943B4
:10B3C0000CF0CFFC667AB31EDBB2FC2B14D8FEF770
:10B3D000EFFE0C4B0500236300230B4863630B4B0C
:10B3E000FF217043E462236406F0F4FD2900414329
:10B3F000200014300CF0BDFA637A012B00D994E7D9
:10B4000090E7C04629560200B6030000135602001A
:10B410001FB5012381881A00684609F048FC012302
:10B4200068461A00024909F042FC05B000BDC0465A
:10B43000FE0300001FB5030048331A780400002AF9
:10B440000DD000221A70012381881A00684609F085
:10B450002EFC012368461A00034909F028FC20004D
:10B46000743009F06BFC1FBDFF03000010B5040031
:10B47000230048331A78002A07D01B78012B04D008
:10B480000121024809F07FFAF2E710BDFF03000036
:10B4900010B501210400072009F075FA064B984207
:10B4A00008D148342378002B04D02378012B01D015
:10B4B00020BFF7E710BDC04616FCFFFF73B5079C21
:10B4C0000500002C1CDB060048363078002802D02E
:10B4D0003078012816D106981BB2C0B2009028001F
:10B4E00012B2743009F040FC002C07D02B004A3314
:10B4F0001C80002407234C352C803370200076BD3F
:10B50000014CFBE7014CF9E717FCFFFF12FCFFFFC2
:10B51000F0B587B00D9C05000E0017000393002CBA
:10B5200021DBFFF7A3FF2B0048331B78DAB202922E
:10B53000002B1AD1310005A809F0E9FB0C9B3A0059
:10B5400000932800039B019405A9FFF7B7FF05A806
:10B5500009F0D0FB002C03D02800FFF799FF029CD4
:10B56000200007B0F0BD024CFAE7024CF8E7C046F5
:10B5700017FCFFFF11FCFFFFF8B50400171E1DDDCF
:10B58000060048363378002B02D03378012B17D1D0
:10B590002200E3795632013B13702300002520007E
:10B5A00054331D80503009F046FB23004A331F807E
:10B5B000022328004C3425803370F8BD0148FCE795
:10B5C0000148FAE717FCFFFF12FCFFFFF7B5040084
:10B5D0000F00161E18DDFFF749FF230048331B78C4
:10B5E000DDB2002B12D1390001A809F01CFB32009A
:10B5F00001A92000FFF7C0FF01A809F0BFFA200051
:10B60000FFF746FF2800FEBD0148FCE70148FAE7C6
:10B6100017FCFFFF11FCFFFFF8B50400171E2DDD1E
:10B62000060048363278002A02D03278012A27D123
:10B630005D42069BFF331FD16B1D22001BB264329B
:10B6400013802300200066331D70603009F067FB13
:10B65000230000226C331A70954200D03D00230075
:10B660004A331D80079B00205A1E9341013F4C34F2
:10B67000053327803370F8BD069BDEE70148FAE703
:10B680000148F8E717FCFFFF12FCFFFFF0B50400CC
:10B690000F0016001D0087B0002A1FDDFFF7E6FE31
:10B6A000230048331B78DAB20392002B18D13900FB
:10B6B00005A809F02CFB0D9B320001930C9B05A9FA
:10B6C000009320002B00FFF7A7FF05A809F012FB4D
:10B6D0002000FFF7DDFE039807B0F0BD0148FBE74F
:10B6E0000148F9E717FCFFFF11FCFFFFFF2902D813
:10B6F0004172002070470148FCE7C04617FCFFFF7D
:10B7000013B5040004A80078009020000CF095F810
:10B71000002801D1207516BD0048FCE70EFCFFFF94
:10B7200013B5040004A80078009020000CF06DF818
:10B73000002801D1207516BD0048FCE70EFCFFFF74
:10B740007FB50D0011000F226A4404001E1E117007
:10B7500015D0089B002B12DD012329000093FFF771
:10B76000DFFF002808D10090320029002000089B4C
:10B77000FFF7C6FF002800D0024804B070BD0248A1
:10B78000FBE7C0460EFCFFFF17FCFFFFF7B5060006
:10B790000D1E3ED00023022704690193002C34D0F3
:10B7A000AA88A38853403B422DD13A4222D1A368B4
:10B7B000AA68934227D12B88002B02D022889A4274
:10B7C00021D16B88002B02D062889A421BD1EB6892
:10B7D000E268934201D0002B15D17368002B01D091
:10B7E00020009847A2880C4B1343A380019B013390
:10B7F000019308E0A968A0680AF047FF0028DAD1A1
:10B80000AB883B42D3D0E46AC8E7019B2000002B01
:10B8100000DC0248FEBDC0460080FFFF17FCFFFFB2
:10B82000F0B506000D0085B000295DD00127046940
:10B83000002C27D00221AA8800230A4202D0A38824
:10B840005B083B40226829688A4215D1A068A96834
:10B85000002B0FD00AF019FF00280DD0EB68E2682A
:10B86000934209D10421625EA388002A06DB1F48A7
:10B8700005B0F0BD8842F1D0E46AD9E75B045B0C07
:10B88000A380F4E730692A880100031E07D13561DF
:10B8900001236846164909F00AFA0020E8E71C88E7
:10B8A000944206D2DC6A1900002C0DD02300F6E782
:10B8B00023001C88944207D15F886C88A74203D874
:10B8C000DC6A1900002CF3D1884209D10B889A4216
:10B8D00004D305D148886B88984201D9E962D6E73C
:10B8E000CB6AEB62CD62D3E70248C1E716FCFFFFEB
:10B8F000FD03000017FCFFFF064B10B51A00040003
:10B9000008322C33026083600830FEF727FA2000EB
:10B9100010BDC0466885020008B4024B9C4608383A
:10B9200008BC6047F9B8010008B4024B9C460838CF
:10B9300008BC6047655A02000C4A002311002C32F3
:10B94000083110B543608381837382600361436172
:10B9500083618383016004000830FEF7F1F9044B32
:10B960001A68002A00D11C60200010BD6885020002
:10B97000A429002082B0F7B50125402609930CAB1D
:10B980001B78046908920193002C38D008AA2388F8
:10B9900012889A4201D0002B29D108AA63885288C4
:10B9A0009A4201D0002B22D1FEF72EF90123002864
:10B9B00006D0C022A3881340C03B5A425341DBB299
:10B9C000019A934219D10422A35EA788002B14DBAD
:10B9D000102208A9A01807F02DFD374209D1FEF763
:10B9E00013F9002805D021000748FEF7AFFAE46AF2
:10B9F000CAE720000AF03FF8F9E70025F7E728003A
:10BA0000FEBC08BC02B01847775A020008B4024BCB
:10BA10009C46083808BC6047135C020010B5024819
:10BA200009F03BF910BDC046C8200020F0B587B032
:10BA300001930EAB1B88060003930D9B0D00009332
:10BA4000019B0C9F0292002B3DD0002F02D1009B46
:10BA5000DB0738D530200CF0ECF90400103009F089
:10BA60001CF92000243008F0B0FF029B182025802C
:10BA700063800CF0DEF90500009B08220593019B12
:10BA8000002103600C30049707F07CFD082204A914
:10BA9000281D07F0CFFC0D4B02226B610023039998
:10BAA000E3602362E36233680A43300021005B688D
:10BAB000A560A2809847002805D0200009F012F860
:10BAC00020000CF0B2F907B0F0BDC046615C020086
:10BAD000F0B5160000258380164A174B04008571C7
:10BAE000026001814681057318688C4689B0A842BE
:10BAF0001DD0124A05950492C02202926A4604ABF8
:10BB000082CB82C223002A006146FFF78FFFC0224A
:10BB1000094B0A49186802926A46069106AB0795D6
:10BB200082CB82C223002A003100FFF77FFF200072
:10BB300009B0F0BDAC850200A42900208B5D020095
:10BB400030B5002403730123034D847105608180A7
:10BB500082734373846030BDA884020070B583791A
:10BB60000400DB0704D58068002801D00CF05DF9E3
:10BB7000A3799B0704D5A068002801D00CF055F9E3
:10BB8000A3795B0709D5A0230021154AA068DB0033
:10BB9000D150884201D00CF048F9A3791B0708D591
:10BBA000A568002D05D028000AF0DFFD28000CF064
:10BBB0003CF9A379DB0605D5A068002802D003680C
:10BBC000DB6898476023A2791A4205D0A068002854
:10BBD00002D003685B6898470023A360A37170BD1F
:10BBE00000700040F7B50227037B04000D003B42C4
:10BBF00028D0012928D883791A003A4001923B4283
:10BC000014D1FFF7ABFF18200CF013F90E23060038
:10BC1000E35618220199009307F0B4FC3000009914
:10BC20000BF052FFA379A6603B43A371A3685A6847
:10BC3000002D04D00025DB681A602800FEBD1B69BA
:10BC40001A60FAE7014DF8E7014DF6E716FCFFFF31
:10BC500017FCFFFFF7B50126037B040033422CD00D
:10BC6000827961231100194001911A4216D1FFF720
:10BC700075FF18200CF0DDF80E230500E356677BF6
:10BC800018220199009307F07DFC3A0028000099E2
:10BC90000BF010FFA379A5603343A3716023A27951
:10BCA000A0681A4202D00BF0E9FDFEBD436940686E
:10BCB0001B681840431E9841F7E70148F5E7C04666
:10BCC00016FCFFFF012210B583794173134204D0A3
:10BCD00080680BF08DFF002010BD6022134203D05E
:10BCE00080680BF0D2FDF6E70048F5E716FCFFFF91
:10BCF00070B5040000250C4B0E000833858085715B
:10BD00000360210018300AF0F1F8200021002030F3
:10BD10000AF017F9054B2000A680E5802572E56042
:10BD2000256165611C6070BDBC850200B8290020DA
:10BD30008379DB0702D5C160002070470048FCE72B
:10BD400016FCFFFF8379DB0701D5C0687047014807
:10BD5000FCE7C04616FCFFFF70B545690400002DE6
:10BD600022D0037A032B21D8FFF7ECFFE8623020C2
:10BD70000CF05FF830220021050007F003FC0022E0
:10BD800063699A622369934207D163692361002042
:10BD9000237A65610133237270BD1A009B6A002B00
:10BDA000FBD163699362F2E70148F5E70148F3E7E5
:10BDB00017FCFFFF13FCFFFF144B70B55A68144CBF
:10BDC000002A03D000225A600132A2601A69002AB8
:10BDD00017D0002119618023DB000E4DE35828683D
:10BDE000012B0FD1A923DB00E1584942FFF7A0FF47
:10BDF0002868FFF7B1FF2B685A69074BE25001230F
:10BE0000A36070BDFFF794FFF9E7C046FC10004047
:10BE100000100040B82900200405000070B505009E
:10BE20000C0008F043FD002804D1034A034BEC71D9
:10BE3000D45070BD0248FCE700100040240500000B
:10BE400016FCFFFFF8B5837905000020DB0765D4F9
:10BE500008F02CFD002862D16E69002E08D1303028
:10BE60000BF0E7FF04003022310007F08BFB6C6120
:10BE700000222C4B01215A608022D20511605A68A1
:10BE8000002AFCD00622284B284C9A56284B002624
:10BE9000E2500722043BE2500833E650254A264B85
:10BEA0002800E250E979FFF7B9FF01220821234B6E
:10BEB0002348E6500433E250224B234FE150043331
:10BEC000E05002232148235021482750214F0438B5
:10BED00027501827204827506F6920482750C12035
:10BEE000800021501E498538FF380B500B6080219F
:10BEF000890060580E33034363501A4B5E606260E2
:10BF00005A68002AFCD0002601271E612800A7607D
:10BF1000FDF716FF3000AB791F43AF71F8BD124833
:10BF2000FCE7C046FC0000409C9802000010004066
:10BF30000C050000746962751C0500002C050000EA
:10BF40002300040214050000FFFF00003405000078
:10BF50003C0500002110010054050000040500000C
:10BF600000E100E0FC10004016FCFFFF0300006948
:10BF7000002809D00221054AD167826A1A611A7A1B
:10BF8000013A1A72024B19607047C04604E100E0A2
:10BF900000E100E070B505000C0008F087FC002807
:10BFA0003AD1002C3AD02378262B37D8022201210F
:10BFB0001B4BDA671B4A1C4B5861116159690029F8
:10BFC000FCD0002019495450586001301060586866
:10BFD0000028FCD00020186101309060186900280A
:10BFE000FCD06869505000215961013111615969D3
:10BFF0000029FCD0002159600131516059680029A5
:10C00000FCD0002018610123C02193600222084B5C
:10C0100049005A501A6070BD0648FCE70648FAE726
:10C0200004E100E000100040FC10004004050000A6
:10C0300000E100E016FCFFFF17FCFFFF37B54C687E
:10C040000500002C04D10C4908F01FFF28003EBD5C
:10C05000A36A01A84B602278E36A033A211D08F025
:10C0600040FF20000BF0E1FE280001A908F00DFFC1
:10C0700001A808F003FFE9E7AC29002010B504008F
:10C080008CB0002911D0262A0FD86846D31C037023
:10C0900001234370FF33438001A807F0CBF96946C1
:10C0A0002068FFF777FF0CB010BD0148FBE7C046E2
:10C0B00017FCFFFF10B5002903DB024B19600BF0E2
:10C0C00029FC10BDBC29002070B504001D0004AB84
:10C0D0001E7804F0BDFF20000E4B40302360FEF7B9
:10C0E0004FF92300220001354C331D700023E1215C
:10C0F0005832013616700A3AA36463651380538080
:10C100009381D381013B200063644902FFF7D2FF92
:10C11000200070BD58840200F7B580277F053E6976
:10C120007C690822113C744305002100684607F031
:10C1300081F9104B009A9A4219D000930023019381
:10C14000796928001339714309F012FF019A280018
:10C15000009909F025FF2100280009F009FF7969FD
:10C160002200133928007143B30809F00BFF01982E
:10C17000FEBDC046FECA0000F0B50D00ABB0002108
:10C180000D920700302212A81E0007F0FBF92800CC
:10C1900007F062FC431C0C93102B00D9B8E0202E52
:10C1A00000D9B5E02900380009F027FF0B900028DE
:10C1B00054D129000C9A12A807F03CF932000D99CD
:10C1C00016A807F037F980235B051A695D690B92A1
:10C1D000113D6A4338005E690D92FFF79DFF0D9B8C
:10C1E00030220833002104001EA80F9307F0CAF97B
:10C1F00031000B9B13395943380009F0B9FE002375
:10C200000F9E0C930E930C9BA34246DA3100302212
:10C210001EA807F00FF912A91EA807F0D9FB0028E5
:10C220002BD13D49380022001091119409F0B8FE3D
:10C230006A46099615AB23CB23C223CB23C223CB5B
:10C2400023C23800149B1299139A09F0B7FE0123F8
:10C250000E930C9B303601330C93D4E70B983200CD
:10C260000D99103007F0C2F804000B980BF0DDFDBB
:10C27000002C9ED120002BB0F0BD6A46099621AB60
:10C2800023CB23C223CB23C223CB23C238001E9946
:10C290001F9A209B09F092FEDBE7E6433021F61758
:10C2A00026404E430F9B9E190E9B002B1CD10B9BCF
:10C2B000981E05F005FEA0422CD017490134380025
:10C2C00022001091119409F06BFE6A46099615AB95
:10C2D00023CB23C223CB23C223CB23C23800129902
:10C2E000139A149B09F06AFE38000D9909F040FE7C
:10C2F00080235B0559690C230B9A133963434A4326
:10C300003800110002330D9A09F03CFE0024B1E719
:10C31000024CAFE7024CADE7FECA000017FCFFFF7E
:10C3200013FCFFFF8023F0B55B051A6995B00292FC
:10C330005A6905910299113A51435C69029B133C79
:10C3400005005C430391FFF7E7FE061E3CD0302258
:10C350000021083408A8039F07F014F921002800E1
:10C3600009F006FE0023083701930493019BB342B2
:10C3700020DA3900302208A807F05CF8059908A8EF
:10C3800007F026FB00280DD11B49721E28000691DC
:10C39000079209F005FE01230493019B3037013316
:10C3A0000193E3E722000C233900280009F0EAFD9D
:10C3B0003034F2E7049B002B08D10F4932002800EB
:10C3C0000691079609F0ECFD0C4812E0280003994D
:10C3D00009F0CEFD80235B0559690C23029A1339BD
:10C3E0004A43734311002800039A023309F0CAFD3F
:10C3F000002015B0F0BDC046FECA00000CFCFFFFD7
:10C4000070B50400A280FA22002308000C499200B3
:10C4100008312160A3710B496061E260A36063820F
:10C4200009F0EBFD051E09D00100200002221031A9
:10C43000123006F0FFFF28000BF0F7FC200070BD63
:10C44000D48502000A97020030B5022583790400E2
:10C4500087B02B4204D1FDF773FCA3791D43A5716E
:10C46000200009F010FE00281CD06B46DD1C2800BF
:10C4700009F000FE2B78002B17D001A809F0F8FD79
:10C480000321019AD3170B409B189B102382FDF7C1
:10C49000C9FEE368A18818180123A0601A0002A849
:10C4A00008F005FC002007B030BD0122064B1A60E1
:10C4B000064A51680029FCD000215160044A1268E4
:10C4C000019201225A60DBE700C00040FCC000403E
:10C4D00008C50040022802D10122014B1A707047A2
:10C4E000432E002070B5064D04002B78002B04D19C
:10C4F000044801F087FF01232B70200070BDC04667
:10C50000442E0020D5C4010070B50C0008F0CEF90F
:10C51000002810D00023134DA40A2B70200009F02E
:10C52000C6FD002803D00A200BF05BFBF6E72B7852
:10C53000002BFCD070BD02210B4B0C4A995080217E
:10C54000C90058580028FCD0A120C0001C505858E1
:10C550000028FCD0002199508021C9005A58002A97
:10C56000FCD0E7E7432E002000E001400405000076
:10C57000F8B50D0016001F0008F098F9002811D03A
:10C580000023184C23703A003100280009F08DFD7B
:10C59000002803D00A200BF024FBF4E72378002BBB
:10C5A000FCD0F8BD012380220F4C1049D20063500B
:10C5B000A358002BFCD08022D200002394469F4237
:10C5C00008DD980032582A506246A0580028FBD057
:10C5D0000133F4E7002363506346E358002BFBD09C
:10C5E000DFE7C046432E002000E0014004050000C4
:10C5F00008B4024B9C46443808BC6047B360020054
:10C60000FA21F8B50389C9000400594332480AF0F9
:10C6100051F8FA21890005F053FC304FA17A2081AE
:10C6200038000AF047F823002600250022894C3301
:10C63000A072A0361A808C3500232A22317828680F
:10C6400009F062F9002844D11F235B223178286861
:10C6500009F05AF900283CD120235C22317828685F
:10C6600009F052F9002834D101232C2231782868AE
:10C6700009F04AF900282CD101232D2231782868AD
:10C6800009F042F9002824D101232E2231782868AC
:10C6900009F03AF900281CD1A17A38000AF005F80F
:10C6A0000E22C3B23178286809F02EF9002810D183
:10C6B000FA21238989005943074809F0F6FF01232D
:10C6C00003432A2231782868DBB209F01DF90028DB
:10C6D00000D00348F8BDC046F4850200EC85020096
:10C6E0000EFCFFFF08B4024B9C46443808BC604770
:10C6F00001C60100074B10B51A00040008323C3394
:10C7000002604364443008F006FD200008F036FC67
:10C71000200010BD5486020008B4024B9C464438E9
:10C7200008BC6047F5C6010008B4024B9C4644387B
:10C7300008BC6047BD600200F0B5042583790400A1
:10C740008BB02B4204D1FDF7FBFAA3791D43A571F1
:10C7500020009030FFF77EFA0026B0420FD1230070
:10C76000A033197820000C2307AD00938C302B00E8
:10C7700001220068FEF7E4FF061E03D02C4E3000B5
:10C780000BB0F0BD0A2304AA9B182A785A706A7865
:10C790001A700022985EAA785A70EA781A700022FD
:10C7A000995E03912A795A706A791A7000229F5E05
:10C7B000AA795A70EA791A7000215A5E04922A7A8C
:10C7C0005A706A7A1A7000215A5E0592AA7A5A70D3
:10C7D000EA7A1F251A7000229B5EA27A03999C4672
:10C7E000514349425043CB172B405B185B11A36167
:10C7F000C3172B40181864235743FA171540ED1937
:10C800006A112262059A5B425343A367642361461F
:10C81000049A40115A434B43E267221DE061200015
:10C82000D36708F01DFC2000443008F07BFCA6E72D
:10C830000EFCFFFF08B4024B9C46443808BC60471E
:10C8400039C70100F7B51E00040008AB1B881500AE
:10C85000019309AB1A8800910AAB31001F88FDF7DC
:10C860003FFF20003A0031004430FEF793F9134BAC
:10C8700020001A003C336364230008322260009ACF
:10C880008C331A60AB8890308380AB7983710C4B0A
:10C89000AA6803600E23EB5682602200A9899C32AD
:10C8A000118083732300019AA03303211A80FFF7BC
:10C8B00009FA2000FFF7A4FE2000FEBD5486020006
:10C8C000A8840200F8B5FA260189B6000400714375
:10C8D000254809F0EFFE310005F0F2FA234FA17A66
:10C8E0002081380009F0E6FE2500A07258350023AB
:10C8F0002A222978606C09F007F8002832D1102329
:10C900002B222978606C08F0FFFF00282AD1012330
:10C910002D222978606C08F0F7FF002822D101232E
:10C920002E222978606C08F0EFFF00281AD1A17A36
:10C93000380009F0BAFE0E22C3B22978606C08F004
:10C94000E3FF00280ED121890748714309F0ADFEAD
:10C95000012303432A222978606CDBB208F0D4FF5C
:10C96000002800D00248F8BDBC860200B486020050
:10C970000EFCFFFF10B50400034B0833036008F002
:10C98000FDFA200010BDC0461C8702007FB50425BB
:10C99000837904002B4204D1FDF7D2F9A3791D431A
:10C9A000A57120004830FFF755F90025A8420DD1A8
:10C9B000230058331978062302AE00930122330076
:10C9C000606CFEF7BDFE051E03D00D4D280004B0BF
:10C9D00070BD002104200222A37A30567156B2564F
:10C9E00059435A434343DB002362D2002368524237
:10C9F000C90020009B6AA261E1619847E6E7C04652
:10CA00000EFCFFFFF8B504000F00190006AB1E88EE
:10CA100007AB15001A88FDF763FE0F4B67640833F8
:10CA200023602300AA8848339A80AA799A710B4A16
:10CA3000A968A2640E22AA5621652100A889543152
:10CA400008809A730023A371230058331E802000AE
:10CA5000FFF738FF2000F8BD1C870200A884020001
:10CA600010B50400034B0833036008F054FB2000AA
:10CA700010BDC046B0870200F0B507005C37002348
:10CA8000040010223978806C87B008F03DFF214DFA
:10CA900003002800002B3BD10F2602ABF618012320
:10CAA000397808220093A06C3300FEF749FEA842B3
:10CAB0002DD003223378134203D06420FDF7DEF932
:10CAC000EAE7FA262189144DB6007143280009F0DF
:10CAD000F1FD310005F0F4F92081A023112239780D
:10CAE000A06C08F011FF002811D1A36C21890393D9
:10CAF000714328003F7809F0D8FD01231843C3B2E1
:10CB000010223900039808F0FFFE002800D00148E9
:10CB100007B0F0BD0EFCFFFF5087020070B508257E
:10CB20008379040086B02B4204D1FDF709F9A3797B
:10CB30001D43A57120004C30FFF78CF8051E0DD069
:10CB400023005C331978062304AE009301223300DE
:10CB5000A06CFEF7F5FD051E03D0134D280006B0AE
:10CB600070BD0E2332786B445A70727820001A70B0
:10CB70000022995E64224A43A263B2785A70F27826
:10CB80001A700022995E64225242514361633179E6
:10CB900059707179197000215B5E5A432368E26312
:10CBA0001B6A9847DAE7C0460EFCFFFFF8B50400A1
:10CBB0000F00190006AB1E8807AB15001A88FDF799
:10CBC000E9FF0D4BA764083323602300AA884C3388
:10CBD0009A80AA799A71094AA968E2640E22AA5633
:10CBE00061652100A889583108801E8220009A734F
:10CBF000FFF742FF2000F8BDB0870200A8840200C2
:10CC0000F0B5FA250189234FAD0085B004006943D2
:10CC1000380009F04FFD290005F052F91E4EA17AA7
:10CC20002081300009F046FD636CA072029323005E
:10CC30005833218901931B7869433800039309F025
:10CC400034FD07230343202203990298DBB208F046
:10CC50005BFE00281AD1019B22221978606C1023F8
:10CC600008F052FE002811D1019BA17A30001F78F4
:10CC7000656C09F01AFD80235B42034323223900CF
:10CC80002800DBB208F040FE002800D0034805B0C1
:10CC9000F0BDC046E4870200DC8702000EFCFFFF07
:10CCA00010B50400034B0833036008F067F9200057
:10CCB00010BDC04654880200F0B5042583790400F5
:10CCC00085B02B4204D1FDF73BF8A3791D43A57134
:10CCD00020004830FEF7BEFF051E0DD0230058335C
:10CCE0001978062302AE0093A8223300606CFEF789
:10CCF00027FD051E03D0144D280005B0F0BD1F20F0
:10CD00000023F25ED31703409B180222B15E5B1131
:10CD1000CA17024052180421775E3380F917014088
:10CD2000A07A52114343C919728049114243B1801C
:10CD300041435B42E3612368524220009B6AA26147
:10CD400021629847D8E7C0460EFCFFFFF8B5040003
:10CD50000F00190006AB1E8807AB15001A88FDF7F7
:10CD6000BFFC0F4B6764083323602300AA88483355
:10CD70009A80AA799A710B4AA968A2640E22AA56CF
:10CD800021652100A889543108809A730023A3717A
:10CD9000230058331E802000FFF732FF2000F8BD2B
:10CDA00054880200A8840200F7B5FA25040001891E
:10CDB000134EAD006943300009F07CFC290005F0FA
:10CDC0007FF82700A36C208100935C373B7881B209
:10CDD00069433000019309F068FC6022C3B20199F5
:10CDE000009808F091FD002807D1012362223978CC
:10CDF000A06C08F089FD002800D00248FEBDC046A6
:10CE0000888802000EFCFFFF10B50400034B0833B6
:10CE1000036008F080F9200010BDC046B088020011
:10CE20007FB50825837904002B4204D1FCF788FFE5
:10CE3000A3791D43A57120004C30FEF70BFF051EA2
:10CE40000DD023005C331978062302AE0093E8224C
:10CE50003300A06CFEF774FC051E03D00B4D2800B8
:10CE600004B070BD0223F25E96235B425A436263B4
:10CE70000021725E20005343A3630423F25E9623D5
:10CE80005343E36323681B6A9847E8E70EFCFFFF00
:10CE9000F8B504000F00190006AB1E8807AB15009B
:10CEA0001A88FDF777FE0D4BA76408332360230033
:10CEB000AA884C339A80AA799A71094AA968E264CF
:10CEC0000E22AA5661652100A889583108801E8269
:10CED00020009A73FFF768FF2000F8BDB0880200B9
:10CEE000A884020010B50400054B083303601C3011
:10CEF00007F044FE2000183007F040FE200010BD6F
:10CF0000DC880200FF23F0B52C4E8DB03370002377
:10CF1000040069460088009303F0BEF8002802D19F
:10CF20006B469B783370264D2B68DB68002B07D14E
:10CF3000002320881A00190009F030F90DB0F0BD67
:10CF40003378032BF4D81F4901A8FDF7AFF92B68FC
:10CF500001A9DD6804A807F066FE280004A909F00D
:10CF60007BF80027050004A807F008FEBD421ED08C
:10CF700029002022103104A806F05CFA28000AF0EB
:10CF800054FF317804ABC9005918082202A806F0F2
:10CF900051FA01230822208802A909F0FFF801377D
:10CFA000002804D10C212088074A09F0F5F801A8CF
:10CFB00007F0E4FD002FBBD0C0E7C046952000205D
:10CFC000CC29002012970200FFFF0000F0B5837902
:10CFD000040091B05B071BD5FDF724F900232269FB
:10CFE000801A9941994203D1F533FF3398420FD308
:10CFF000A068002808D0354B1D8801F0FFF80368B1
:10D00000152229001B6A98470422A3799343A37130
:10D01000A3799B0758D52E4E3368DB68002B4FD081
:10D020002C4F3B78032B4BD8284B2B491B8804A84B
:10D030000193FDF73BF9336804A9DD6808A807F000
:10D04000F2FD08A9280009F007F8050008A807F074
:10D0500095FD082302AAD3800198073B063206A952
:10D0600009F09EF8002D08D029002022103108A8D0
:10D0700006F0E0F928000AF0D8FE3D7802ABDA8825
:10D08000ED0008AB5D19280006A906F0AFF90028ED
:10D0900013D00822280006A906F0CCF9336804A9A9
:10D0A000DD6805A807F0BFFD2023280008AA05A910
:10D0B00008F0D8FF05A807F061FD04A807F05EFDA1
:10D0C0000222A3799343A37111B0F0BDEC2D00208F
:10D0D000CC2900209520002012970200F0B5040012
:10D0E000150085B001930AAB1F880BAB1B78461C5B
:10D0F00002930EAB1B78102203930B7803704B8ABC
:10D1000001314382300006F095F965610025012266
:10D11000019B27836383039BE5832377029B200086
:10D12000F377A31CDA770C9B0C26636223000D9A1D
:10D13000283329001A705D7032009D702C3006F083
:10D1400021FA2000064B3200A3632900E56340303A
:10D1500006F018FA2000034B2565E36405B0F0BD26
:10D16000B7610200A961020070B50D0001F046F838
:10D1700004000368002D09D15B699847FA208000FC
:10D180006843074904F09CFEE08070BD9B689847A7
:10D190008542F3D2236820009B6898470500EDE79D
:10D1A00071020000F0B507001500A1B002C706002B
:10D1B0006B4918A81C0009F0F6F82B1E03D02800B4
:10D1C00006F04AFC83B201220492002203920292EA
:10D1D0000232019200932A0018A93800FFF77EFF5F
:10D1E00033006049583318A8079309F0DCF8231E70
:10D1F00003D0200006F030FC83B20122049200220A
:10D2000003920292023201920093220018A9079819
:10D21000FFF764FF33005449AC3318A8089309F0B2
:10D22000C2F8269B002B03D0180006F015FC83B231
:10D230000122049200220392029202320192009390
:10D24000269A18A90898FFF749FF731CFF3347492E
:10D2500018A8099309F0A7F8279B002B03D0180002
:10D2600006F0FAFB83B2012204920022701C0392A2
:10D270000292023201920093279A18A9FF30FFF719
:10D280002DFF33005533FF33394918A8099309F0AE
:10D290008AF8289B002B03D0180006F0DDFB83B230
:10D2A0000122049200220392029202320192009320
:10D2B000289A18A90998FFF711FF3300A933FF3303
:10D2C0002C4918A80A9309F06EF8299B002B03D06B
:10D2D000180006F0C1FB83B201220492002218ACB0
:10D2E000039202920232019200932100299A0A9835
:10D2F000FFF7F4FE204B1B780B93002B2DD1079BDF
:10D300001E491393089B0DA81493731CFF331593A8
:10D31000099B129716930A9B12AD179309F043F8D5
:10D320001D21492006AB1B7F1022237006ABDB8D2D
:10D33000638206ABC918C01806F07CF80623237573
:10D340000B9B1E953068A38300F068FF03682100E3
:10D350001B6898470122084B1A70300021B0F0BDBD
:10D36000292A0000242A0000252A0000272A00007C
:10D37000262A0000282A0000452E00200A18000056
:10D3800070B5002504000B4B858008338571036060
:10D39000C1601830FCF7F4FF20001C30FCF7F0FFF0
:10D3A0000123621CD377044A2000A56065611460E4
:10D3B000A37170BDDC880200CC290020FA2130B5B1
:10D3C00085B00400012302226846890007F06FFC43
:10D3D000074D2868002809D008F0F1FF2188054B87
:10D3E0002A681980022391790B43937105B030BDEF
:10D3F000CC290020EC2D002010B50C0007290FD8F7
:10D40000806800F0FBFE074B195703685B6C984778
:10D4100043425841044B40421840044BC01810BDD1
:10D420000348FCE79C980200EA03000016FCFFFF9B
:10D4300017FCFFFFF0B5A04C0D00A54404000793B6
:10D440009AAB1B789D4909A804930692FCF72EFF1E
:10D45000200029001C3007F0EEFBC020800000F007
:10D46000C7FF08200AF0E5FC060000210EAF09F016
:10D4700099F915AD0C220021A660380006F082F85B
:10D480002B0007CF07C38E4B2900EB600023300031
:10D490002B6109F070F9A06800F0B0FE08220021AD
:10D4A000059016A806F06EF814200AF0C2FC854B11
:10D4B0002A0015930300C2CAC2C3834B059EC360F2
:10D4C0000023A03603617368002B00D0EEE070608B
:10D4D000A06800F0A3FE08220021060016A806F0AE
:10D4E00051F814200AF0A5FC784B1593030086CD63
:10D4F00086C3774BC36000230361336B002B00D0DE
:10D50000D6E03063A06800F079FE08220021059083
:10D5100016A806F037F814200AF08BFC6D4B15ADF9
:10D5200015932A000300C2CAC2C36B4B059EC36099
:10D530000023943603617368002B00D0BAE070605A
:10D54000012604AB1B7C04AA334308A930001374E2
:10D5500008F028FEA06800F071FE03685F495B6A6E
:10D560009847A06800F06AFE03685D499B69984788
:10D57000A06800F063FE0023026800931768049916
:10D580003200B847049B002B0AD0200008F020FF8F
:10D59000032805DDA06800F051FE0368DB689847AA
:10D5A00000260EAFB819073608F04EFE1C2EF8D133
:10D5B000183E04ABA0685E770A9700F03FFE036850
:10D5C0000AA91B699847A06800F018FE03680AA919
:10D5D0005B6D9847A06800F011FE03680021DB6DC9
:10D5E0009847A06800F00AFE036802219B6D9847E7
:10D5F00000212000FFF700FF18200AF01AFCA168A4
:10D6000000F054FA374B384A1B68A1680393374B34
:10D6100028001B6800250293354B1B680193069B6D
:10D620001B689B190093334B12681B68FFF7BAFD08
:10D6300030200AF0FEFB079AA16800F0F9FAA06812
:10D6400000F0DCFD03680CA99B6A9847082304AA34
:10D650001384A068DB185384958400F0CFFD036821
:10D660000CA9DB6A98473100A06808F06FFE099AA0
:10D6700009219378A068921908F07BFEA06800F059
:10D68000BDFD32210571A068FFF76EFD04AB1B7F65
:10D69000AB4204D0A06800F0B1FD08F0CBFD09A8B2
:10D6A00007F06CFA95239B009D44F0BD03610EE7E3
:10D6B000036126E7036142E7ACFDFFFF1E9702000E
:10D6C000C5610200BDD30100D361020005CF010096
:10D6D000E16102000F620200EF610200F9D6010071
:10D6E0002DD70100C8290020C429002008200020CF
:10D6F000C02900200C20002013B506226846FCF744
:10D7000015FE094B1C68002C0AD0694601A807F0D9
:10D710008AFA200001A908F075FE01A807F02EFA88
:10D72000684607F02BFA13BDCC290020002373B5FF
:10D7300001AE0C0031000500019302F0ADFC0028A1
:10D7400002D1B278064B1A70064B1868002806D032
:10D75000054B1D8063425C41E1B208F05BFE73BD86
:10D7600095200020CC290020EC2D002030B5284C3D
:10D77000A9B06A220D000DA8210005F05BFE0DA9DD
:10D7800003A8FCF731FE03A906A807F0C0FA01239D
:10D790000193013BFF3B00930533FF33642206A94D
:10D7A0002800FDF773FF06A807F0A4FA210019224C
:10D7B0006A3106A805F03EFE05220024110006ABE2
:10D7C00004A807F0CBFA04A905A807F0A0FA2300E3
:10D7D000220028000194009405A9FDF799FE05A8F0
:10D7E00007F088FA21002800FDF780FF05340520A6
:10D7F000FCF744FBFF2CF5D1FA208000FCF73EFB40
:10D8000004A807F077FA03A807F074FA29B030BD2E
:10D8100019980200F0B59C4B95B005921A68082340
:10D8200004000F00D16C06A80B43D3649749FCF7A2
:10D830003DFD974907A8FCF739FD220000250DAEF4
:10D8400030001C3206A907F005FA310007AA08A823
:10D8500007F000FA300007F091F9631CDD77A0684B
:10D8600000F0CCFC03685B6998477019073508F035
:10D87000EBFC1C2DF9D180230BADDB00AB80A06845
:10D880000B9600F0BBFC036829005B6D9847A0680D
:10D8900000F0B4FC036800219B6D9847A06800F07D
:10D8A000ADFC0300002506000A331F2200211800EA
:10D8B000039305F067FE039B3000DD7708F0B1FCB1
:10D8C0000621A06808F042FD089A09219378A06813
:10D8D000043208F04EFDA06800F090FCC8210571EC
:10D8E000A068FFF741FCA06800F088FC0581A068F3
:10D8F00000F084FC08F09EFC3800FDF79BFD200042
:10D90000FCF71EFA39002000FFF730FF3900200035
:10D9100008F093FDFF230495039362690123160029
:10D920001E401A4232D05B4909A8FCF7D7FD09A96D
:10D930000AA807F0ECF900220AA91300019200924C
:10D940003800FDF7E5FD0AA807F0D4F9049B002B89
:10D9500047D1039B043B0393039B282B44DC3800F3
:10D9600007F0C5FF039B002B00DC0496059807F029
:10D97000BEFB002806D0012362699A4313000422EB
:10D980001343636109A807F0B5F900250422636910
:10D99000134234D0FF213800C826FDF7A7FE00252A
:10D9A000B600A36902229B5EAB4223DD200029B2B0
:10D9B000183007F065F90023010038001A007430B0
:10D9C000FCF7DCFD3000FCF759FA380007F08FFF58
:10D9D000C820FCF753FA0222636913420AD10135C9
:10D9E000DFE7039B0433B6E7039BFE2BBEDD00237A
:10D9F0000493BBE7FA208000FCF740FA00250222DE
:10DA0000636913421ED01E0006321640134224D012
:10DA1000214909A8FCF762FD09A90AA807F077F9CE
:10DA200000220AA91300019200923800FDF770FD50
:10DA30000AA807F05FF91948FCF720FA09A807F0CF
:10DA400059F9174D6420FCF719FA164B01359D4220
:10DA500000DC62E706F03CFF5FE7134909A8FCF72A
:10DA60003DFD09A90AA807F052F9330032000AA9BE
:10DA7000380001960096FDF74BFD0AA807F03AF929
:10DA800009A807F037F9DDE7502900202C9702009C
:10DA90003C9702003E97020083970200983A0000EC
:10DAA0008C0A00008B0A0000C09702005A4BF0B5A8
:10DAB00008330360816004002520A9B002AB102266
:10DAC0000391C018002105F05DFD0BAE012332006B
:10DAD000524833700E33195C01321170013BFAD297
