:020000021000EC
:1080000000400020B1110200ED110200EF1102004A
:108010000000000000000000000000000000000060
:10802000000000000000000000000000F11102004C
:108030000000000000000000F3110200F511020032
:10804000F711020045BE01006D180200F711020091
:10805000F71102000000000029120200F7110200CF
:10806000F7110200451A0200F5160200F71102008E
:10807000F7110200F7110200F7110200F7110200D8
:10808000F7110200F7110200F7110200F7110200C8
:10809000F71102005D010200DD020200F71102008B
:1080A000F7110200F71102000000000000000000BC
:1080B00000000000000000000000000000000000C0
:1080C0000448054B10B5834203D0044B002B00D06D
:1080D000984710BDC0200020C020002000000000F4
:1080E00006480749091A8B10C90FC91810B549105D
:1080F00003D0044B002B00D0984710BDC0200020B7
:10810000C02000200000000010B5074C2378002B91
:1081100009D1FFF7D5FF054B002B02D0044800E042
:1081200000BF0123237010BDD820002000000000F4
:108130007C9B0200054B10B5002B03D00449054879
:1081400000E000BFFFF7CCFF10BDC04600000000FC
:10815000DC2000207C9B0200402292029A1A924668
:108160007047C046154B002B00D1114B9D46FFF7C1
:10817000F3FF00218B460F461148124A121A0BF0EA
:108180003FFA0C4B002B00D098470B4B002B00D034
:1081900098470020002104000D000B480BF0C0F8A8
:1081A0000BF006F9200029000FF0E5FC0BF0D6F8E3
:1081B0000000080000000000000000000040002057
:1081C000C0200020302F002089330200F7B50A00BC
:1081D000030010320C781C704C785C708C789C70AA
:1081E000CC780431DC7004339142F3D1124B042279
:1081F0009C46124E0327037B457B847BC17B3A421E
:1082000009D16746755D0195355D745CF15C930835
:10821000FB5C019F7B40077801327B40037443780D
:108220005D40837845745C40C37884745940C17460
:1082300004302C2ADED1F7BD3C90020047910200A9
:10824000F0B50A0004000F0089B0010000200CF016
:10825000A7F90126231D01932500230019001A0008
:108260001031029111788C4660463749095C1170D3
:10827000029904329142F5D1019A01339A42EDD12B
:10828000627963786270627A6271627B6373627230
:10829000A27AA378A270A27BA372A379A271E27BD7
:1082A000A373E378E270E27AE273E279E371E27257
:1082B0000A2E41D02300103307932B7802930298A3
:1082C0006B7858400393AB780493EB780593059A49
:1082D000049B53400693434001930CF07BF9029BAF
:1082E0005840019B58402870049B039858400CF05C
:1082F00071F9039B5840019B5840687006980CF038
:1083000069F9049B5840019B5840A870059B02984E
:1083100058400CF05FF9059B5840019B5840079B63
:10832000E8700435AB42C8D130003A002100013674
:108330000CF036F9F6B28DE73A00210030000CF06F
:108340002FF909B0F0BDC04647910200F0B591B0D9
:108350000A000E91040001000A200CF021F9092303
:10836000627A0093637B627362792600627262783C
:1083700063706271A27AA378A270A27BA372A379C0
:10838000A271E279A373E378E270E27A534DE2716D
:10839000E27BE3732300E272201D19001A00103102
:1083A0001778EF5D177004329142F9D1013398428A
:1083B000F3D121000E9A00980CF0F2F8009B002BEC
:1083C00000D188E0230010330F933378F7780193BE
:1083D000737801980293B37803930CF0FBF807903D
:1083E0000CF0F8F808900CF0F5F8049002980CF0F6
:1083F000F1F809900CF0EEF80A900CF0EBF805900B
:1084000003980CF0E7F80B900CF0E4F805000CF082
:10841000E1F8069038000CF0DDF80C900CF0DAF87A
:108420000D900CF0D7F80899079B02004B40049977
:108430004B4009994B4005994B4006996B404B4086
:10844000029943404B4003994B407B400499337061
:10845000099B4B400A994B4005994B400B994B4067
:1084600006994B400D994B40019943404B4003996D
:1084700008984B407B407370049B5840059B5840C4
:108480000B9B5840069B45405D400C9B07985D4008
:10849000019B55405D40029B5D40049B7D405840E0
:1084A0000A9B0D9F5840059BB5705840069B58404D
:1084B0000C9B58404740019B7A405A40029B5A40CF
:1084C0004A400F9BF2700436B34200D07DE7009B18
:1084D000013BDBB244E711B0F0BDC046479002005B
:1084E000F0B58BB00F00060014000021182204A87C
:1084F0001D000BF085F86B4680205F7418746B00CC
:108500000B2D26DC002D09D0220004A96519147852
:1085100001328870CC7002319542F8D100227A2164
:1085200000927068023304AA03F040F9041E0DD0D3
:1085300035680949F03503A801F0FEFE78222800CD
:1085400003A903F089F803A80CF064FB20000BB02A
:10855000F0BD16246442F9E74792020010B5044BBF
:10856000C154C21881210123FFF7BAFF10BDC046D4
:108570000F04000010B5074BC35C082B05D1002386
:10858000A1211A00FFF7ACFF10BD0023A0211A00A3
:10859000F8E7C046110400000F2373B519406B467D
:1085A00012011143C9B2DE1C04003170F0290DD054
:1085B00005680A49F03501A801F0BEFE78222800BE
:1085C00001A903F049F801A80CF024FB32000123B3
:1085D000D5212000FFF784FF76BDC04655920200EA
:1085E000F7B56B46012700250400DE1C574B390008
:1085F000C7548068357003F03BFB380001F084FC01
:108600002900A06803F034FB0A2001F07DFC39004A
:10861000A06803F02DFB2B002A00AE212000FFF7FD
:108620005FFF051E0FD024684949F03401A801F00E
:1086300083FE7822200001A903F00EF801A80CF0B7
:10864000E9FA2800FEBD022120000BF0FAFF051E0A
:1086500003D024683F49F034E8E70F2201002000EE
:10866000FFF79AFF3F2120000CF013F83A4B20004F
:10867000E25C3A4BE15C0CF017F82B002A00290071
:108680002000FFF72DFF364BE35C002B07D114339E
:10869000337032003B008D212000FFF721FF0021C5
:1086A00020000BF0B1FF051E03D024682D49F034E3
:1086B000BCE701007F2220000BF0AFFF290007225A
:1086C00020000BF0B4FF2000FFF754FF051E03D07D
:1086D00024682549F034A9E720000BF0CAFF051EE5
:1086E00003D024682149F034A0E712233200DA21B4
:1086F00033702000113BFFF7F3FEFF212000FFF74E
:108700002DFF174BE35C002B0FD1F1333200D92141
:1087100033702000F03BFFF7E3FE3023320033706C
:10872000DB2120002F3BFFF7DBFE0023B0211A00E6
:108730002000FFF7D5FE042120000BF082FF01216D
:1087400020000BF089FF05007BE7C0461504000000
:10875000619202006D9202001304000012040000F6
:10876000140400007C920200859202008E920200A6
:108770007FB5184E0500815D00290DD17F220BF0D9
:108780004CFF041E23D10100072228000BF04FFFED
:10879000041E1CD10123AB5540232B7300232A0058
:1087A00000937A210C4B68680C3202F0FFFF041E24
:1087B0000DD02D680949F03503A801F0BDFD7822E0
:1087C000280003A902F048FF03A80CF023FA2000B8
:1087D00004B070BD1504000001040000979202006F
:1087E00010B504002160210002A8A36000780B4BA3
:1087F00062600C31E054002220000BF069FF084B4E
:10880000084A2000E252084A0233E2508022074B15
:108810005200E252FFF7E4FE200010BD0D040000FC
:108820000E0400000480FFFF07080A04140400007F
:10883000F0B587B0039018000C00160004930BF0FD
:1088400049F900250590059B9D421EDA049B5A5D5F
:108850000023202A02D91300203BDBB20D4A0399E2
:10886000DB009B18771CFFB20093320023000398B3
:108870000C310BF037FF0F2F04D90134E4B2072C71
:1088800004D800273E000135DDE7059D280007B02C
:10889000F0BDC046488202007FB5134B03AA1B7887
:1088A000002613706B46DE73437A0400012B15D04B
:1088B0000125017A00952B00406802F077FF0F2216
:1088C0002B00217A606800966A4402F05FFFB04294
:1088D00007D16B46DB7B602B03D06072607A04B0FB
:1088E00070BD6572FAE7C046A9920200F0B50400B7
:1088F0000126444B89B01B7802AA0120137301F0B2
:1089000003FB217A0096330005AA0027606802F075
:108910004DFF2200217A009706236068103202F092
:1089200035FF0500B84203D06772280009B0F0BDDA
:10893000300001F0E9FA8E2302AA1373217A00961F
:10894000330005AA606802F031FF2200217A009509
:10895000122360681632029502F018FF051EE3D15B
:10896000300001F0D1FAA12302AA1373217A0096F4
:10897000330005AA606802F019FF06AF217A00955E
:1089800033003A006068039502F000FF029B051E69
:1089900018D1300001F0B8FAE12302AA1373217A4A
:1089A0000096330005AA606802F000FF1122217AC8
:1089B00002A8009512180723606802F0E7FE051E62
:1089C00002D0039B6372B0E723003A7828331A7011
:1089D00002AB5A7C9B7C1B02134363852300FA780D
:1089E0002C331A700F227B7939791A4009010A4316
:1089F000E285BA791B09120113432386FB793234CD
:108A0000237092E7AB920200F0B59C4604000D0083
:108A1000256065461600257200256660F22689B03D
:108A200012A8007865720390039D0EABA57306AD86
:108A30002E7002361978AE7001362E71EE3EA1729C
:108A4000314069701C210FAB1F7810AB1B78E772A7
:108A500023739B000B407F011F43032311AA12784D
:108A600013A8007862731A40039BE07380000840EB
:108A70005B0118433A436871EA702000FFF70CFF6E
:108A800001280FD0002326681E496372F03605A81E
:108A900001F052FC7822300005A902F0DDFD05A8A6
:108AA0000CF0B8F8002606232A00217A60680096A8
:108AB00002F07CFEB0420ED0256813496672F03594
:108AC00005A801F039FC7822280005A902F0C4FDB0
:108AD00005A80CF09FF82000FFF708FF00280DD034
:108AE00025680A49F03505A801F026FC78222800FF
:108AF00005A902F0B1FD05A80CF08CF8200009B022
:108B0000F0BDC0469F940200B2940200AD920200F4
:108B1000F0B589B00393234B05AD1B7804002B708F
:108B2000437A0F001600012B05D0FFF7B5FE012890
:108B300035D101F0E9F901232A00217A0093606818
:108B400002F034FE002306AD00932A00217A60680B
:108B5000083302F01BFE002803D00023637209B023
:108B6000F0BD002F08D02B786A781B031201134345
:108B7000AA78120913433B60002E08D0EB782A79BB
:108B80001B03120113436A79120913433360039BD9
:108B9000002BE4D0EB88039A5BBA1380DFE7012057
:108BA0004042DCE7BF92020010B50400034B0360B3
:108BB00040300CF02FF8200010BDC0464885020060
:108BC00030B587B00090019104A840490292039308
:108BD00003F07AFA04A905A801F0BEFB059B3C4C02
:108BE000191D20000BF0C6FD05A80CF013F804A811
:108BF0000CF090F9374920680BF0A5FD010020002A
:108C00000BF0B8FD200034490FF0FDFA002822D106
:108C10000122324B1A70324B92181A702368626824
:108C20001800991892100300002A2EDD00783B28C6
:108C300003D058783B281AD101338B422FD008003B
:108C400019005A1C90422AD013783B2B01D00B708C
:108C500001310132F6E7200022490FF0D4FA002852
:108C6000DCD102221D4B1A701D4B013AD5E79878D2
:108C70003B2801D10233E0E7181DDD1CDB783B2BDC
:108C800001D12B00D9E7013ACDE70A1A022A17D001
:108C9000032A11D0012A02D11A783B2ACDD02368A9
:108CA000626820009A180FF05EFA032221680E48CD
:108CB0000AF03EFF07B030BD02783B2ABDD0013339
:108CC0001A783B2AB9D00133E6E7C0462C290020A8
:108CD0001C21002080200020C1920200932000204F
:108CE00094200020C592020090200020CB17F7B5F9
:108CF000CC185C40060001252000CF0F092802D9BE
:108D0000632822D8013533000833791933602D22C6
:108D100030000FF07DF93368DF197D19023D632CB7
:108D200023D92000642109F08FF920004B00642131
:108D3000019309F003F9019A134B04009B185B7827
:108D40006B70114B9B5C2B70E8E7FA239B009842F9
:108D500001D20235D7E70D4B984201D80335D2E74F
:108D60000B4909F0EBF80435C8E7092C08D9064B84
:108D700064001A1952781B5D7A703B703000FEBD9A
:108D800030343C70FAE7C046CD9302000F27000054
:108D90001027000030B50C0095B0642105002000BC
:108DA00009F056F9010002A8FFF7A0FF224902A826
:108DB00009F094F8010008A80BF0EAFC002C33DD60
:108DC0006421200009F02AFA0EA8FFF78FFF099B03
:108DD000089800930F9B0AA90193019A009B94465F
:108DE0000F226344884200D00A9A93421FD90E98FA
:108DF00010A90F22884200D0109A934217D8002160
:108E000008AA0EA80FF0C3F9010028000BF0C0FC5F
:108E10000EA80FF0C8F808A80FF0C5F802A80FF0C8
:108E2000C2F8280015B030BD64216042CAE70EA91F
:108E300008A80FF0E3F9E7E7C9920200F0B5204C6B
:108E400089B001900E0020001E490BF093FC002514
:108E50001D4F38000AF03EFEA8421CD9002D03D059
:108E600020001A4909F03AF87B5D4C2B0ED0542BA8
:108E70000AD1019902A8FFF78DFF200002A90FF087
:108E8000BDF902A80FF08FF80135E1E7310002A823
:108E9000FFF72CFFF1E70E4920680BF047FC0100BB
:108EA00020000BF067FC216802A801F045FA02A936
:108EB00008480DF06BF802A80BF0ACFE09B0F0BD4D
:108EC000042100208B98020090200020CB92020009
:108ED000802000202C290020F0B5374E89B03300C7
:108EE00008333360102307A900223000079308F0ED
:108EF0001BFF0024079B314A31493060B3600FF0FB
:108F0000A1F8079B2F4D326873602F49D45430006D
:108F10002A000EF0CFFF2D4E300000F0D5FA2A00C7
:108F200030002B490EF0C6FF22001E2129480CF00C
:108F30002FFD294F022303226421380002F046FE50
:108F40002A00380025490EF0B5FF7A23310000933E
:108F5000204A3B002248FFF743FC032301270393E9
:108F6000023331000293019300931A4A0594049747
:108F7000E7331C48FFF748FD31005223154A02979A
:108F800001940094184800F07BF918482A00030067
:108F900008330D490360446004720EF08BFF1448DF
:108FA0002A000300083308490360446004720EF08D
:108FB00081FF09B0F0BDC04634210020DD920200DF
:108FC000CD92020000200020FB800200C42500207A
:108FD000F58F010084210020F42000206147020069
:108FE0009C2100204C210020B42500201C210020C1
:108FF00004210020CB23144A9B0010B5C2501C331F
:109000000400C0180BF006FED1239B00E0180BF003
:1090100001FE20009130FF3001F0BEFD20006930DC
:10902000FF3001F0B9FD2000F03002F027F92000F8
:10903000D03002F0A7FC2000643008F017F8201DA3
:10904000FFF7B2FD200010BDD4890200F0B57A48C8
:10905000A7B000F0EFFA794C200002F039FF1C2194
:10906000200002F021FF30200EF02FFF102304001B
:10907000092100930122724B0BF066FD210071481B
:1090800002F014FC002805D020000BF077FD200032
:109090000EF017FF002302AA05930693538107934E
:1090A0000A23694C02AA9B18200006AA05A9FFF70B
:1090B0002FFD200006990BF021FB002401000290F7
:1090C00008A8FFF767FE1CAB1A93099B1AADD91DC0
:1090D00028002C726C6003930FF015F85B4B1B9A01
:1090E0009B1A062B02D85A480EF007FF072259494F
:1090F00028000FF063F808A928000FF07FF8564900
:10910000280008F0EBFE010020A80BF041FB5349BA
:1091100020A80FF073F801000EA80BF039FB20A86F
:109120000EF041FF28000EF03EFF4D4B2200197853
:109130004C480E9BFFF77CFB220021004A4807ABFE
:1091400000F08EF9079C01262000484F092802D91B
:10915000632821D80136310016AB002214A81493DD
:109160000EF056FF149F159EBE19023E632C22D9A5
:109170002000642108F068FF20004B006421039365
:1091800008F0DCFE039A3A4B04009B185B7873707E
:10919000374B9B5C3370E8E7FA239B00984201D27F
:1091A0000236D8E7B84201D80336D4E7314908F08F
:1091B000C5FE0436CAE7092C3AD92D4B64001A19AA
:1091C00052781B5D7A703B702B4A002114A80EF078
:1091D000E6FF010028000BF0DBFA28001F490FF022
:1091E0000DF8010020A80BF0D3FA20A8209C0EF067
:1091F000DAFE28000EF0D7FE14A80EF0D4FE194DAA
:109200001E4B0022197828002300FFF711FB2800CD
:10921000FFF7AEFA07990298FFF710FE154800F025
:1092200073FE0EA80EF0BFFE08A80EF0BCFE37E7D6
:1092300030343C70C8E7C046C42500201429002003
:10924000C18B0100942600204C210020FFFFFF3F2E
:10925000DE920200F3920200FB9202003421002011
:10926000942000209C210020B42500200F2700001E
:109270000493020010270000FE92020093200020B9
:109280007FB504002372002362606A4608A806784E
:109290000AAD09A800782D78A07223732843813382
:1092A00013812160507266722000E5720BF08FFA14
:1092B00001280DD025681649F03503A801F03CF8C7
:1092C0007822280003A902F0C7F903A80BF0A2FC3A
:1092D0000025012000F018FE0223217A6068009525
:1092E00002AA02F063FAA8420ED025732568094944
:1092F000F03503A801F020F87822280003A902F035
:10930000ABF903A80BF086FC200004B070BDC0468A
:1093100096940200A994020070B5C37A0600002B4F
:1093200028D0013B581E83415842424B1840C0236D
:109330005B01C018B37A002B00D100010023414328
:1093400050438C0A850A9C4203D0210008F0F6FDA8
:109350000300727A01335B08022A0ED9032A24D053
:109360000020010080234C4368439B01E418201A2D
:10937000800B70BDE8200002DCE7402B2DD9802B4C
:1093800030D9C02B32D980225200934231D93832A1
:10939000934231D96232934233D90020264A0100E8
:1093A0009342DFD812301831DCE7432B2CD9852BC0
:1093B0002ED9C82B2FD98522520093422ED9443260
:1093C00093422ED34C3293422FD900201A4A0100E7
:1093D0009342C7D82B303731C4E7DF20F921400052
:1093E0004900BFE7852115488900BBE714481549A6
:1093F000B8E79C211448F7E7FE2070214000FF31B8
:10940000B0E7FB20D221ADE7AE208121FF30EBE7B2
:109410008A210E48E8E70E480E49A3E70E480F4997
:10942000A0E7DE207821FF30E9E728200221FF3085
:10943000E5E7C04600ECFFFF9A020000D102000001
:109440007B0300003F020000FE030000C102000099
:109450006303000053020000DF03000082020000EB
:10946000F0B51E00174B87B01B78039204AA137047
:109470000123040000270291017A0093406802F062
:1094800095F90423217A6068009705AA02F07EF915
:109490000500B84203D02773280007B0F0BD02AB27
:1094A0009989DA89029B002B00D01980039B002B3D
:1094B00000D01A80002EEFD02000FFF72DFF306083
:1094C000EAE7C046BD9402001423F0B5040093B04F
:1094D000192200931821043002F03CFE23002500DD
:1094E000260064331800B43513211093B83607F002
:1094F000C9FD28000CF0C7FD00221E2130000CF031
:1095000047FA2000D03002F05DFA2300F033072143
:109510001800454A119301F0D9FE200000270123CD
:1095200069301A0011210097FF3001F041FB200043
:109530009130012302221A210097FF3001F038FBFD
:109540002000B930022201210323FF3002F006FB84
:10955000300001F033F9E4235B00E050300001F00B
:1095600081FBE6235B00E0500100E4222000520072
:10957000D130119BA2580095FF3001F075FC2000FE
:10958000E13029000822FF3002F080FF782320001C
:109590000F93013B0E93033B0D93013B0C93013B57
:1095A0000B93013B0A93013B0993013B0893013B59
:1095B0000793013B0693013B0593013B0493013B59
:1095C0000393013B0293013B0193F930013B652278
:1095D00000936421013BFF300CF0FBF9CB239B008F
:1095E0002900E01803F012FFD4239B00E0180921A2
:1095F00002F0C4FBDE239B00E75010980321277084
:109600000EF08FF923002200200008499C33A0327D
:109610001C6082C2064A02215A618030012207F092
:10962000B5FE200013B0F0BD508502005548020081
:109630003F4802000278F0B501231700040091B002
:109640001F401A4263D10300D0331800049300F086
:10965000CBFA00F0DDF930200EF037FC05001030B9
:109660000BF067FB280024300BF0FBF96A4B182045
:109670002B600EF02AFC0600684B082239000460BB
:109680000C300E930F9709F0BBFF0EA90822301D76
:1096900009F00EFF624B2900736112230498AE603B
:1096A000EF60AB802F62EF6202F000F9002805D076
:1096B00028000BF063FA28000EF003FC01232600BB
:1096C0002278B43613432370564930000CF0E1FC85
:1096D00000255549039030000CF0DBFC2F0005906D
:1096E000642000F011FC029523006933FF33180059
:1096F00006930BF048FD00280BD1039B002B12D1E1
:10970000059B002B0FD14949494800F0C1FC11B01D
:10971000F0BD20009130FF300BF035FD0028ECD07B
:10972000029B182BE9DC20006530FF2339B22AB2F6
:10973000FF3000F0ADFE322000F0E6FB029B013767
:109740000133FFB20293052F02D100270135EDB29C
:10975000029B192B0AD0039B002BC5D03000314946
:1097600002F026FE03980EF0ACFB02E0039B002BF8
:10977000F4D1059B002B02D018000EF0A2FB2B4960
:109780002C4800F085FCCB239B00E3180793DE23D5
:109790009B00E3580893002B36D100F059F80100E4
:1097A0000BA800F0C9FD0BF0DBF808900BF0D8F81F
:1097B0006B460990198C0DA80BF048FA099B0EA86E
:1097C000190C0BF043FA0EAA0DA90CA80BF08EFA97
:1097D0000EA80BF01FFA0DA80BF01CFA01230CAA1F
:1097E0000BA907980093049B03F06AFE0CA80BF0EA
:1097F00011FA0BA80BF00EFACD239B00E358089347
:10980000DE23089A9B00E2502100069A0798F03167
:1098100004F046F868E7C046FD030000C7480200B0
:1098200087480200BF940200CA9402000020002072
:1098300008000020001C0020BFF34F8F024B034A9A
:10984000DA60BFF34F8FFEE700ED00E00400FA0599
:10985000F0B58BB003AF19223800154909F028FE86
:109860000023144D05266B7180235B055B6E2C0075
:109870000093012301933100009808F0E5FB0800F4
:10988000019908F05BFB0522009B56431B1A0093CD
:10989000019B534301932B1B5343FB181B5C013C5F
:1098A0006371054B9C42E6D102480BB0F0BDC04647
:1098B000109502006A2E0020652E0020F0B595B0AC
:1098C0001822002104000EA809F09AFE13210EA808
:1098D0000EF037F903210EA80EF0D6F9464B1B689F
:1098E000002B00D10133DBB2009300210123434A56
:1098F00009A807F0BBFEFA239B009C429B411C4039
:1099000072B63F4B64211E683E4B2000059305252F
:1099100008F09EFB6843503030180A210690200062
:1099200008F096FB0A2108F079FC69435031711860
:10993000200007910A2108F071FC69435031711829
:10994000802600240891B601009B002B52D004AD64
:109950000027032C02D180260024B6016B682A4A16
:1099600002936300D3180022019258780299095C8F
:10997000039119788C4610216046014103980142F9
:1099800004D0012090400199014301910132063336
:10999000092AEAD1019B2A68D9431C4B09011940C5
:1099A000029B934224D1312F22DC002109A80EF022
:1099B00024FAFA23139A0F99DB001068014219D098
:1099C000013B002BF9D1FA23013401377600E4B2D0
:1099D0005B009F42BDD1043508ABAB42B8D1064B0A
:1099E0001B68002BB0D0009B013BDBB20093ABE7C0
:1099F0003143DBE7FFF720FF44290020F0FF0000A0
:109A0000042000205F95020029950200F01F00004D
:109A1000F8B50023124C23600AF094FF002808D008
:109A2000042120000AF08AFF002801D00D4B23609A
:109A3000F8BD0123A12704210B4A0C4D13602368B4
:109A4000FF0068606E68002EFCD0D6591B020139F9
:109A500033430029F5D1236001235360E8E7C04672
:109A600040290020ED5EBC0B00D00040FCD000403F
:109A70000B4B70B51C68002C10D0656D00F018FC05
:109A8000A36C002901D1834206D820000AF0B1FF5F
:109A9000200004490AF09DFF2C00ECE770BDC04691
:109AA0004C2900206C290020F0B595B007932A4B73
:109AB00004AC1E68049005910692002E49D0274BF5
:109AC000678825881C6800230293002C2DD0636DC5
:109AD00023480393A36C190C9AB20B00854214D14E
:109AE0002048824211D1002901D0B9420BD1029BFA
:109AF000002B08D120000AF07CFF20001A490AF050
:109B000068FF01230293039CDFE7002A01D09542FE
:109B1000F9D1002901D0BB42F5D120000AF069FF3C
:109B2000200011490AF055FFEDE7104BEB18012B0F
:109B30000FD910233A002900009308A80C4B0BF012
:109B400003F8336830009B6808A9984708A80BF011
:109B500015F815B0F0BDC046482900207C2900202A
:109B6000FE030000FF0300006C29002002FCFFFF41
:109B7000A99A010010B572B60E4B1C68002C0ED0CD
:109B800020000AF036FF0023E3640B4BE36372B658
:109B90000A4B1A681C60A26562B6200010BD62B64E
:109BA0005C200EF092F95C220021040009F028FDEF
:109BB000E9E7C046742900200040002070290020F9
:109BC000074B10B51C68E36CDB0706D5FFF7D2FF27
:109BD000044B1860002800D00400200010BDC046CF
:109BE0008029002050290020F7B51E4C012322783F
:109BF00016001E401A4233D11B4D2860FFF7BAFFF2
:109C00001A4B1B4918600AF0E4FEFFF7B3FF194B2B
:109C10001860194B4363194B8363286800280FD0E1
:109C2000C023174F3200174900933B000AF0ABFEE8
:109C3000C023009332003B00134928680AF0A3FEBA
:109C40000C200EF042F90023838083710F4B0360D8
:109C50000F4B836000F044FB0123227813432370F1
:109C6000F7BDC046702E0020482900208029002022
:109C70006C29002078290020FC3F0020574A020070
:109C8000A99A0100FF030000FE0300007085020096
:109C9000719A0100024B1878012318407047C046A2
:109CA000702E0020F7B5134F04003B680E00002B08
:109CB0001ED0114B1B78DB071AD5FFF781FF05007B
:109CC0003304234383640AF094FE28000B490AF00E
:109CD00080FE0B4B0025E318012B07D9C02300930E
:109CE00032002100074B38680AF04DFE2800FEBD07
:109CF000054DFBE748290020702E00207C2900201C
:109D000002FCFFFFA99A010016FCFFFFF7B5060051
:109D10000D0017000193002802D100242000FEBD91
:109D20000029FAD0FFF726FF041EF6D0074B019A50
:109D300043630660064B45608760002A00D0054BF0
:109D400020000549A3630AF044FEE7E7FC3F00203A
:109D5000314A02003F4A02006C29002070B5074BCF
:109D60000E0011001A7805000123100018401A4255
:109D700003D032002800FFF7C9FF70BD702E00200D
:109D8000F8B50500EFF30884C36B006C1C1B6B6C0B
:109D90001B1A9C420FD91F23074E203437689C435F
:109DA000002801D000F0D6F9200000F09FF92864C7
:109DB000001968643760F8BD80290020024B1868DC
:109DC000434258417047C0466C29002003000022DE
:109DD00010B5044994006058002801D00132F9E719
:109DE000635010BD54290020002310B5044A990087
:109DF0008C58844201D00133F9E70020885010BD0F
:109E00005429002010B50024084BA200D058002887
:109E100002D003685B6898470134062CF4D1044BE8
:109E20001B68002B00D120BF10BDC0465429002064
:109E30006C2900200122F8B52C4B1B7813421CD052
:109E40002B4D2C68E36C134218D002273B43E3648C
:109E5000284B1E680423F26C30001343F364636BD9
:109E6000F363FFF78DFF3000716C04F01AF9286876
:109E7000C36C3B4201D004F04EF9F8BD1E4F1F4E9B
:109E80003A683068002A0AD128601B0712D52C6076
:109E9000FFF7B8FF3B68002BFAD02B600AE0216D7A
:109EA000B94219D1616D002900D1110029602A68D9
:109EB0008242EAD029688C42DFD0336899420DD1C2
:109EC0000F4B4B630F4B8B632000FFF759FF296843
:109ED00020004B6C626C06E02A60E8E79C42F3D1FC
:109EE000002210004B6C04F09BF8C6E7702E002097
:109EF00080290020502900206C290020782900208A
:109F0000FC3F0020574A020070B50C4B04001B7840
:109F1000DB0702D40DF0B1FE70BDFFF751FE050066
:109F200000F0C6F92418AC6428000AF062FD28008D
:109F300003490AF04EFDFFF77DFFEDE7702E00208C
:109F40004C290020F8B51B4B1B78DB0727D50024D4
:109F5000194E30680AF04DFD184D2B68002B02D0C9
:109F60005B6D0134FAE7032C0ADD2F68013C7B6D41
:109F7000386C2B6000F0EEF8380000F0EBF8F2E7F8
:109F8000290030680AF025FD72B60D4932680B6869
:109F9000934206D19B6D0B6062B6FFF74BFFF8BD95
:109FA0000B00002BF8D0996D8A42F9D1926D9A6519
:109FB000F2E7C046702E002080290020742900207E
:109FC0007029002010B5034B1B78DB0701D5FFF784
:109FD000B9FF10BD702E0020F7B505000C00002859
:109FE00033D001261B4B1B78334230D01A4F072346
:109FF0003868C26C1100194000911A4207D0210044
:10A000002800164AFFF7AAFE00252800FEBD04F02E
:10A010006AF83A680221D36C1800084001900B429C
:10A0200003D001318B43D364EEE73343D364200084
:10A03000A8473A68019DD36C1900B143D1645B070E
:10A04000E3D52000FFF7BEFFDFE7054DDDE7054D57
:10A05000DBE7C046702E002080290020C59F01004C
:10A0600017FCFFFF16FCFFFF020010B5014B12CBDF
:10A0700012C210BD84290020034B1A68034B1A60DA
:10A080007E225A607047C0460420002084290020A8
:10A09000F0B5124E03003278022A1BD081421BD940
:10A0A0000C1A072C18D90D00054303272800384047
:10A0B0003D4211D172B6BA40094DA4085351AA18B5
:10A0C00051608022120614431C60337801333370D0
:10A0D00062B6F0BD0348FCE70348FAE7722E0020A1
:10A0E0008C29002013FCFFFF17FCFFFF70B5041E36
:10A0F00023D0124D124E2B78002B0CD1114912484F
:10A100003370FFF7C5FF114B984202D11E20FFF7B5
:10A11000D5FB01232B7000253378AB4209DD0C49B8
:10A12000EB002000C9180AF0A0FC002805D1013579
:10A13000F2E71420FFF7C2FB002070BD712E002053
:10A14000722E002000380020302F002017FCFFFF67
:10A150008C29002010B5002817D000220F4B197849
:10A160000F4B914215DD1C6884420FD25C6884421B
:10A170000CD9041F2368002B02DC1E20FFF79EFB76
:10A18000802322681B061343236010BD013208336D
:10A19000E7E71E20FFF792FBF7E7C046722E00208C
:10A1A0008C29002070B5051E14DD0B4E0B4C336856
:10A1B000002B02D020680DF017FCFA212068002443
:10A1C000074B89008361C462694335600DF01DFC53
:10A1D000200070BD0348FCE79C290020CC2900200A
:10A1E0008DA2010017FCFFFFF8B5114F05003E6876
:10A1F000002E0AD130200DF068FE040006F0AAFF00
:10A200000C4BA6612360E6623C600B4E3368002B6A
:10A2100009D110200DF059FE04000DF042FC200081
:10A2200034600DF018FC2800FFF7BCFFF8BDC046F5
:10A23000CC2900207C8D0200C8290020014B186821
:10A240007047C0469C29002070B50D4C2368002B38
:10A2500003D00C4B1B68002B02D10620FFF7C4FF74
:10A2600020680DF00FFC02000749C3170D684E6807
:10A270005219734120680A604B600DF009FC70BDF3
:10A28000C8290020CC290020C020002010B5FFF7ED
:10A29000DBFF0024054BA200D058002802D0036841
:10A2A0001B68984701340A2CF4D110BDA029002066
:10A2B00010B5FFF7C9FFFA22034B920018685968DE
:10A2C000002307F0EBFF10BDC020002010B5FFF702
:10A2D000BBFF024B1868596810BDC046C020002063
:10A2E0000B4B10B51B680400002B03D0094B1B68F7
:10A2F000002B02D10620FFF777FF0023064A9900C2
:10A300008858002801D00133F9E78C5010BDC046B1
:10A31000C8290020CC290020A0290020002310B546
:10A32000044A99008C58844201D00133F9E7002097
:10A33000885010BDA029002010B50400002902D0CB
:10A340000B78002B03D1034B2360200010BD0AF0D3
:10A3500068FCFAE780850200F8B5050008000C00EB
:10A360000AF014FE002803D1124B2B602800F8BD20
:10A3700020000AF00BFE0530FFF7B8FE28600AF057
:10A3800008FE20000AF002FE2E68708020000AF00D
:10A39000FAFD070020000AF0F9FD39000200301D27
:10A3A00009F086F820002E680AF0F0FD0023361828
:10A3B0003371DBE780850200F8B504000E0015005C
:10A3C00000290AD00B78002B07D0002A05D00800FE
:10A3D00097B209F07FFB874203D90B4B2360200023
:10A3E000F8BD681DFFF782FE20600AF0D2FD2068EC
:10A3F0002A0047803100043009F05AF823685D19BB
:10A4000000232B71EBE7C04680850200014B0360FF
:10A410007047C0468085020010B50548054C206095
:10A420000AF0BAFD2000044A04490DF043FD10BDB6
:10A4300080850200D029002000200020154C020059
:10A44000084B73B51D680400002D0AD001002E686A
:10A4500008220831684609F02BF80CCC2800316836
:10A46000884773BDD4290020014B03607047C04664
:10A470008885020010B50400081E03D1034B236039
:10A48000200010BD21600AF087FDF9E788850200F1
:10A4900030B500684488A1420CDA8588AA4209DAFE
:10A4A000002907DB002A05DB62434018801883710E
:10A4B000002030BD0048FCE717FCFFFFF0B50700A7
:10A4C0000E001D0085B0002921DD002A1FDD002BB4
:10A4D0001DD00468638803938B4200DD0391A38839
:10A4E0000293934200DD0292002306340193019B04
:10A4F000029A93420ED029002000039A08F0D8FF58
:10A500003B68AD195B88E418019B0133EEE7024814
:10A5100005B0F0BD0020FBE717FCFFFFF8B5040015
:10A520000D0016001F00002901DB002A02DA0D4B86
:10A530002360F8BD100048430630FFF7D7FD2060C8
:10A540000AF027FD23685D809E80002F06D03B0027
:10A55000320029002000FFF7B1FFEAE720000AF0EF
:10A5600039FCE6E788850200F7B507000D1E03D128
:10A57000244B03603800FEBD0024080026002100A3
:10A5800001940378002B1AD03022524294469C4406
:10A590006246092A11D90A2B0AD1019B36190133C7
:10A5A0000193B14200DA3100002426000130E8E7CF
:10A5B000002CFBD000240136F8E70124F6E7019ACD
:10A5C000380012B209B2FFF7A9FF012149420E007B
:10A5D0000A203B689A1D2C78002CCBD02300303BFE
:10A5E000092B08D8CB43DB170B4043431B19303BE7
:10A5F00019000135EFE70029FBDB11703100013252
:10A60000F7E7C04688850200F0B5040087B004A8CB
:10A610000E001D000192FFF727FD236801995A885B
:10A62000914233DA9B889D4230DA1F2E2ED9059B4A
:10A6300000939E422ADC052300217343049AA03B29
:10A64000D3180393039B6E185B5C02930023019A5B
:10A65000D718226850880090B8420EDD9088B0422A
:10A660000BDD0098D2197043121810201841029F78
:10A670003840471EB841404290710133052BE6D166
:10A6800001310529DED1002007B0F0BD0048FBE70D
:10A6900017FCFFFFF7B5036806009F1D5B880D00E0
:10A6A0005A1A0192002919DD0024994203DB0AF0AD
:10A6B00091FB002013E033689B889C42F9DA7919FA
:10A6C0003800019A08F0F4FE019B2900F8180AF0FE
:10A6D00064FB336801345B88FF18ECE70048FEBD7B
:10A6E00017FCFFFF10B50548054C20600AF054FC2C
:10A6F0002000044A04490DF0DDFB10BD88850200EE
:10A70000D8290020002000208D4D020010B5054CF6
:10A71000012120000AF028FC2000034A03490DF023
:10A72000C9FB10BDDC29002000200020154F0200CD
:10A73000074A030010B50120934208D0834202D09B
:10A740000020DB0703D41E20FFF7B8F8002010BD5F
:10A75000FFFF00000048704716FCFFFF10B53220D5
:10A76000FFF7ACF8004810BD16FCFFFF82801422F2
:10A77000002310B541620F4C0100083404600E2420
:10A780000281123A837182720363838636310A78BA
:10A79000C360A243036143618361C36103620A70C2
:10A7A000021DD38701224287034AC263020040325E
:10A7B000137010BDA885020001000100F0B5564ECF
:10A7C0000500376897B0002F00D090E006AC0B234F
:10A7D0001C228221200001F0F9F90B231D22832184
:10A7E0000AA801F0F3F90B231B2284210EA801F023
:10A7F000EDF908200DF069FB01223B0011000490E7
:10A800000BF0A9FF3A2128000BF0C4FC00281CD053
:10A81000A38812AFBB80A379A268BB713F4B5C20B9
:10A8200012930E23E3561492A289BB73BA810DF0E2
:10A830004CFB05230193353300933A002900049B18
:10A84000040002F025F9346051E0322128000BF0B9
:10A85000CFFC00281BD0A38812AFBB80A379A268CD
:10A86000BB712E4B5C2012930E23E3561492A289E7
:10A87000BB73BA810DF029FB052301932D3300939F
:10A880003A002900049B040002F0A6FADBE73C2111
:10A8900028000BF068FC002834D0362202AB9B8ED7
:10A8A00012AFBB8002AB9B181B780832BB711B4BED
:10A8B000A420129302AB9B18109A1B781492059255
:10A8C00002AA928F5BB2BA81BB730DF0FEFA062327
:10A8D00004000293013B0193373300933A00049B39
:10A8E000290001F0F5FF0E4B346044341C600C4B22
:10A8F000094C1868002802D021680AF0B2FC2068D0
:10A9000017B0F0BD44200DF0E0FA052204990400D0
:10A91000FFF72CFF97E7C046E0290020988502004A
:10A92000E4290020F0B56349C56885B08D4258DA46
:10A93000030036331C7802222300134014425BD1FB
:10A94000026901928A4265DA0200363212785207B1
:10A950006AD4426902920200029C40328C4270DA50
:10A96000010036310978090775D4002B7ED11378A0
:10A970009C46002B16D00100061DF38F36310133A3
:10A980009BB2F3870391097801270C003C403942C0
:10A9900000D188E01D2B05D9039BB9431970002312
:10A9A000F38713700AF03DFB434A0723904277D99F
:10A9B0004249043B8D4273DBC82201339200954229
:10A9C0006EDC0198023B88426ADB013B904267DC07
:10A9D00002980433884263DB0023904260DD063333
:10A9E0005EE0C822002352009542A9DD0300363301
:10A9F0001A7800239207A3D4012306001F003636DD
:10AA000032785408A7433C0002279C40BA432243B3
:10AA1000327095E7C822019C5200944299DD0200F1
:10AA200036321278520794D4012306001C003636C1
:10AA300032789708BC43A7000424A2433A433270FB
:10AA400087E7C821029C49008C428EDD0100363127
:10AA50000978090789D40100012636310B78DF080F
:10AA6000BE430827F600BB4333430B701378032B18
:10AA700000D97CE70133DBB21370012B03D1002135
:10AA8000031DD98773E7042B00D070E7020036322C
:10AA90001178033B0B43137000230430C3870B333F
:10AAA000180005B0F0BD092B00D87BE76346F4879A
:10AAB000013B76E770FEFFFFFF700200E0FCFFFF46
:10AAC000F0B5C369C1681A68451D0400EB7F89B001
:10AAD000114225D0002B57D10123A2791A4237D039
:10AAE000002602226846A188A6710AF02CF9A31D4F
:10AAF000DD7F012D2CD1FFF7DBFB3300226A801AAA
:10AB000099410F000600A1889F4203D1FA239B00C0
:10AB10009E423BD30123042204A80AF014F917E053
:10AB20000B2B01D80133EB77EB7F082B0DD90122DA
:10AB3000A37913420CD11343A188A37104A8130075
:10AB40000AF001F9FFF7B4FB2062EB7F012BC3D9B8
:10AB50000322A3791340012B14D1FFF7A9FB002393
:10AB6000226A801A9941994202D10A4B984209D926
:10AB70000223A279A1881343A3710522012304A80B
:10AB80000AF0E1F809B0F0BD013BCCE72B0003224D
:10AB9000C2E7C046DB05000010B50400034B0833D4
:10ABA0000360FFF7BBFB200010BDC046DC85020040
:10ABB000F0B5060000250F00040085B002930AAB33
:10ABC0001B78083603930F4B29000833036001926A
:10ABD000858085711822300008F012FD39003000A0
:10ABE000039A0CF0B3FF019B029AA380A31DE771A7
:10ABF000DA77631D25622000DD77FFF771FB200007
:10AC000005B0F0BDDC8502000048704716FCFFFF70
:10AC100010B53320FEF752FE004810BD16FCFFFFB2
:10AC2000002310B50400838083710D48216408302F
:10AC300020608020C000A061E0612062110020003F
:10AC4000E360236163616362A362E362236363631E
:10AC5000A363E36363640AF0DCFA200010BDC0461E
:10AC6000F4850200F0B5544E0500376897B0002F08
:10AC70003DD10B231C22822106A80AAC00F0A6FFBE
:10AC80000B231D228321200000F0A0FF0B231B2299
:10AC900084210EA800F09AFF08200DF016F9012279
:10ACA0003B00110004900BF056FD1D2128000BF015
:10ACB00088FA002824D0A38812AFBB80A379A268A9
:10ACC000BB713E4B602012930E23E3561492A2896F
:10ACD000BB73BA810DF0F9F8062301931733009383
:10ACE0003A002900049B040001F0A6FF3460344BB5
:10ACF000314A1B681068002B00D0436417B0F0BDC8
:10AD00003C2128000BF08BFA00281BD0A38812AF3F
:10AD1000BB80A379A268BB71284B602012930E23DD
:10AD2000E3561492A289BB73BA810DF0CEF80623C4
:10AD30000193363300933A002900049B040002F08B
:10AD4000EDF8D3E73C2128000BF00DFA002829D0BC
:10AD5000362202AB9B8E12AFBB8002AB9B181B78D6
:10AD60000832BB71154BA420129302AB9B18109AAA
:10AD70001B781492059202AA928F5BB2BA81BB73C0
:10AD80000DF0A3F8062304000293013B019337332F
:10AD900000933A00049B290001F09AFD084B1C60C7
:10ADA0004434A3E748200DF090F8062204990400EB
:10ADB000FFF736FF9AE7C046E42900209885020095
:10ADC000E0290020F0B587B001930EAB1B88060088
:10ADD00003930D9B0D000093019B0C9F0292002B8F
:10ADE0003DD0002F02D1009BDB0738D530200DF07D
:10ADF0006CF80400103009F09CFF2000243009F0AA
:10AE000030FE029B1820258063800DF05EF805005F
:10AE1000009B08220593019B002103600C300497DE
:10AE200008F0EEFB082204A9281D08F041FB0D4B99
:10AE300002226B6100230399E3602362E3623368BB
:10AE40000A43300021005B68A560A2809847002873
:10AE500005D0200009F092FE20000DF032F807B076
:10AE6000F0BDC046A752020070B58CB08360109B45
:10AE700001604260C3600400184918000BF009F932
:10AE8000051E14D001001C22103105A808F010FB8B
:10AE90006A4608AB43CB43C21B6813602068059920
:10AEA000069A079B0AF0C7F928000DF00AF80C4B28
:10AEB000186800280ED00B4A05AB059200220692B6
:10AEC000C03202926A4622CB22C22300032206210C
:10AED000FFF778FF20000CB070BDC0463F9702001E
:10AEE000D4290020E9AE010082B0F0B50400EDB035
:10AEF0006420739372920CF0C0FE052210A811001A
:10AF000009F071FF954911A8FFF72EFB19250022C2
:10AF100021AB013D1A605A609A600C33002DF8D1C4
:10AF20001522290014A8139508F06AFBA0680AF0FE
:10AF300028FDFF210A90A06800F01EFC884FA06841
:10AF400000F0BEFA049508950995854B9F4203D001
:10AF5000844B9F4200DBF7E0A0680AF014FDA5686F
:10AF600081491AA8FFF7E8F978221AA9280000F009
:10AF700049FB1AA809F04EFE0023794F04930326DB
:10AF8000099B60680133334009930AF0E2F8050039
:10AF900060680AF0E5F80022744B05929D420FDBD1
:10AFA000013205922A00C8320ADBAA22042192004B
:10AFB0000591954204DC0596C82D01DC022205921C
:10AFC00000220692984210DB012306930300C83347
:10AFD0000BDBAA2304329B000692984205DC032374
:10AFE0000693C82801DC013B069310A809F0F2FE85
:10AFF0005F4B00251E00079313ABEB5C012B05D1C3
:10B0000072783178FE3310A8FFF742FA0135023624
:10B01000192DF1D16B4618229A5E6B4610A81421A7
:10B02000595E099BFFF734FA002F02DB049B0F2BBC
:10B0300007D90023A0681A007430009310A909F002
:10B04000DFFE13AE079B059A1B78934221D1079B25
:10B05000069A5B7893421CD13378012B19D00C23CC
:10B06000089A0CAD53432800002221680B930AF084
:10B07000FAF821AA94460B9B634407CD07C301232A
:10B080003370089B0133DBB20893049B0133DBB2BE
:10B090000493079B374A0233079301369342D1D179
:10B0A00064200CF0EAFD089B643F3FB2182B00D8E7
:10B0B0004BE71A0021A91AA80AF0E4FA6A461DAB68
:10B0C00023CB23C21B6813601A991B9A1C9B206810
:10B0D0000AF0B1F8E568002D0CD0274912A8FFF757
:10B0E0002BF91C2328001AAA12A90BF007F812A8A2
:10B0F00009F090FDA0680AF046FC11A912A8A56805
:10B1000009F051FE00221D4B009212A90193280064
:10B11000130000F019FA12A809F038FEFA20800096
:10B120000CF0ABFDA0680AF02EFC0A99A06800F0B4
:10B1300023FB11A809F02AFE10A809F027FE6DB024
:10B14000F0BC08BC02B01847002F03D0049B0F2BA3
:10B1500000D014E7A06800F0B3F910E74A970200A6
:10B160008C3C0000D18AFFFF8F97020058FDFFFF43
:10B17000A4970200D69702003F970200DC0500006A
:10B18000F0B5040085B0637A9C46002B04D1200002
:10B190000AF096FA05B0F0BDA37A266F019310234A
:10B1A000019AF35600259B1801229A402900F36862
:10B1B00003920293029BAB4231DDB068019B68436E
:10B1C000C01873694000E77A1A181B5C5078E2795E
:10B1D000012F14D1571E3F1A18003B004243606FE5
:10B1E00052008218D2189379634500DD6346627B72
:10B1F0001A4202D00123AB4019430135DAE7022F8E
:10B2000007D0032FEAD1277A013FFF1A0300380045
:10B21000E4E7571EFB1A277A013F381ADEE71123AD
:10B22000C943F356606C994023691940039B194345
:10B230000CF0E3FDA27B072AACD8637B0C495B00D2
:10B240006373531CDBB290004158A373022A03D8E6
:10B2500008000CF007FD96E7064B2000236300234F
:10B260006363054BE462236414300CF0CEFB91E77A
:10B270002086020081B10100AB56020070B50400C7
:10B28000104B250008330360FFF748F820007430A6
:10B2900009F07CFD2000603009F078FD2000583076
:10B2A00009F0B8FC2000503009F0B4FC064B14350E
:10B2B000280063610CF098FB280005F061FF200076
:10B2C00070BDC046408602007C8D0200F8B50025A6
:10B2D0000400324B858008330360857114301600FA
:10B2E0000F0005F037FF20002D4BE56263612564F8
:10B2F0005030FFF78BF820005830FFF787F8200018
:10B300006030FFF7B1F820000423F25E336826674F
:10B31000590009B2743009F066FD3368226FE37199
:10B3200073680126237210236581A7802561D35697
:10B3300091685918994204DD300098400133054363
:10B34000F8E711230120D356D1685918994206DD38
:10B3500002009A402669013332432261F6E7142045
:10B360000CF0B3FD226900212A430123060006F0F8
:10B370007DF9FF23220063720133A3810023483249
:10B380006664A37320001370A366FEF7A9FF012370
:10B39000A27920001343A371F8BDC0464086020085
:10B3A000908D0200F0B5437A040085B0002B04D1E3
:10B3B00020000AF085F905B0F0BD837A066F01938D
:10B3C0001023019AF35600259B18012294469A40B7
:10B3D0002900F36803920293029BAB422DDDB06813
:10B3E000019B6843C01873694000E77A1A181B5C18
:10B3F0005078E279012F10D1571E3F1A18003B00F8
:10B400004243606F52008218D2189379002B02D009
:10B410006346AB4019430135DEE7022F07D0032F07
:10B42000EED1277A013FFF1A03003800E8E7571EE4
:10B43000FB1A277A013F381AE2E71123C943F35672
:10B44000606C994023691940039B19430CF0D5FCAB
:10B45000667AB31EDBB2FC2B14D8FEF7EFFE0C4B62
:10B460000500236300230B4863630B4BFF217043EC
:10B47000E462236406F0ECFD29004143200014300F
:10B480000CF0C3FA637A012B00D994E790E7C04629
:10B49000C1560200B6030000AB5602001FB50123DF
:10B4A00081881A00684609F04EFC012368461A009C
:10B4B000024909F048FC05B000BDC046FE0300008B
:10B4C0001FB5030048331A780400002A0DD000226B
:10B4D0001A70012381881A00684609F034FC0123A0
:10B4E00068461A00034909F02EFC2000743009F068
:10B4F00071FC1FBDFF03000010B50400230048339A
:10B500001A78002A07D01B78012B04D001210248A9
:10B5100009F085FAF2E710BDFF03000010B5012124
:10B520000400072009F07BFA064B984208D1483402
:10B530002378002B04D02378012B01D020BFF7E71C
:10B5400010BDC04616FCFFFF73B5079C0500002C1C
:10B550001CDB060048363078002802D030780128FD
:10B5600016D106981BB2C0B20090280012B27430F7
:10B5700009F046FC002C07D02B004A331C80002425
:10B5800007234C352C803370200076BD014CFBE73F
:10B59000014CF9E717FCFFFF12FCFFFFF0B587B085
:10B5A0000D9C05000E0017000393002C21DBFFF714
:10B5B000A3FF2B0048331B78DAB20292002B1AD17A
:10B5C000310005A809F0EFFB0C9B3A00009328001E
:10B5D000039B019405A9FFF7B7FF05A809F0D6FB67
:10B5E000002C03D02800FFF799FF029C200007B031
:10B5F000F0BD024CFAE7024CF8E7C04617FCFFFF2B
:10B6000011FCFFFFF8B50400171E1DDD06004836CB
:10B610003378002B02D03378012B17D12200E37945
:10B620005632013B137023000025200054331D8047
:10B63000503009F04CFB23004A331F8002232800BE
:10B640004C3425803370F8BD0148FCE70148FAE727
:10B6500017FCFFFF12FCFFFFF7B504000F00161EDA
:10B6600018DDFFF749FF230048331B78DDB2002BBC
:10B6700012D1390001A809F022FB320001A92000F3
:10B68000FFF7C0FF01A809F0C5FA2000FFF746FF49
:10B690002800FEBD0148FCE70148FAE717FCFFFF60
:10B6A00011FCFFFFF8B50400171E2DDD060048361B
:10B6B0003278002A02D03278012A27D15D42069BD7
:10B6C000FF331FD16B1D22001BB264321380230095
:10B6D000200066331D70603009F06DFB23000022EE
:10B6E0006C331A70954200D03D0023004A331D8010
:10B6F000079B00205A1E9341013F4C34053327809D
:10B700003370F8BD069BDEE70148FAE70148F8E729
:10B7100017FCFFFF12FCFFFFF0B504000F0016003E
:10B720001D0087B0002A1FDDFFF7E6FE2300483327
:10B730001B78DAB20392002B18D1390005A809F062
:10B7400032FB0D9B320001930C9B05A90093200056
:10B750002B00FFF7A7FF05A809F018FB2000FFF753
:10B76000DDFE039807B0F0BD0148FBE70148F9E7AB
:10B7700017FCFFFF11FCFFFFFF2902D841720020D8
:10B7800070470148FCE7C04617FCFFFF13B50400F3
:10B7900004A80078009020000CF09BF8002801D14C
:10B7A000207516BD0048FCE70EFCFFFF13B5040032
:10B7B00004A80078009020000CF073F8002801D154
:10B7C000207516BD0048FCE70EFCFFFF7FB50D009D
:10B7D00011000F226A4404001E1E117015D0089B30
:10B7E000002B12DD012329000093FFF7DFFF002863
:10B7F00008D10090320029002000089BFFF7C6FF07
:10B80000002800D0024804B070BD0248FBE7C046E3
:10B810000EFCFFFF17FCFFFFF7B506000D1E3ED024
:10B820000023022704690193002C34D0AA88A3883E
:10B8300053403B422DD13A4222D1A368AA68934299
:10B8400027D12B88002B02D022889A4221D16B88E5
:10B85000002B02D062889A421BD1EB68E2689342C7
:10B8600001D0002B15D17368002B01D02000984720
:10B87000A2880C4B1343A380019B0133019308E082
:10B88000A968A0680AF04DFF0028DAD1AB883B42D6
:10B89000D3D0E46AC8E7019B2000002B00DC0248FB
:10B8A000FEBDC0460080FFFF17FCFFFFF0B506009D
:10B8B0000D0085B000295DD001270469002C27D038
:10B8C0000221AA8800230A4202D0A3885B083B40D9
:10B8D000226829688A4215D1A068A968002B0FD078
:10B8E0000AF01FFF00280DD0EB68E268934209D1EF
:10B8F0000421625EA388002A06DB1F4805B0F0BD64
:10B900008842F1D0E46AD9E75B045B0CA380F4E7DA
:10B9100030692A880100031E07D13561012368467A
:10B92000164909F010FA0020E8E71C88944206D274
:10B93000DC6A1900002C0DD02300F6E723001C88D8
:10B94000944207D15F886C88A74203D8DC6A19004B
:10B95000002CF3D1884209D10B889A4204D305D137
:10B9600048886B88984201D9E962D6E7CB6AEB62D6
:10B97000CD62D3E70248C1E716FCFFFFFD030000DC
:10B9800017FCFFFF064B10B51A00040008322C33D9
:10B99000026083600830FEF727FA200010BDC04621
:10B9A0005886020008B4024B9C46083808BC604721
:10B9B00085B9010008B4024B9C46083808BC6047B2
:10B9C000FD5A02000C4A002311002C32083110B538
:10B9D00043608381837382600361436183618383F6
:10B9E000016004000830FEF7F1F9044B1A68002AE0
:10B9F00000D11C60200010BD58860200D429002010
:10BA000082B0F7B50125402609930CAB1B78046979
:10BA100008920193002C38D008AA238812889A42F1
:10BA200001D0002B29D108AA638852889A4201D0FC
:10BA3000002B22D1FEF72EF90123002806D0C022C8
:10BA4000A3881340C03B5A425341DBB2019A934250
:10BA500019D10422A35EA788002B14DB102208A9A9
:10BA6000A01807F025FD374209D1FEF713F9002889
:10BA700005D021000748FEF7AFFAE46ACAE72000C4
:10BA80000AF045F8F9E70025F7E72800FEBC08BCF6
:10BA900002B018470F5B020008B4024B9C460838FE
:10BAA00008BC6047AB5C020010B5024809F041F9E0
:10BAB00010BDC046C8200020F0B587B001930EAB82
:10BAC0001B88060003930D9B0D000093019B0C9FA8
:10BAD0000292002B3DD0002F02D1009BDB0738D50E
:10BAE00030200CF0F2F90400103009F022F92000A7
:10BAF000243008F0B6FF029B1820258063800CF0EC
:10BB0000E4F90500009B08220593019B00210360D6
:10BB10000C30049707F074FD082204A9281D07F0D3
:10BB2000C7FC0D4B02226B6100230399E360236283
:10BB3000E36233680A43300021005B68A560A2809D
:10BB40009847002805D0200009F018F820000CF0D4
:10BB5000B8F907B0F0BDC046F95C0200F0B51600B8
:10BB600000258380164A174B04008571026001810D
:10BB70004681057318688C4689B0A8421DD0124AC8
:10BB800005950492C02202926A4604AB82CB82C21F
:10BB900023002A006146FFF78FFFC022094B0A49A4
:10BBA000186802926A46069106AB079582CB82C25C
:10BBB00023002A003100FFF77FFF200009B0F0BD0D
:10BBC0009C860200D4290020235E020030B50024A8
:10BBD00003730123034D8471056081808273437375
:10BBE000846030BD9885020070B583790400DB075E
:10BBF00004D58068002801D00CF063F9A3799B0775
:10BC000004D5A068002801D00CF05BF9A3795B078C
:10BC100009D5A0230021154AA068DB00D150884235
:10BC200001D00CF04EF9A3791B0708D5A568002DAB
:10BC300005D028000AF0E5FD28000CF042F9A379B0
:10BC4000DB0605D5A068002802D00368DB689847AA
:10BC50006023A2791A4205D0A068002802D00368A8
:10BC60005B6898470023A360A37170BD007000401B
:10BC7000F7B50227037B04000D003B4228D00129C1
:10BC800028D883791A003A4001923B4214D1FFF739
:10BC9000ABFF18200CF019F90E230600E35618220A
:10BCA0000199009307F0ACFC300000990BF058FFAD
:10BCB000A379A6603B43A371A3685A68002D04D002
:10BCC0000025DB681A602800FEBD1B691A60FAE7D0
:10BCD000014DF8E7014DF6E716FCFFFF17FCFFFFEB
:10BCE000F7B50126037B040033422CD0827961230F
:10BCF0001100194001911A4216D1FFF775FF182063
:10BD00000CF0E3F80E230500E356677B1822019937
:10BD1000009307F075FC3A00280000990BF016FF1D
:10BD2000A379A5603343A3716023A279A0681A4266
:10BD300002D00BF0EFFDFEBD436940681B68184060
:10BD4000431E9841F7E70148F5E7C04616FCFFFFA0
:10BD5000012210B583794173134204D080680BF03F
:10BD600093FF002010BD6022134203D080680BF0C7
:10BD7000D8FDF6E70048F5E716FCFFFF70B50400B4
:10BD800000250C4B0E00083385808571036021006F
:10BD900018300AF0F7F82000210020300AF01DF9D1
:10BDA000054B2000A680E5802572E5602561656170
:10BDB0001C6070BDAC860200E82900208379DB0797
:10BDC00002D5C160002070470048FCE716FCFFFF69
:10BDD0008379DB0701D5C06870470148FCE7C0469E
:10BDE00016FCFFFF70B545690400002D22D0037AD0
:10BDF000032B21D8FFF7ECFFE86230200CF065F848
:10BE000030220021050007F0FBFB002263699A62E3
:10BE10002369934207D1636923610020237A656116
:10BE20000133237270BD1A009B6A002BFBD163693A
:10BE30009362F2E70148F5E70148F3E717FCFFFFDB
:10BE400013FCFFFF144B70B55A68144C002A03D042
:10BE500000225A600132A2601A69002A17D000211C
:10BE600019618023DB000E4DE3582868012B0FD1A8
:10BE7000A923DB00E1584942FFF7A0FF2868FFF73C
:10BE8000B1FF2B685A69074BE2500123A36070BDD4
:10BE9000FFF794FFF9E7C046FC1000400010004097
:10BEA000E82900200405000070B505000C0008F02A
:10BEB00049FD002804D1034A034BEC71D45070BDF6
:10BEC0000248FCE7001000402405000016FCFFFFBC
:10BED000F8B5837905000020DB0765D408F032FD52
:10BEE000002862D16E69002E08D130300BF0EDFFD2
:10BEF00004003022310007F083FB6C6100222C4BE0
:10BF000001215A608022D20511605A68002AFCD0B3
:10BF10000622284B284C9A56284B0026E25007222E
:10BF2000043BE2500833E650254A264B2800E250F5
:10BF3000E979FFF7B9FF01220821234B2348E65096
:10BF40000433E250224B234FE1500433E0500223EC
:10BF50002148235021482750214F043827501827C3
:10BF6000204827506F6920482750C1208000215069
:10BF70001E498538FF380B500B60802189006058BE
:10BF80000E33034363501A4B5E6062605A68002AA6
:10BF9000FCD0002601271E612800A760FDF716FFD0
:10BFA0003000AB791F43AF71F8BD1248FCE7C046C3
:10BFB000FC00004068990200001000400C050000E1
:10BFC000746962751C0500002C0500002300040242
:10BFD00014050000FFFF0000340500003C050000D0
:10BFE00021100100540500000405000000E100E0FC
:10BFF000FC10004016FCFFFF03000069002809D078
:10C000000221054AD167826A1A611A7A013A1A72C4
:10C01000024B19607047C04604E100E000E100E017
:10C0200070B505000C0008F08DFC00283AD1002CFA
:10C030003AD02378262B37D8022201211B4BDA670E
:10C040001B4A1C4B5861116159690029FCD0002022
:10C050001949545058600130106058680028FCD0CD
:10C06000002018610130906018690028FCD06869D0
:10C070005050002159610131116159690029FCD0EA
:10C08000002159600131516059680029FCD000201D
:10C0900018610123C02193600222084B49005A50C5
:10C0A0001A6070BD0648FCE70648FAE704E100E0C4
:10C0B00000100040FC1000400405000000E100E01A
:10C0C00016FCFFFF17FCFFFF37B54C680500002C7E
:10C0D00004D10C4908F025FF28003EBDA36A01A841
:10C0E0004B602278E36A033A211D08F046FF2000E6
:10C0F0000BF0E7FE280001A908F013FF01A808F0E3
:10C1000009FFE9E7DC29002010B504008CB0002904
:10C1100011D0262A0FD86846D31C03700123437020
:10C12000FF33438001A807F0C3F969462068FFF791
:10C1300077FF0CB010BD0148FBE7C04617FCFFFFBE
:10C1400010B5002903DB024B19600BF02FFC10BD6A
:10C15000EC29002070B504001D0004AB1E7804F02B
:10C16000B5FF20000E4B40302360FEF74FF923004F
:10C17000220001354C331D700023E1215832013675
:10C1800016700A3AA3646365138053809381D38148
:10C19000013B200063644902FFF7D2FF200070BD1D
:10C1A00048850200F7B580277F053E697C69082233
:10C1B000113C744305002100684607F079F9104BE3
:10C1C000009A9A4219D000930023019379692800BC
:10C1D0001339714309F018FF019A2800009909F0FA
:10C1E0002BFF2100280009F00FFF79692200133985
:10C1F00028007143B30809F011FF0198FEBDC04645
:10C20000FECA0000F0B50D00ABB000210D92070092
:10C21000302212A81E0007F0F3F9280007F05AFC9C
:10C22000431C0C93102B00D9B8E0202E00D9B5E0A8
:10C230002900380009F02DFF0B90002854D1290067
:10C240000C9A12A807F034F932000D9916A807F0DD
:10C250002FF980235B051A695D690B92113D6A43D2
:10C2600038005E690D92FFF79DFF0D9B3022083369
:10C27000002104001EA80F9307F0C2F931000B9BA8
:10C2800013395943380009F0BFFE00230F9E0C9369
:10C290000E930C9BA34246DA310030221EA807F011
:10C2A00007F912A91EA807F0D1FB00282BD13D49A0
:10C2B000380022001091119409F0BEFE6A460996DA
:10C2C00015AB23CB23C223CB23C223CB23C23800FD
:10C2D000149B1299139A09F0BDFE01230E930C9B37
:10C2E000303601330C93D4E70B9832000D9910309F
:10C2F00007F0BAF804000B980BF0E3FD002C9ED178
:10C3000020002BB0F0BD6A46099621AB23CB23C297
:10C3100023CB23C223CB23C238001E991F9A209B14
:10C3200009F098FEDBE7E6433021F61726404E433E
:10C330000F9B9E190E9B002B1CD10B9B981E05F08A
:10C34000FDFDA0422CD01749013438002200109185
:10C35000119409F071FE6A46099615AB23CB23C2EE
:10C3600023CB23C223CB23C238001299139A149BE8
:10C3700009F070FE38000D9909F046FE80235B0538
:10C3800059690C230B9A133963434A43380011004F
:10C3900002330D9A09F042FE0024B1E7024CAFE7E8
:10C3A000024CADE7FECA000017FCFFFF13FCFFFFC5
:10C3B0008023F0B55B051A6995B002925A69059120
:10C3C0000299113A51435C69029B133C05005C439E
:10C3D0000391FFF7E7FE061E3CD03022002108340F
:10C3E00008A8039F07F00CF92100280009F00CFEB3
:10C3F0000023083701930493019BB34220DA3900EC
:10C40000302208A807F054F8059908A807F01EFB89
:10C4100000280DD11B49721E28000691079209F0D1
:10C420000BFE01230493019B303701330193E3E7B3
:10C4300022000C233900280009F0F0FD3034F2E727
:10C44000049B002B08D10F49320028000691079663
:10C4500009F0F2FD0C4812E02800039909F0D4FD20
:10C4600080235B0559690C23029A13394A437343AD
:10C4700011002800039A023309F0D0FD002015B006
:10C48000F0BDC046FECA00000CFCFFFF70B5040002
:10C49000A280FA22002308000C4992000831216092
:10C4A000A3710B496061E260A360638209F0F1FD52
:10C4B000051E09D00100200002221031123006F0C2
:10C4C000F7FF28000BF0FDFC200070BDC4860200C1
:10C4D000D697020030B502258379040087B02B423D
:10C4E00004D1FDF773FCA3791D43A571200009F069
:10C4F00016FE00281CD06B46DD1C280009F006FE45
:10C500002B78002B17D001A809F0FEFD0321019A1A
:10C51000D3170B409B189B102382FDF7C9FEE368DD
:10C52000A18818180123A0601A0002A808F00BFCCB
:10C53000002007B030BD0122064B1A60064A516840
:10C540000029FCD000215160044A126801920122A6
:10C550005A60DBE700C00040FCC0004008C5004056
:10C56000022802D10122014B1A707047732E00205D
:10C5700070B5064D04002B78002B04D1044802F05E
:10C5800005FD01232B70200070BDC046742E0020D5
:10C5900061C5010070B50C0008F0D4F9002810D076
:10C5A0000023134DA40A2B70200009F0CCFD0028B5
:10C5B00003D00A200BF061FBF6E72B78002BFCD0B0
:10C5C00070BD02210B4B0C4A99508021C90058586C
:10C5D0000028FCD0A120C0001C5058580028FCD0D6
:10C5E000002199508021C9005A58002AFCD0E7E761
:10C5F000732E002000E0014004050000F8B50D0096
:10C6000016001F0008F09EF9002811D00023184CD6
:10C6100023703A003100280009F093FD002803D070
:10C620000A200BF02AFBF4E72378002BFCD0F8BD9E
:10C63000012380220F4C1049D2006350A358002BD5
:10C64000FCD08022D200002394469F4208DD98004F
:10C6500032582A506246A0580028FBD00133F4E734
:10C66000002363506346E358002BFBD0DFE7C0464E
:10C67000732E002000E001400405000008B4024BC6
:10C680009C46443808BC60474B610200FA21F8B56B
:10C690000389C9000400594332480AF057F8FA21C7
:10C6A000890005F04BFC304FA17A208138000AF058
:10C6B0004DF823002600250022894C33A072A036B5
:10C6C0001A808C3500232A223178286809F068F90D
:10C6D000002844D11F235B223178286809F060F9D3
:10C6E00000283CD120235C223178286809F058F9D1
:10C6F000002834D101232C223178286809F050F920
:10C7000000282CD101232D223178286809F048F91E
:10C71000002824D101232E223178286809F040F91D
:10C7200000281CD1A17A38000AF00BF80E22C3B2FF
:10C730003178286809F034F9002810D1FA212389CA
:10C7400089005943074809F0FCFF012303432A22CB
:10C7500031782868DBB209F023F9002800D00348BB
:10C76000F8BDC046E4860200DC8602000EFCFFFF36
:10C7700008B4024B9C46443808BC60478DC6010093
:10C78000074B10B51A00040008323C3302604364C2
:10C79000443008F00CFD200008F03CFC200010BDE7
:10C7A0004487020008B4024B9C46443808BC6047EA
:10C7B00081C7010008B4024B9C46443808BC60475E
:10C7C00055610200F0B50425837904008BB02B423B
:10C7D00004D1FDF7FBFAA3791D43A5712000903029
:10C7E000FFF77EFA0026B0420FD12300A03319785C
:10C7F00020000C2307AD00938C302B000122006831
:10C80000FEF7E4FF061E03D02C4E30000BB0F0BD47
:10C810000A2304AA9B182A785A706A781A70002290
:10C82000985EAA785A70EA781A700022995E03918D
:10C830002A795A706A791A7000229F5EAA795A7012
:10C84000EA791A7000215A5E04922A7A5A706A7A3A
:10C850001A7000215A5E0592AA7A5A70EA7A1F2548
:10C860001A7000229B5EA27A03999C46514349426A
:10C870005043CB172B405B185B11A361C3172B40B0
:10C88000181864235743FA171540ED196A112262EC
:10C89000059A5B425343A36764236146049A40119F
:10C8A0005A434B43E267221DE0612000D36708F042
:10C8B00023FC2000443008F081FCA6E70EFCFFFFBB
:10C8C00008B4024B9C46443808BC6047C5C7010009
:10C8D000F7B51E00040008AB1B881500019309ABD7
:10C8E0001A8800910AAB31001F88FDF73FFF200036
:10C8F0003A0031004430FEF793F9134B20001A0040
:10C900003C336364230008322260009A8C331A603F
:10C91000AB8890308380AB7983710C4BAA6803603D
:10C920000E23EB5682602200A9899C32118083730A
:10C930002300019AA03303211A80FFF709FA20008F
:10C94000FFF7A4FE2000FEBD448702009885020088
:10C95000F8B5FA260189B60004007143254809F0AC
:10C96000F5FE310005F0EAFA234FA17A2081380064
:10C9700009F0ECFE2500A072583500232A22297800
:10C98000606C09F00DF8002832D110232B22297891
:10C99000606C09F005F800282AD101232D2229789E
:10C9A000606C08F0FDFF002822D101232E22297897
:10C9B000606C08F0F5FF00281AD1A17A380009F060
:10C9C000C0FE0E22C3B22978606C08F0E9FF00288F
:10C9D0000ED121890748714309F0B3FE01230343B7
:10C9E0002A222978606CDBB208F0DAFF002800D038
:10C9F0000248F8BDAC870200A48702000EFCFFFFCE
:10CA000010B50400034B0833036008F003FB20005B
:10CA100010BDC0460C8802007FB504258379040050
:10CA20002B4204D1FDF7D2F9A3791D43A571200053
:10CA30004830FFF755F90025A8420DD1230058339F
:10CA40001978062302AE009301223300606CFEF7D2
:10CA5000BDFE051E03D00D4D280004B070BD0021A1
:10CA600004200222A37A30567156B25659435A43D3
:10CA70004343DB002362D20023685242C9002000F6
:10CA80009B6AA261E1619847E6E7C0460EFCFFFFA2
:10CA9000F8B504000F00190006AB1E8807AB15009F
:10CAA0001A88FDF763FE0F4B676408332360230089
:10CAB000AA8848339A80AA799A710B4AA968A26415
:10CAC0000E22AA5621652100A889543108809A7344
:10CAD0000023A371230058331E802000FFF738FF86
:10CAE0002000F8BD0C8802009885020010B50400F3
:10CAF000034B0833036008F05AFB200010BDC0460A
:10CB0000A0880200F0B507005C3700230400102263
:10CB10003978806C87B008F043FF214D030028006E
:10CB2000002B3BD10F2602ABF618012339780822DF
:10CB30000093A06C3300FEF749FEA8422DD00322DB
:10CB40003378134203D06420FDF7DEF9EAE7FA26D2
:10CB50002189144DB6007143280009F0F7FD31001A
:10CB600005F0ECF92081A02311223978A06C08F09F
:10CB700017FF002811D1A36C21890393714328006A
:10CB80003F7809F0DEFD01231843C3B210223900BB
:10CB9000039808F005FF002800D0014807B0F0BD59
:10CBA0000EFCFFFF4088020070B508258379040061
:10CBB00086B02B4204D1FDF709F9A3791D43A57175
:10CBC00020004C30FFF78CF8051E0DD023005C339D
:10CBD0001978062304AE009301223300A06CFEF7FF
:10CBE000F5FD051E03D0134D280006B070BD0E23C1
:10CBF00032786B445A70727820001A700022995E65
:10CC000064224A43A263B2785A70F2781A70002202
:10CC1000995E64225242514361633179597071794E
:10CC2000197000215B5E5A432368E2631B6A9847D0
:10CC3000DAE7C0460EFCFFFFF8B504000F0019004C
:10CC400006AB1E8807AB15001A88FDF7E9FF0D4BF0
:10CC5000A764083323602300AA884C339A80AA79FA
:10CC60009A71094AA968E2640E22AA5661652100F8
:10CC7000A889583108801E8220009A73FFF742FF6E
:10CC80002000F8BDA088020098850200F0B5FA25C2
:10CC90000189234FAD0085B004006943380009F0D5
:10CCA00055FD290005F04AF91E4EA17A2081300079
:10CCB00009F04CFD636CA072029323005833218964
:10CCC00001931B7869433800039309F03AFD072369
:10CCD0000343202203990298DBB208F061FE00288A
:10CCE0001AD1019B22221978606C102308F058FE9B
:10CCF000002811D1019BA17A30001F78656C09F0E2
:10CD000020FD80235B420343232239002800DBB24D
:10CD100008F046FE002800D0034805B0F0BDC0462C
:10CD2000D4880200CC8802000EFCFFFF10B504007E
:10CD3000034B0833036008F06DF9200010BDC046B6
:10CD400044890200F0B504258379040085B02B42A4
:10CD500004D1FDF73BF8A3791D43A57120004830AD
:10CD6000FEF7BEFF051E0DD02300583319780623A9
:10CD700002AE0093A8223300606CFEF727FD051E6B
:10CD800003D0144D280005B0F0BD1F200023F25E33
:10CD9000D31703409B180222B15E5B11CA170240F1
:10CDA00052180421775E3380F9170140A07A52119E
:10CDB0004343C919728049114243B18041435B42E8
:10CDC000E3612368524220009B6AA2612162984776
:10CDD000D8E7C0460EFCFFFFF8B504000F001900AD
:10CDE00006AB1E8807AB15001A88FDF7BFFC0F4B7A
:10CDF0006764083323602300AA8848339A80AA799D
:10CE00009A710B4AA968A2640E22AA5621652100D4
:10CE1000A889543108809A730023A37123005833E2
:10CE20001E802000FFF732FF2000F8BD4489020079
:10CE300098850200F7B5FA2504000189134EAD006C
:10CE40006943300009F082FC290005F077F82700DB
:10CE5000A36C208100935C373B7881B2694330003A
:10CE6000019309F06EFC6022C3B20199009808F0AA
:10CE700097FD002807D1012362223978A06C08F0C1
:10CE80008FFD002800D00248FEBDC0467889020010
:10CE90000EFCFFFF10B50400034B0833036008F0DD
:10CEA00086F9200010BDC046A08902007FB5082584
:10CEB000837904002B4204D1FCF788FFA3791D433A
:10CEC000A57120004C30FEF70BFF051E0DD023008E
:10CED0005C331978062302AE0093E8223300A06C7D
:10CEE000FEF774FC051E03D00B4D280004B070BD86
:10CEF0000223F25E96235B425A4362630021725E14
:10CF000020005343A3630423F25E96235343E36359
:10CF100023681B6A9847E8E70EFCFFFFF8B504009A
:10CF20000F00190006AB1E8807AB15001A88FDF725
:10CF300077FE0D4BA764083323602300AA884C3387
:10CF40009A80AA799A71094AA968E2640E22AA56BF
:10CF500061652100A889583108801E8220009A73DB
:10CF6000FFF768FF2000F8BDA08902009885020045
:10CF700010B50400054B083303601C3007F04AFE6F
:10CF80002000183007F046FE200010BDCC890200BA
:10CF9000FF23F0B52C4E8DB033700023040069469A
:10CFA0000088009303F0B6F8002802D16B469B7806
:10CFB0003370264D2B68DB68002B07D100232088B7
:10CFC0001A00190009F036F90DB0F0BD3378032BC3
:10CFD000F4D81F4901A8FDF7AFF92B6801A9DD6856
:10CFE00004A807F06CFE280004A909F081F80027C6
:10CFF000050004A807F00EFEBD421ED02900202225
:10D00000103104A806F054FA28000AF05AFF3178CB
:10D0100004ABC9005918082202A806F049FA0123F6
:10D020000822208802A909F005F90137002804D157
:10D030000C212088074A09F0FBF801A807F0EAFD57
:10D04000002FBBD0C0E7C04695200020FC2900205F
:10D05000DE970200FFFF0000F0B58379040091B075
:10D060005B071BD5FDF724F900232269801A99413B
:10D07000994203D1F533FF3398420FD3A0680028BB
:10D0800008D0354B1D8801F0FFF8036815222900F0
:10D090001B6A98470422A3799343A371A3799B0742
:10D0A00058D52E4E3368DB68002B4FD02C4F3B7881
:10D0B000032B4BD8284B2B491B8804A80193FDF761
:10D0C0003BF9336804A9DD6808A807F0F8FD08A952
:10D0D000280009F00DF8050008A807F09BFD0823BB
:10D0E00002AAD3800198073B063206A909F0A4F8EA
:10D0F000002D08D029002022103108A806F0D8F908
:10D1000028000AF0DEFE3D7802ABDA88ED0008ABBD
:10D110005D19280006A906F0A7F9002813D00822F7
:10D12000280006A906F0C4F9336804A9DD6805A83B
:10D1300007F0C5FD2023280008AA05A908F0DEFF96
:10D1400005A807F067FD04A807F064FD0222A37993
:10D150009343A37111B0F0BD1C2E0020FC290020C8
:10D1600095200020DE970200F0B50400150085B080
:10D1700001930AAB1F880BAB1B78461C02930EABC6
:10D180001B78102203930B7803704B8A0131438282
:10D19000300006F08DF9656100250122019B27838F
:10D1A0006383039BE5832377029B2000F377A31C13
:10D1B000DA770C9B0C26636223000D9A2833290032
:10D1C0001A705D7032009D702C3006F019FA200044
:10D1D000064B3200A3632900E563403006F010FAE5
:10D1E0002000034B2565E36405B0F0BD4F620200EB
:10D1F0004162020070B50D0001F046F804000368BA
:10D20000002D09D15B699847FA20800068430749DF
:10D2100004F094FEE08070BD9B6898478542F3D28D
:10D22000236820009B6898470500EDE77102000025
:10D23000F0B507001500A1B002C706006B4918A899
:10D240001C0009F0FCF82B1E03D0280006F042FC5D
:10D2500083B20122049200220392029202320192CE
:10D2600000932A0018A93800FFF77EFF33006049B9
:10D27000583318A8079309F0E2F8231E03D02000C2
:10D2800006F028FC83B2012204920022039202924B
:10D29000023201920093220018A90798FFF764FF59
:10D2A00033005449AC3318A8089309F0C8F8269BFA
:10D2B000002B03D0180006F00DFC83B2012204926B
:10D2C000002203920292023201920093269A18A938
:10D2D0000898FFF749FF731CFF33474918A80993C3
:10D2E00009F0ADF8279B002B03D0180006F0F2FBE5
:10D2F00083B2012204920022701C03920292023235
:10D3000001920093279A18A9FF30FFF72DFF3300F1
:10D310005533FF33394918A8099309F090F8289B31
:10D32000002B03D0180006F0D5FB83B20122049233
:10D33000002203920292023201920093289A18A9C5
:10D340000998FFF711FF3300A933FF332C4918A8C0
:10D350000A9309F074F8299B002B03D0180006F0FB
:10D36000B9FB83B201220492002218AC039202920C
:10D370000232019200932100299A0A98FFF7F4FEE5
:10D38000204B1B780B93002B2DD1079B1E49139329
:10D39000089B0DA81493731CFF331593099B1297D8
:10D3A00016930A9B12AD179309F049F81D214920E5
:10D3B00006AB1B7F1022237006ABDB8D638206ABAE
:10D3C000C918C01806F074F8062323750B9B1E9528
:10D3D0003068A38300F068FF036821001B6898474A
:10D3E0000122084B1A70300021B0F0BD292A00003C
:10D3F000242A0000252A0000272A0000262A0000EF
:10D40000282A0000752E00200A18000070B500259B
:10D4100004000B4B8580083385710360C1601830B0
:10D42000FCF7F4FF20001C30FCF7F0FF0123621C26
:10D43000D377044A2000A56065611460A37170BDB4
:10D44000CC890200FC290020FA2130B585B0040007
:10D45000012302226846890007F075FC074D286801
:10D46000002809D008F0F7FF2188054B2A681980A9
:10D47000022391790B43937105B030BDFC29002044
:10D480001C2E002010B50C0007290FD8806800F072
:10D49000FBFE074B195703685B6C984743425841A2
:10D4A000044B40421840044BC01810BD0348FCE731
:10D4B00068990200EA03000016FCFFFF17FCFFFF5B
:10D4C000F0B5A04C0D00A544040007939AAB1B785F
:10D4D0009D4909A804930692FCF72EFF200029001D
:10D4E0001C3007F0F4FBC020800001F045FD08204F
:10D4F0000AF0EBFC060000210EAF09F09FF915AD14
:10D500000C220021A660380006F07AF82B0007CF25
:10D5100007C38E4B2900EB60002330002B6109F01C
:10D5200076F9A06800F0B0FE08220021059016A848
:10D5300006F066F814200AF0C8FC854B2A00159303
:10D540000300C2CAC2C3834B059EC3600023A0363A
:10D5500003617368002B00D0EEE07060A06800F0FB
:10D56000A3FE08220021060016A806F049F81420A0
:10D570000AF0ABFC784B1593030086CD86C3774B3E
:10D58000C36000230361336B002B00D0D6E030630F
:10D59000A06800F079FE08220021059016A806F088
:10D5A0002FF814200AF091FC6D4B15AD15932A004D
:10D5B0000300C2CAC2C36B4B059EC36000239436EE
:10D5C00003617368002B00D0BAE07060012604ABE1
:10D5D0001B7C04AA334308A93000137408F02EFE04
:10D5E000A06800F071FE03685F495B6A9847A06815
:10D5F00000F06AFE03685D499B699847A06800F0E7
:10D6000063FE002302680093176804993200B8474C
:10D61000049B002B0AD0200008F026FF032805DD1C
:10D62000A06800F051FE0368DB68984700260EAF43
:10D63000B819073608F054FE1C2EF8D1183E04AB7A
:10D64000A0685E770A9700F03FFE03680AA91B698D
:10D650009847A06800F018FE03680AA95B6D984718
:10D66000A06800F011FE03680021DB6D9847A068F8
:10D6700000F00AFE036802219B6D984700212000FC
:10D68000FFF700FF18200AF020FCA16800F054FA10
:10D69000374B384A1B68A1680393374B28001B6837
:10D6A00000250293354B1B680193069B1B689B1951
:10D6B0000093334B12681B68FFF7BAFD30200AF065
:10D6C00004FC079AA16800F0F9FAA06800F0DCFDFC
:10D6D00003680CA99B6A9847082304AA1384A068CE
:10D6E000DB185384958400F0CFFD03680CA9DB6A36
:10D6F00098473100A06808F075FE099A09219378CF
:10D70000A068921908F081FEA06800F0BDFD3221EA
:10D710000571A068FFF76EFD04AB1B7FAB4204D020
:10D72000A06800F0B1FD08F0D1FD09A807F072FA79
:10D7300095239B009D44F0BD03610EE7036126E73E
:10D74000036142E7ACFDFFFFEA9702005D62020061
:10D7500049D401006B62020091CF0100796202009E
:10D76000A76202008762020085D70100B9D70100D5
:10D77000F8290020F429002008200020F0290020AA
:10D780000C20002013B506226846FCF715FE094B55
:10D790001C68002C0AD0694601A807F090FA200006
:10D7A00001A908F07BFE01A807F034FA684607F0EB
:10D7B00031FA13BDFC290020002373B501AE0C0023
:10D7C00031000500019302F0A5FC002802D1B278D7
:10D7D000064B1A70064B1868002806D0054B1D80B2
:10D7E00063425C41E1B208F061FE73BD9520002008
:10D7F000FC2900201C2E002030B5284CA9B06A223C
:10D800000D000DA8210005F053FE0DA903A8FCF79B
:10D8100031FE03A906A807F0C6FA01230193013BD4
:10D82000FF3B00930533FF33642206A92800FDF770
:10D8300073FF06A807F0AAFA210019226A3106A888
:10D8400005F036FE05220024110006AB04A807F0FF
:10D85000D1FA04A905A807F0A6FA2300220028009F
:10D860000194009405A9FDF799FE05A807F08EFA2A
:10D8700021002800FDF780FF05340520FCF744FB5C
:10D88000FF2CF5D1FA208000FCF73EFB04A807F03E
:10D890007DFA03A807F07AFA29B030BDE5980200B6
:10D8A000F0B59C4B95B005921A68082304000F0050
:10D8B000D16C06A80B43D3649749FCF73DFD97490B
:10D8C00007A8FCF739FD220000250DAE30001C3200
:10D8D00006A907F00BFA310007AA08A807F006FA14
:10D8E000300007F097F9631CDD77A06800F0CCFCEE
:10D8F00003685B6998477019073508F0F1FC1C2D27
:10D90000F9D180230BADDB00AB80A0680B9600F053
:10D91000BBFC036829005B6D9847A06800F0B4FC6D
:10D92000036800219B6D9847A06800F0ADFC0300E0
:10D93000002506000A331F2200211800039305F07A
:10D940005FFE039B3000DD7708F0B7FC0621A0687E
:10D9500008F048FD089A09219378A068043208F07D
:10D9600054FDA06800F090FCC8210571A068FFF785
:10D9700041FCA06800F088FC0581A06800F084FCF0
:10D9800008F0A4FC3800FDF79BFD2000FCF71EFA10
:10D9900039002000FFF730FF3900200008F099FD22
:10D9A000FF23049503936269012316001E401A4267
:10D9B00032D05B4909A8FCF7D7FD09A90AA807F0EE
:10D9C000F2F900220AA91300019200923800FDF733
:10D9D000E5FD0AA807F0DAF9049B002B47D1039B69
:10D9E000043B0393039B282B44DC380007F0CBFF58
:10D9F000039B002B00DC0496059807F0C4FB00286D
:10DA000006D0012362699A43130004221343636121
:10DA100009A807F0BBF9002504226369134234D03A
:10DA2000FF213800C826FDF7A7FE0025B600A36930
:10DA300002229B5EAB4223DD200029B2183007F0A2
:10DA40006BF90023010038001A007430FCF7DCFD8C
:10DA50003000FCF759FA380007F095FFC820FCF7B2
:10DA600053FA0222636913420AD10135DFE7039BAF
:10DA70000433B6E7039BFE2BBEDD00230493BBE714
:10DA8000FA208000FCF740FA002502226369134265
:10DA90001ED01E0006321640134224D0214909A888
:10DAA000FCF762FD09A90AA807F07DF900220AA97E
:10DAB0001300019200923800FDF770FD0AA807F0EC
:10DAC00065F91948FCF720FA09A807F05FF9174D26
:10DAD0006420FCF719FA164B01359D4200DC62E721
